{
	"contracts/memebank.sol": {
		"MemecoinLendingBorrowing": {
			"abi": [
				{
					"inputs": [
						{
							"internalType": "address",
							"name": "_memecoin",
							"type": "address"
						},
						{
							"internalType": "address",
							"name": "_stablecoin",
							"type": "address"
						},
						{
							"internalType": "address",
							"name": "_priceOracle",
							"type": "address"
						}
					],
					"stateMutability": "nonpayable",
					"type": "constructor"
				},
				{
					"anonymous": false,
					"inputs": [
						{
							"indexed": true,
							"internalType": "address",
							"name": "user",
							"type": "address"
						},
						{
							"indexed": false,
							"internalType": "uint256",
							"name": "amount",
							"type": "uint256"
						}
					],
					"name": "InterestEarned",
					"type": "event"
				},
				{
					"anonymous": false,
					"inputs": [
						{
							"indexed": true,
							"internalType": "address",
							"name": "user",
							"type": "address"
						},
						{
							"indexed": false,
							"internalType": "uint256",
							"name": "amount",
							"type": "uint256"
						}
					],
					"name": "StableDeposited",
					"type": "event"
				},
				{
					"anonymous": false,
					"inputs": [
						{
							"indexed": true,
							"internalType": "address",
							"name": "user",
							"type": "address"
						},
						{
							"indexed": false,
							"internalType": "uint256",
							"name": "amount",
							"type": "uint256"
						},
						{
							"indexed": false,
							"internalType": "uint256",
							"name": "interest",
							"type": "uint256"
						}
					],
					"name": "StableWithdrawn",
					"type": "event"
				},
				{
					"inputs": [
						{
							"internalType": "uint256",
							"name": "_amount",
							"type": "uint256"
						}
					],
					"name": "borrowStablecoins",
					"outputs": [],
					"stateMutability": "nonpayable",
					"type": "function"
				},
				{
					"inputs": [
						{
							"internalType": "address",
							"name": "_user",
							"type": "address"
						}
					],
					"name": "calculateInterest",
					"outputs": [
						{
							"internalType": "uint256",
							"name": "",
							"type": "uint256"
						}
					],
					"stateMutability": "view",
					"type": "function"
				},
				{
					"inputs": [
						{
							"internalType": "address",
							"name": "_user",
							"type": "address"
						}
					],
					"name": "calculateLendingInterest",
					"outputs": [
						{
							"internalType": "uint256",
							"name": "",
							"type": "uint256"
						}
					],
					"stateMutability": "view",
					"type": "function"
				},
				{
					"inputs": [
						{
							"internalType": "address",
							"name": "_user",
							"type": "address"
						}
					],
					"name": "calculateRepaymentAmount",
					"outputs": [
						{
							"internalType": "uint256",
							"name": "totalRepayment",
							"type": "uint256"
						},
						{
							"internalType": "uint256",
							"name": "principal",
							"type": "uint256"
						},
						{
							"internalType": "uint256",
							"name": "interestAmount",
							"type": "uint256"
						}
					],
					"stateMutability": "view",
					"type": "function"
				},
				{
					"inputs": [],
					"name": "collateralizationRatio",
					"outputs": [
						{
							"internalType": "uint256",
							"name": "",
							"type": "uint256"
						}
					],
					"stateMutability": "view",
					"type": "function"
				},
				{
					"inputs": [
						{
							"internalType": "uint256",
							"name": "_amount",
							"type": "uint256"
						}
					],
					"name": "depositCollateral",
					"outputs": [],
					"stateMutability": "nonpayable",
					"type": "function"
				},
				{
					"inputs": [
						{
							"internalType": "uint256",
							"name": "_amount",
							"type": "uint256"
						}
					],
					"name": "depositStable",
					"outputs": [],
					"stateMutability": "nonpayable",
					"type": "function"
				},
				{
					"inputs": [
						{
							"internalType": "address",
							"name": "_user",
							"type": "address"
						}
					],
					"name": "getCollateralValue",
					"outputs": [
						{
							"internalType": "uint256",
							"name": "",
							"type": "uint256"
						}
					],
					"stateMutability": "view",
					"type": "function"
				},
				{
					"inputs": [],
					"name": "getPlatformStats",
					"outputs": [
						{
							"internalType": "uint256",
							"name": "totalDeposits",
							"type": "uint256"
						},
						{
							"internalType": "uint256",
							"name": "totalBorrowed",
							"type": "uint256"
						},
						{
							"internalType": "uint256",
							"name": "availableLiquidity",
							"type": "uint256"
						}
					],
					"stateMutability": "view",
					"type": "function"
				},
				{
					"inputs": [],
					"name": "getTotalBorrowed",
					"outputs": [
						{
							"internalType": "uint256",
							"name": "totalBorrowed",
							"type": "uint256"
						}
					],
					"stateMutability": "view",
					"type": "function"
				},
				{
					"inputs": [
						{
							"internalType": "address",
							"name": "_user",
							"type": "address"
						}
					],
					"name": "getTotalEarnings",
					"outputs": [
						{
							"internalType": "uint256",
							"name": "",
							"type": "uint256"
						}
					],
					"stateMutability": "view",
					"type": "function"
				},
				{
					"inputs": [
						{
							"internalType": "address",
							"name": "_user",
							"type": "address"
						}
					],
					"name": "getUserData",
					"outputs": [
						{
							"internalType": "uint256",
							"name": "collateralAmount",
							"type": "uint256"
						},
						{
							"internalType": "uint256",
							"name": "borrowedAmount",
							"type": "uint256"
						},
						{
							"internalType": "uint256",
							"name": "stabledDeposited",
							"type": "uint256"
						},
						{
							"internalType": "uint256",
							"name": "depositTimestamp",
							"type": "uint256"
						}
					],
					"stateMutability": "view",
					"type": "function"
				},
				{
					"inputs": [],
					"name": "interestRate",
					"outputs": [
						{
							"internalType": "uint256",
							"name": "",
							"type": "uint256"
						}
					],
					"stateMutability": "view",
					"type": "function"
				},
				{
					"inputs": [],
					"name": "lendingInterestRate",
					"outputs": [
						{
							"internalType": "uint256",
							"name": "",
							"type": "uint256"
						}
					],
					"stateMutability": "view",
					"type": "function"
				},
				{
					"inputs": [],
					"name": "liquidationRatio",
					"outputs": [
						{
							"internalType": "uint256",
							"name": "",
							"type": "uint256"
						}
					],
					"stateMutability": "view",
					"type": "function"
				},
				{
					"inputs": [],
					"name": "memecoin",
					"outputs": [
						{
							"internalType": "contract IERC20",
							"name": "",
							"type": "address"
						}
					],
					"stateMutability": "view",
					"type": "function"
				},
				{
					"inputs": [],
					"name": "owner",
					"outputs": [
						{
							"internalType": "address",
							"name": "",
							"type": "address"
						}
					],
					"stateMutability": "view",
					"type": "function"
				},
				{
					"inputs": [],
					"name": "priceOracle",
					"outputs": [
						{
							"internalType": "contract IPriceOracle",
							"name": "",
							"type": "address"
						}
					],
					"stateMutability": "view",
					"type": "function"
				},
				{
					"inputs": [
						{
							"internalType": "uint256",
							"name": "_amount",
							"type": "uint256"
						}
					],
					"name": "repayLoan",
					"outputs": [],
					"stateMutability": "nonpayable",
					"type": "function"
				},
				{
					"inputs": [
						{
							"internalType": "uint256",
							"name": "_rate",
							"type": "uint256"
						}
					],
					"name": "setLendingInterestRate",
					"outputs": [],
					"stateMutability": "nonpayable",
					"type": "function"
				},
				{
					"inputs": [],
					"name": "stablecoin",
					"outputs": [
						{
							"internalType": "contract IERC20",
							"name": "",
							"type": "address"
						}
					],
					"stateMutability": "view",
					"type": "function"
				},
				{
					"inputs": [],
					"name": "totalStableDeposits",
					"outputs": [
						{
							"internalType": "uint256",
							"name": "",
							"type": "uint256"
						}
					],
					"stateMutability": "view",
					"type": "function"
				},
				{
					"inputs": [
						{
							"internalType": "address",
							"name": "",
							"type": "address"
						}
					],
					"name": "users",
					"outputs": [
						{
							"internalType": "uint256",
							"name": "collateralAmount",
							"type": "uint256"
						},
						{
							"internalType": "uint256",
							"name": "borrowedAmount",
							"type": "uint256"
						},
						{
							"internalType": "uint256",
							"name": "borrowTimestamp",
							"type": "uint256"
						},
						{
							"internalType": "uint256",
							"name": "stabledDeposited",
							"type": "uint256"
						},
						{
							"internalType": "uint256",
							"name": "depositTimestamp",
							"type": "uint256"
						}
					],
					"stateMutability": "view",
					"type": "function"
				},
				{
					"inputs": [
						{
							"internalType": "uint256",
							"name": "_amount",
							"type": "uint256"
						}
					],
					"name": "withdrawStable",
					"outputs": [],
					"stateMutability": "nonpayable",
					"type": "function"
				}
			],
			"devdoc": {
				"kind": "dev",
				"methods": {},
				"version": 1
			},
			"evm": {
				"assembly": "    /* \"contracts/memebank.sol\":508:9148  contract MemecoinLendingBorrowing {... */\n  mstore(0x40, 0x80)\n    /* \"contracts/memebank.sol\":1080:1082  10 */\n  0x0a\n    /* \"contracts/memebank.sol\":1050:1082  uint256 public interestRate = 10 */\n  0x04\n  sstore\n    /* \"contracts/memebank.sol\":1168:1169  8 */\n  0x08\n    /* \"contracts/memebank.sol\":1131:1169  uint256 public lendingInterestRate = 8 */\n  0x05\n  sstore\n    /* \"contracts/memebank.sol\":1256:1259  166 */\n  0xa6\n    /* \"contracts/memebank.sol\":1216:1259  uint256 public collateralizationRatio = 166 */\n  0x06\n  sstore\n    /* \"contracts/memebank.sol\":1330:1333  150 */\n  0x96\n    /* \"contracts/memebank.sol\":1296:1333  uint256 public liquidationRatio = 150 */\n  0x07\n  sstore\n    /* \"contracts/memebank.sol\":1817:2056  constructor(address _memecoin, address _stablecoin, address _priceOracle) {... */\n  callvalue\n  dup1\n  iszero\n  tag_1\n  jumpi\n  0x00\n  dup1\n  revert\ntag_1:\n  pop\n  mload(0x40)\n  sub(codesize, bytecodeSize)\n  dup1\n  bytecodeSize\n  dup4\n  codecopy\n  dup2\n  add\n  0x40\n  dup2\n  swap1\n  mstore\n  tag_2\n  swap2\n  tag_3\n  jump\t// in\ntag_2:\n    /* \"contracts/memebank.sol\":1901:1909  memecoin */\n  0x00\n    /* \"contracts/memebank.sol\":1901:1929  memecoin = IERC20(_memecoin) */\n  dup1\n  sload\n  sub(shl(0xa0, 0x01), 0x01)\n  swap5\n  dup6\n  and\n  not(sub(shl(0xa0, 0x01), 0x01))\n  swap2\n  dup3\n  and\n  or\n  swap1\n  swap2\n  sstore\n  0x01\n    /* \"contracts/memebank.sol\":1939:1971  stablecoin = IERC20(_stablecoin) */\n  dup1\n  sload\n  swap4\n  dup6\n  and\n  swap4\n  dup3\n  and\n  swap4\n  swap1\n  swap4\n  or\n  swap1\n  swap3\n  sstore\n    /* \"contracts/memebank.sol\":1981:1992  priceOracle */\n  0x02\n    /* \"contracts/memebank.sol\":1981:2021  priceOracle = IPriceOracle(_priceOracle) */\n  dup1\n  sload\n  swap2\n  swap1\n  swap4\n  and\n  swap1\n  dup3\n  and\n  or\n  swap1\n  swap2\n  sstore\n    /* \"contracts/memebank.sol\":2031:2036  owner */\n  0x09\n    /* \"contracts/memebank.sol\":2031:2049  owner = msg.sender */\n  dup1\n  sload\n  swap1\n  swap2\n  and\n    /* \"contracts/memebank.sol\":2039:2049  msg.sender */\n  caller\n    /* \"contracts/memebank.sol\":2031:2049  owner = msg.sender */\n  or\n  swap1\n  sstore\n    /* \"contracts/memebank.sol\":508:9148  contract MemecoinLendingBorrowing {... */\n  jump(tag_8)\n    /* \"#utility.yul\":14:191   */\ntag_7:\n    /* \"#utility.yul\":93:106   */\n  dup1\n  mload\n  sub(shl(0xa0, 0x01), 0x01)\n    /* \"#utility.yul\":135:166   */\n  dup2\n  and\n    /* \"#utility.yul\":125:167   */\n  dup2\n  eq\n    /* \"#utility.yul\":115:185   */\n  tag_10\n  jumpi\n    /* \"#utility.yul\":181:182   */\n  0x00\n    /* \"#utility.yul\":178:179   */\n  dup1\n    /* \"#utility.yul\":171:183   */\n  revert\n    /* \"#utility.yul\":115:185   */\ntag_10:\n    /* \"#utility.yul\":14:191   */\n  swap2\n  swap1\n  pop\n  jump\t// out\n    /* \"#utility.yul\":196:574   */\ntag_3:\n    /* \"#utility.yul\":284:290   */\n  0x00\n    /* \"#utility.yul\":292:298   */\n  dup1\n    /* \"#utility.yul\":300:306   */\n  0x00\n    /* \"#utility.yul\":353:355   */\n  0x60\n    /* \"#utility.yul\":341:350   */\n  dup5\n    /* \"#utility.yul\":332:339   */\n  dup7\n    /* \"#utility.yul\":328:351   */\n  sub\n    /* \"#utility.yul\":324:356   */\n  slt\n    /* \"#utility.yul\":321:373   */\n  iszero\n  tag_12\n  jumpi\n    /* \"#utility.yul\":369:370   */\n  0x00\n    /* \"#utility.yul\":366:367   */\n  dup1\n    /* \"#utility.yul\":359:371   */\n  revert\n    /* \"#utility.yul\":321:373   */\ntag_12:\n    /* \"#utility.yul\":392:432   */\n  tag_13\n    /* \"#utility.yul\":422:431   */\n  dup5\n    /* \"#utility.yul\":392:432   */\n  tag_7\n  jump\t// in\ntag_13:\n    /* \"#utility.yul\":382:432   */\n  swap3\n  pop\n    /* \"#utility.yul\":451:500   */\n  tag_14\n    /* \"#utility.yul\":496:498   */\n  0x20\n    /* \"#utility.yul\":485:494   */\n  dup6\n    /* \"#utility.yul\":481:499   */\n  add\n    /* \"#utility.yul\":451:500   */\n  tag_7\n  jump\t// in\ntag_14:\n    /* \"#utility.yul\":441:500   */\n  swap2\n  pop\n    /* \"#utility.yul\":519:568   */\n  tag_15\n    /* \"#utility.yul\":564:566   */\n  0x40\n    /* \"#utility.yul\":553:562   */\n  dup6\n    /* \"#utility.yul\":549:567   */\n  add\n    /* \"#utility.yul\":519:568   */\n  tag_7\n  jump\t// in\ntag_15:\n    /* \"#utility.yul\":509:568   */\n  swap1\n  pop\n    /* \"#utility.yul\":196:574   */\n  swap3\n  pop\n  swap3\n  pop\n  swap3\n  jump\t// out\ntag_8:\n    /* \"contracts/memebank.sol\":508:9148  contract MemecoinLendingBorrowing {... */\n  dataSize(sub_0)\n  dup1\n  dataOffset(sub_0)\n  0x00\n  codecopy\n  0x00\n  return\nstop\n\nsub_0: assembly {\n        /* \"contracts/memebank.sol\":508:9148  contract MemecoinLendingBorrowing {... */\n      mstore(0x40, 0x80)\n      callvalue\n      dup1\n      iszero\n      tag_1\n      jumpi\n      0x00\n      dup1\n      revert\n    tag_1:\n      pop\n      jumpi(tag_2, lt(calldatasize, 0x04))\n      shr(0xe0, calldataload(0x00))\n      dup1\n      0x97904e42\n      gt\n      tag_27\n      jumpi\n      dup1\n      0xc041bc36\n      gt\n      tag_28\n      jumpi\n      dup1\n      0xc041bc36\n      eq\n      tag_21\n      jumpi\n      dup1\n      0xc880f83e\n      eq\n      tag_22\n      jumpi\n      dup1\n      0xdcaf9c44\n      eq\n      tag_23\n      jumpi\n      dup1\n      0xe11932cf\n      eq\n      tag_24\n      jumpi\n      dup1\n      0xe9cbd822\n      eq\n      tag_25\n      jumpi\n      dup1\n      0xffc9896b\n      eq\n      tag_26\n      jumpi\n      0x00\n      dup1\n      revert\n    tag_28:\n      dup1\n      0x97904e42\n      eq\n      tag_15\n      jumpi\n      dup1\n      0x9c424e58\n      eq\n      tag_16\n      jumpi\n      dup1\n      0xa0c5cef3\n      eq\n      tag_17\n      jumpi\n      dup1\n      0xa87430ba\n      eq\n      tag_18\n      jumpi\n      dup1\n      0xab7b1c89\n      eq\n      tag_19\n      jumpi\n      dup1\n      0xbad4a01f\n      eq\n      tag_20\n      jumpi\n      0x00\n      dup1\n      revert\n    tag_27:\n      dup1\n      0x2630c12f\n      gt\n      tag_29\n      jumpi\n      dup1\n      0x2630c12f\n      eq\n      tag_9\n      jumpi\n      dup1\n      0x2975e325\n      eq\n      tag_10\n      jumpi\n      dup1\n      0x29ffadd0\n      eq\n      tag_11\n      jumpi\n      dup1\n      0x6438f89c\n      eq\n      tag_12\n      jumpi\n      dup1\n      0x7c3a00fd\n      eq\n      tag_13\n      jumpi\n      dup1\n      0x8da5cb5b\n      eq\n      tag_14\n      jumpi\n      0x00\n      dup1\n      revert\n    tag_29:\n      dup1\n      0x0307c4a1\n      eq\n      tag_3\n      jumpi\n      dup1\n      0x0ad7d67d\n      eq\n      tag_4\n      jumpi\n      dup1\n      0x0fcfb059\n      eq\n      tag_5\n      jumpi\n      dup1\n      0x136d8883\n      eq\n      tag_6\n      jumpi\n      dup1\n      0x1775765f\n      eq\n      tag_7\n      jumpi\n      dup1\n      0x1a37ea11\n      eq\n      tag_8\n      jumpi\n    tag_2:\n      0x00\n      dup1\n      revert\n        /* \"contracts/memebank.sol\":6793:7062  function getTotalBorrowed() public view returns (uint256 totalBorrowed) {... */\n    tag_3:\n        /* \"contracts/memebank.sol\":7029:7039  msg.sender */\n      caller\n        /* \"contracts/memebank.sol\":6842:6863  uint256 totalBorrowed */\n      0x00\n        /* \"contracts/memebank.sol\":7023:7040  users[msg.sender] */\n      swap1\n      dup2\n      mstore\n        /* \"contracts/memebank.sol\":7023:7028  users */\n      0x03\n        /* \"contracts/memebank.sol\":7023:7040  users[msg.sender] */\n      0x20\n      mstore\n      0x40\n      swap1\n      keccak256\n        /* \"contracts/memebank.sol\":7023:7055  users[msg.sender].borrowedAmount */\n      0x01\n      add\n      sload\n        /* \"contracts/memebank.sol\":6793:7062  function getTotalBorrowed() public view returns (uint256 totalBorrowed) {... */\n    tag_30:\n      mload(0x40)\n        /* \"#utility.yul\":160:185   */\n      swap1\n      dup2\n      mstore\n        /* \"#utility.yul\":148:150   */\n      0x20\n        /* \"#utility.yul\":133:151   */\n      add\n        /* \"contracts/memebank.sol\":6793:7062  function getTotalBorrowed() public view returns (uint256 totalBorrowed) {... */\n    tag_32:\n      mload(0x40)\n      dup1\n      swap2\n      sub\n      swap1\n      return\n        /* \"contracts/memebank.sol\":3360:4556  function withdrawStable(uint256 _amount) external {... */\n    tag_4:\n      tag_34\n      tag_35\n      calldatasize\n      0x04\n      tag_36\n      jump\t// in\n    tag_35:\n      tag_37\n      jump\t// in\n    tag_34:\n      stop\n        /* \"contracts/memebank.sol\":2120:2760  function depositStable(uint256 _amount) external {... */\n    tag_5:\n      tag_34\n      tag_39\n      calldatasize\n      0x04\n      tag_36\n      jump\t// in\n    tag_39:\n      tag_40\n      jump\t// in\n        /* \"contracts/memebank.sol\":6432:6735  function getPlatformStats() external view returns (... */\n    tag_6:\n      tag_41\n      tag_42\n      jump\t// in\n    tag_41:\n      0x40\n      dup1\n      mload\n        /* \"#utility.yul\":583:608   */\n      swap4\n      dup5\n      mstore\n        /* \"#utility.yul\":639:641   */\n      0x20\n        /* \"#utility.yul\":624:642   */\n      dup5\n      add\n        /* \"#utility.yul\":617:651   */\n      swap3\n      swap1\n      swap3\n      mstore\n        /* \"#utility.yul\":667:685   */\n      swap1\n      dup3\n      add\n        /* \"#utility.yul\":660:694   */\n      mstore\n        /* \"#utility.yul\":571:573   */\n      0x60\n        /* \"#utility.yul\":556:574   */\n      add\n        /* \"contracts/memebank.sol\":6432:6735  function getPlatformStats() external view returns (... */\n      tag_32\n        /* \"#utility.yul\":381:700   */\n      jump\n        /* \"contracts/memebank.sol\":1296:1333  uint256 public liquidationRatio = 150 */\n    tag_7:\n      tag_30\n      sload(0x07)\n      dup2\n      jump\n        /* \"contracts/memebank.sol\":548:570  IERC20 public memecoin */\n    tag_8:\n      sload(0x00)\n      tag_48\n      swap1\n      sub(shl(0xa0, 0x01), 0x01)\n      and\n      dup2\n      jump\n    tag_48:\n      mload(0x40)\n      sub(shl(0xa0, 0x01), 0x01)\n        /* \"#utility.yul\":882:914   */\n      swap1\n      swap2\n      and\n        /* \"#utility.yul\":864:915   */\n      dup2\n      mstore\n        /* \"#utility.yul\":852:854   */\n      0x20\n        /* \"#utility.yul\":837:855   */\n      add\n        /* \"contracts/memebank.sol\":548:570  IERC20 public memecoin */\n      tag_32\n        /* \"#utility.yul\":705:921   */\n      jump\n        /* \"contracts/memebank.sol\":606:637  IPriceOracle public priceOracle */\n    tag_9:\n      sload(0x02)\n      tag_48\n      swap1\n      sub(shl(0xa0, 0x01), 0x01)\n      and\n      dup2\n      jump\n        /* \"contracts/memebank.sol\":5539:5703  function setLendingInterestRate(uint256 _rate) external onlyOwner {... */\n    tag_10:\n      tag_34\n      tag_57\n      calldatasize\n      0x04\n      tag_36\n      jump\t// in\n    tag_57:\n      tag_58\n      jump\t// in\n        /* \"contracts/memebank.sol\":1131:1169  uint256 public lendingInterestRate = 8 */\n    tag_11:\n      tag_30\n      sload(0x05)\n      dup2\n      jump\n        /* \"contracts/memebank.sol\":4626:4824  function getTotalEarnings(address _user) external view returns (uint256) {... */\n    tag_12:\n      tag_30\n      tag_63\n      calldatasize\n      0x04\n      tag_64\n      jump\t// in\n    tag_63:\n      tag_65\n      jump\t// in\n        /* \"contracts/memebank.sol\":1050:1082  uint256 public interestRate = 10 */\n    tag_13:\n      tag_30\n      sload(0x04)\n      dup2\n      jump\n        /* \"contracts/memebank.sol\":1443:1463  address public owner */\n    tag_14:\n      sload(0x09)\n      tag_48\n      swap1\n      sub(shl(0xa0, 0x01), 0x01)\n      and\n      dup2\n      jump\n        /* \"contracts/memebank.sol\":8878:9146  function getCollateralValue(address _user) public view returns (uint256) {... */\n    tag_15:\n      tag_30\n      tag_75\n      calldatasize\n      0x04\n      tag_64\n      jump\t// in\n    tag_75:\n      tag_76\n      jump\t// in\n        /* \"contracts/memebank.sol\":5776:6379  function calculateRepaymentAmount(address _user) public view returns (... */\n    tag_16:\n      tag_41\n      tag_79\n      calldatasize\n      0x04\n      tag_64\n      jump\t// in\n    tag_79:\n      tag_80\n      jump\t// in\n        /* \"contracts/memebank.sol\":2821:3288  function calculateLendingInterest(address _user) public view returns (uint256) {... */\n    tag_17:\n      tag_30\n      tag_83\n      calldatasize\n      0x04\n      tag_64\n      jump\t// in\n    tag_83:\n      tag_84\n      jump\t// in\n        /* \"contracts/memebank.sol\":970:1011  mapping(address => UserData) public users */\n    tag_18:\n      tag_86\n      tag_87\n      calldatasize\n      0x04\n      tag_64\n      jump\t// in\n    tag_87:\n      0x03\n      0x20\n      dup2\n      swap1\n      mstore\n      0x00\n      swap2\n      dup3\n      mstore\n      0x40\n      swap1\n      swap2\n      keccak256\n      dup1\n      sload\n      0x01\n      dup3\n      add\n      sload\n      0x02\n      dup4\n      add\n      sload\n      swap4\n      dup4\n      add\n      sload\n      0x04\n      swap1\n      swap4\n      add\n      sload\n      swap2\n      swap4\n      swap1\n      swap3\n      swap1\n      swap2\n      dup6\n      jump\n    tag_86:\n      0x40\n      dup1\n      mload\n        /* \"#utility.yul\":1911:1936   */\n      swap6\n      dup7\n      mstore\n        /* \"#utility.yul\":1967:1969   */\n      0x20\n        /* \"#utility.yul\":1952:1970   */\n      dup7\n      add\n        /* \"#utility.yul\":1945:1979   */\n      swap5\n      swap1\n      swap5\n      mstore\n        /* \"#utility.yul\":1995:2013   */\n      swap3\n      dup5\n      add\n        /* \"#utility.yul\":1988:2022   */\n      swap2\n      swap1\n      swap2\n      mstore\n        /* \"#utility.yul\":2053:2055   */\n      0x60\n        /* \"#utility.yul\":2038:2056   */\n      dup4\n      add\n        /* \"#utility.yul\":2031:2065   */\n      mstore\n        /* \"#utility.yul\":2096:2099   */\n      0x80\n        /* \"#utility.yul\":2081:2100   */\n      dup3\n      add\n        /* \"#utility.yul\":2074:2109   */\n      mstore\n        /* \"#utility.yul\":1898:1901   */\n      0xa0\n        /* \"#utility.yul\":1883:1902   */\n      add\n        /* \"contracts/memebank.sol\":970:1011  mapping(address => UserData) public users */\n      tag_32\n        /* \"#utility.yul\":1652:2115   */\n      jump\n        /* \"contracts/memebank.sol\":7832:8317  function repayLoan(uint256 _amount) public {... */\n    tag_19:\n      tag_34\n      tag_92\n      calldatasize\n      0x04\n      tag_36\n      jump\t// in\n    tag_92:\n      tag_93\n      jump\t// in\n        /* \"contracts/memebank.sol\":7119:7362  function depositCollateral(uint256 _amount) public {... */\n    tag_20:\n      tag_34\n      tag_95\n      calldatasize\n      0x04\n      tag_36\n      jump\t// in\n    tag_95:\n      tag_96\n      jump\t// in\n        /* \"contracts/memebank.sol\":4902:5479  function borrowStablecoins(uint256 _amount) public {... */\n    tag_21:\n      tag_34\n      tag_98\n      calldatasize\n      0x04\n      tag_36\n      jump\t// in\n    tag_98:\n      tag_99\n      jump\t// in\n        /* \"contracts/memebank.sol\":1378:1412  uint256 public totalStableDeposits */\n    tag_22:\n      tag_30\n      sload(0x08)\n      dup2\n      jump\n        /* \"contracts/memebank.sol\":1216:1259  uint256 public collateralizationRatio = 166 */\n    tag_23:\n      tag_30\n      sload(0x06)\n      dup2\n      jump\n        /* \"contracts/memebank.sol\":7433:7799  function calculateInterest(address _user) public view returns (uint256) {... */\n    tag_24:\n      tag_30\n      tag_107\n      calldatasize\n      0x04\n      tag_64\n      jump\t// in\n    tag_107:\n      tag_108\n      jump\t// in\n        /* \"contracts/memebank.sol\":576:600  IERC20 public stablecoin */\n    tag_25:\n      sload(0x01)\n      tag_48\n      swap1\n      sub(shl(0xa0, 0x01), 0x01)\n      and\n      dup2\n      jump\n        /* \"contracts/memebank.sol\":8387:8805  function getUserData(address _user) external view returns (... */\n    tag_26:\n      tag_113\n      tag_114\n      calldatasize\n      0x04\n      tag_64\n      jump\t// in\n    tag_114:\n      sub(shl(0xa0, 0x01), 0x01)\n        /* \"contracts/memebank.sol\":8621:8633  users[_user] */\n      and\n        /* \"contracts/memebank.sol\":8455:8479  uint256 collateralAmount */\n      0x00\n        /* \"contracts/memebank.sol\":8621:8633  users[_user] */\n      swap1\n      dup2\n      mstore\n        /* \"contracts/memebank.sol\":8621:8626  users */\n      0x03\n        /* \"contracts/memebank.sol\":8621:8633  users[_user] */\n      0x20\n      dup2\n      swap1\n      mstore\n      0x40\n      swap1\n      swap2\n      keccak256\n        /* \"contracts/memebank.sol\":8664:8685  user.collateralAmount */\n      dup1\n      sload\n        /* \"contracts/memebank.sol\":8699:8718  user.borrowedAmount */\n      0x01\n      dup3\n      add\n      sload\n        /* \"contracts/memebank.sol\":8732:8753  user.stabledDeposited */\n      swap3\n      dup3\n      add\n      sload\n        /* \"contracts/memebank.sol\":8767:8788  user.depositTimestamp */\n      0x04\n      swap1\n      swap3\n      add\n      sload\n        /* \"contracts/memebank.sol\":8664:8685  user.collateralAmount */\n      swap1\n      swap4\n        /* \"contracts/memebank.sol\":8387:8805  function getUserData(address _user) external view returns (... */\n      jump\n    tag_113:\n      0x40\n      dup1\n      mload\n        /* \"#utility.yul\":2351:2376   */\n      swap5\n      dup6\n      mstore\n        /* \"#utility.yul\":2407:2409   */\n      0x20\n        /* \"#utility.yul\":2392:2410   */\n      dup6\n      add\n        /* \"#utility.yul\":2385:2419   */\n      swap4\n      swap1\n      swap4\n      mstore\n        /* \"#utility.yul\":2435:2453   */\n      swap2\n      dup4\n      add\n        /* \"#utility.yul\":2428:2462   */\n      mstore\n        /* \"#utility.yul\":2493:2495   */\n      0x60\n        /* \"#utility.yul\":2478:2496   */\n      dup3\n      add\n        /* \"#utility.yul\":2471:2505   */\n      mstore\n        /* \"#utility.yul\":2338:2341   */\n      0x80\n        /* \"#utility.yul\":2323:2342   */\n      add\n        /* \"contracts/memebank.sol\":8387:8805  function getUserData(address _user) external view returns (... */\n      tag_32\n        /* \"#utility.yul\":2120:2511   */\n      jump\n        /* \"contracts/memebank.sol\":3360:4556  function withdrawStable(uint256 _amount) external {... */\n    tag_37:\n        /* \"contracts/memebank.sol\":3450:3460  msg.sender */\n      caller\n        /* \"contracts/memebank.sol\":3420:3441  UserData storage user */\n      0x00\n        /* \"contracts/memebank.sol\":3444:3461  users[msg.sender] */\n      swap1\n      dup2\n      mstore\n        /* \"contracts/memebank.sol\":3444:3449  users */\n      0x03\n        /* \"contracts/memebank.sol\":3444:3461  users[msg.sender] */\n      0x20\n      dup2\n      swap1\n      mstore\n      0x40\n      swap1\n      swap2\n      keccak256\n        /* \"contracts/memebank.sol\":3479:3500  user.stabledDeposited */\n      swap1\n      dup2\n      add\n      sload\n        /* \"contracts/memebank.sol\":3471:3526  require(user.stabledDeposited > 0, \"No deposits found\") */\n      tag_120\n      jumpi\n      mload(0x40)\n      shl(0xe5, 0x461bcd)\n      dup2\n      mstore\n        /* \"#utility.yul\":2718:2720   */\n      0x20\n        /* \"contracts/memebank.sol\":3471:3526  require(user.stabledDeposited > 0, \"No deposits found\") */\n      0x04\n      dup3\n      add\n        /* \"#utility.yul\":2700:2721   */\n      mstore\n        /* \"#utility.yul\":2757:2759   */\n      0x11\n        /* \"#utility.yul\":2737:2755   */\n      0x24\n      dup3\n      add\n        /* \"#utility.yul\":2730:2760   */\n      mstore\n      shl(0x7a, 0x139bc819195c1bdcda5d1cc8199bdd5b99)\n        /* \"#utility.yul\":2776:2794   */\n      0x44\n      dup3\n      add\n        /* \"#utility.yul\":2769:2816   */\n      mstore\n        /* \"#utility.yul\":2833:2851   */\n      0x64\n      add\n        /* \"contracts/memebank.sol\":3471:3526  require(user.stabledDeposited > 0, \"No deposits found\") */\n    tag_121:\n      mload(0x40)\n      dup1\n      swap2\n      sub\n      swap1\n      revert\n    tag_120:\n        /* \"contracts/memebank.sol\":3545:3561  uint256 interest */\n      0x00\n        /* \"contracts/memebank.sol\":3564:3600  calculateLendingInterest(msg.sender) */\n      tag_123\n        /* \"contracts/memebank.sol\":3589:3599  msg.sender */\n      caller\n        /* \"contracts/memebank.sol\":3564:3588  calculateLendingInterest */\n      tag_84\n        /* \"contracts/memebank.sol\":3564:3600  calculateLendingInterest(msg.sender) */\n      jump\t// in\n    tag_123:\n        /* \"contracts/memebank.sol\":3545:3600  uint256 interest = calculateLendingInterest(msg.sender) */\n      swap1\n      pop\n        /* \"contracts/memebank.sol\":3610:3632  uint256 totalAvailable */\n      0x00\n        /* \"contracts/memebank.sol\":3659:3667  interest */\n      dup2\n        /* \"contracts/memebank.sol\":3635:3639  user */\n      dup4\n        /* \"contracts/memebank.sol\":3635:3656  user.stabledDeposited */\n      0x03\n      add\n      sload\n        /* \"contracts/memebank.sol\":3635:3667  user.stabledDeposited + interest */\n      tag_124\n      swap2\n      swap1\n      tag_125\n      jump\t// in\n    tag_124:\n        /* \"contracts/memebank.sol\":3610:3667  uint256 totalAvailable = user.stabledDeposited + interest */\n      swap1\n      pop\n        /* \"contracts/memebank.sol\":3705:3719  totalAvailable */\n      dup1\n        /* \"contracts/memebank.sol\":3694:3701  _amount */\n      dup5\n        /* \"contracts/memebank.sol\":3694:3719  _amount <= totalAvailable */\n      gt\n      iszero\n        /* \"contracts/memebank.sol\":3686:3744  require(_amount <= totalAvailable, \"Insufficient balance\") */\n      tag_126\n      jumpi\n      mload(0x40)\n      shl(0xe5, 0x461bcd)\n      dup2\n      mstore\n        /* \"#utility.yul\":3326:3328   */\n      0x20\n        /* \"contracts/memebank.sol\":3686:3744  require(_amount <= totalAvailable, \"Insufficient balance\") */\n      0x04\n      dup3\n      add\n        /* \"#utility.yul\":3308:3329   */\n      mstore\n        /* \"#utility.yul\":3365:3367   */\n      0x14\n        /* \"#utility.yul\":3345:3363   */\n      0x24\n      dup3\n      add\n        /* \"#utility.yul\":3338:3368   */\n      mstore\n      shl(0x60, 0x496e73756666696369656e742062616c616e6365)\n        /* \"#utility.yul\":3384:3402   */\n      0x44\n      dup3\n      add\n        /* \"#utility.yul\":3377:3427   */\n      mstore\n        /* \"#utility.yul\":3444:3462   */\n      0x64\n      add\n        /* \"contracts/memebank.sol\":3686:3744  require(_amount <= totalAvailable, \"Insufficient balance\") */\n      tag_121\n        /* \"#utility.yul\":3124:3468   */\n      jump\n        /* \"contracts/memebank.sol\":3686:3744  require(_amount <= totalAvailable, \"Insufficient balance\") */\n    tag_126:\n        /* \"contracts/memebank.sol\":3773:3783  stablecoin */\n      sload(0x01)\n        /* \"contracts/memebank.sol\":3773:3808  stablecoin.balanceOf(address(this)) */\n      mload(0x40)\n      shl(0xe0, 0x70a08231)\n      dup2\n      mstore\n        /* \"contracts/memebank.sol\":3802:3806  this */\n      address\n        /* \"contracts/memebank.sol\":3773:3808  stablecoin.balanceOf(address(this)) */\n      0x04\n      dup3\n      add\n        /* \"#utility.yul\":864:915   */\n      mstore\n      sub(shl(0xa0, 0x01), 0x01)\n        /* \"contracts/memebank.sol\":3773:3783  stablecoin */\n      swap1\n      swap2\n      and\n      swap1\n        /* \"contracts/memebank.sol\":3773:3793  stablecoin.balanceOf */\n      0x70a08231\n      swap1\n        /* \"#utility.yul\":837:855   */\n      0x24\n      add\n        /* \"contracts/memebank.sol\":3773:3808  stablecoin.balanceOf(address(this)) */\n      0x20\n      mload(0x40)\n      dup1\n      dup4\n      sub\n      dup2\n      dup7\n      gas\n      staticcall\n      iszero\n      dup1\n      iszero\n      tag_131\n      jumpi\n      returndatasize\n      0x00\n      dup1\n      returndatacopy\n      revert(0x00, returndatasize)\n    tag_131:\n      pop\n      pop\n      pop\n      pop\n      mload(0x40)\n      returndatasize\n      not(0x1f)\n      0x1f\n      dup3\n      add\n      and\n      dup3\n      add\n      dup1\n      0x40\n      mstore\n      pop\n      dup2\n      add\n      swap1\n      tag_132\n      swap2\n      swap1\n      tag_133\n      jump\t// in\n    tag_132:\n        /* \"contracts/memebank.sol\":3762:3769  _amount */\n      dup5\n        /* \"contracts/memebank.sol\":3762:3808  _amount <= stablecoin.balanceOf(address(this)) */\n      gt\n      iszero\n        /* \"contracts/memebank.sol\":3754:3844  require(_amount <= stablecoin.balanceOf(address(this)), \"Contract has insufficient funds\") */\n      tag_134\n      jumpi\n      mload(0x40)\n      shl(0xe5, 0x461bcd)\n      dup2\n      mstore\n        /* \"#utility.yul\":3864:3866   */\n      0x20\n        /* \"contracts/memebank.sol\":3754:3844  require(_amount <= stablecoin.balanceOf(address(this)), \"Contract has insufficient funds\") */\n      0x04\n      dup3\n      add\n        /* \"#utility.yul\":3846:3867   */\n      mstore\n        /* \"#utility.yul\":3903:3905   */\n      0x1f\n        /* \"#utility.yul\":3883:3901   */\n      0x24\n      dup3\n      add\n        /* \"#utility.yul\":3876:3906   */\n      mstore\n        /* \"#utility.yul\":3942:3975   */\n      0x436f6e74726163742068617320696e73756666696369656e742066756e647300\n        /* \"#utility.yul\":3922:3940   */\n      0x44\n      dup3\n      add\n        /* \"#utility.yul\":3915:3976   */\n      mstore\n        /* \"#utility.yul\":3993:4011   */\n      0x64\n      add\n        /* \"contracts/memebank.sol\":3754:3844  require(_amount <= stablecoin.balanceOf(address(this)), \"Contract has insufficient funds\") */\n      tag_121\n        /* \"#utility.yul\":3662:4017   */\n      jump\n        /* \"contracts/memebank.sol\":3754:3844  require(_amount <= stablecoin.balanceOf(address(this)), \"Contract has insufficient funds\") */\n    tag_134:\n        /* \"contracts/memebank.sol\":3910:3924  totalAvailable */\n      dup1\n        /* \"contracts/memebank.sol\":3899:3906  _amount */\n      dup5\n        /* \"contracts/memebank.sol\":3899:3924  _amount == totalAvailable */\n      sub\n        /* \"contracts/memebank.sol\":3895:4375  if (_amount == totalAvailable) {... */\n      tag_137\n      jumpi\n        /* \"contracts/memebank.sol\":3995:3996  0 */\n      0x00\n        /* \"contracts/memebank.sol\":3971:3992  user.stabledDeposited */\n      0x03\n      dup5\n      add\n        /* \"contracts/memebank.sol\":3971:3996  user.stabledDeposited = 0 */\n      dup2\n      swap1\n      sstore\n        /* \"contracts/memebank.sol\":4010:4031  user.depositTimestamp */\n      0x04\n      dup5\n      add\n        /* \"contracts/memebank.sol\":4010:4035  user.depositTimestamp = 0 */\n      dup2\n      swap1\n      sstore\n        /* \"contracts/memebank.sol\":4049:4068  totalStableDeposits */\n      0x08\n        /* \"contracts/memebank.sol\":4049:4093  totalStableDeposits -= user.stabledDeposited */\n      dup1\n      sload\n        /* \"contracts/memebank.sol\":3995:3996  0 */\n      dup3\n      swap1\n        /* \"contracts/memebank.sol\":4049:4093  totalStableDeposits -= user.stabledDeposited */\n      tag_138\n      swap1\n        /* \"contracts/memebank.sol\":3995:3996  0 */\n      dup3\n      swap1\n        /* \"contracts/memebank.sol\":4049:4093  totalStableDeposits -= user.stabledDeposited */\n      tag_139\n      jump\t// in\n    tag_138:\n      swap1\n      swap2\n      sstore\n      pop\n        /* \"contracts/memebank.sol\":3895:4375  if (_amount == totalAvailable) {... */\n      tag_140\n      swap1\n      pop\n      jump\n    tag_137:\n        /* \"contracts/memebank.sol\":4158:4184  uint256 principalWithdrawn */\n      0x00\n        /* \"contracts/memebank.sol\":4197:4201  user */\n      dup4\n        /* \"contracts/memebank.sol\":4197:4218  user.stabledDeposited */\n      0x03\n      add\n      sload\n        /* \"contracts/memebank.sol\":4187:4194  _amount */\n      dup6\n        /* \"contracts/memebank.sol\":4187:4218  _amount > user.stabledDeposited */\n      gt\n        /* \"contracts/memebank.sol\":4187:4252  _amount > user.stabledDeposited ? user.stabledDeposited : _amount */\n      tag_141\n      jumpi\n        /* \"contracts/memebank.sol\":4245:4252  _amount */\n      dup5\n        /* \"contracts/memebank.sol\":4187:4252  _amount > user.stabledDeposited ? user.stabledDeposited : _amount */\n      jump(tag_142)\n    tag_141:\n        /* \"contracts/memebank.sol\":4221:4225  user */\n      dup4\n        /* \"contracts/memebank.sol\":4221:4242  user.stabledDeposited */\n      0x03\n      add\n      sload\n        /* \"contracts/memebank.sol\":4187:4252  _amount > user.stabledDeposited ? user.stabledDeposited : _amount */\n    tag_142:\n        /* \"contracts/memebank.sol\":4158:4252  uint256 principalWithdrawn = _amount > user.stabledDeposited ? user.stabledDeposited : _amount */\n      swap1\n      pop\n        /* \"contracts/memebank.sol\":4291:4309  principalWithdrawn */\n      dup1\n        /* \"contracts/memebank.sol\":4266:4270  user */\n      dup5\n        /* \"contracts/memebank.sol\":4266:4287  user.stabledDeposited */\n      0x03\n      add\n      0x00\n        /* \"contracts/memebank.sol\":4266:4309  user.stabledDeposited -= principalWithdrawn */\n      dup3\n      dup3\n      sload\n      tag_143\n      swap2\n      swap1\n      tag_139\n      jump\t// in\n    tag_143:\n      swap3\n      pop\n      pop\n      dup2\n      swap1\n      sstore\n      pop\n        /* \"contracts/memebank.sol\":4346:4364  principalWithdrawn */\n      dup1\n        /* \"contracts/memebank.sol\":4323:4342  totalStableDeposits */\n      0x08\n      0x00\n        /* \"contracts/memebank.sol\":4323:4364  totalStableDeposits -= principalWithdrawn */\n      dup3\n      dup3\n      sload\n      tag_144\n      swap2\n      swap1\n      tag_139\n      jump\t// in\n    tag_144:\n      swap1\n      swap2\n      sstore\n      pop\n      pop\n      pop\n        /* \"contracts/memebank.sol\":3895:4375  if (_amount == totalAvailable) {... */\n    tag_140:\n        /* \"contracts/memebank.sol\":4427:4437  stablecoin */\n      sload(0x01)\n        /* \"contracts/memebank.sol\":4427:4467  stablecoin.transfer(msg.sender, _amount) */\n      mload(0x40)\n      shl(0xe0, 0xa9059cbb)\n      dup2\n      mstore\n        /* \"contracts/memebank.sol\":4447:4457  msg.sender */\n      caller\n        /* \"contracts/memebank.sol\":4427:4467  stablecoin.transfer(msg.sender, _amount) */\n      0x04\n      dup3\n      add\n        /* \"#utility.yul\":4329:4380   */\n      mstore\n        /* \"#utility.yul\":4396:4414   */\n      0x24\n      dup2\n      add\n        /* \"#utility.yul\":4389:4423   */\n      dup7\n      swap1\n      mstore\n      sub(shl(0xa0, 0x01), 0x01)\n        /* \"contracts/memebank.sol\":4427:4437  stablecoin */\n      swap1\n      swap2\n      and\n      swap1\n        /* \"contracts/memebank.sol\":4427:4446  stablecoin.transfer */\n      0xa9059cbb\n      swap1\n        /* \"#utility.yul\":4302:4320   */\n      0x44\n      add\n        /* \"contracts/memebank.sol\":4427:4467  stablecoin.transfer(msg.sender, _amount) */\n      0x20\n      mload(0x40)\n      dup1\n      dup4\n      sub\n      dup2\n      0x00\n      dup8\n      gas\n      call\n      iszero\n      dup1\n      iszero\n      tag_148\n      jumpi\n      returndatasize\n      0x00\n      dup1\n      returndatacopy\n      revert(0x00, returndatasize)\n    tag_148:\n      pop\n      pop\n      pop\n      pop\n      mload(0x40)\n      returndatasize\n      not(0x1f)\n      0x1f\n      dup3\n      add\n      and\n      dup3\n      add\n      dup1\n      0x40\n      mstore\n      pop\n      dup2\n      add\n      swap1\n      tag_149\n      swap2\n      swap1\n      tag_150\n      jump\t// in\n    tag_149:\n        /* \"contracts/memebank.sol\":4419:4487  require(stablecoin.transfer(msg.sender, _amount), \"Transfer failed\") */\n      tag_151\n      jumpi\n      mload(0x40)\n      shl(0xe5, 0x461bcd)\n      dup2\n      mstore\n      0x04\n      add\n      tag_121\n      swap1\n      tag_153\n      jump\t// in\n    tag_151:\n        /* \"contracts/memebank.sol\":4503:4549  StableWithdrawn(msg.sender, _amount, interest) */\n      0x40\n      dup1\n      mload\n        /* \"#utility.yul\":5234:5259   */\n      dup6\n      dup2\n      mstore\n        /* \"#utility.yul\":5290:5292   */\n      0x20\n        /* \"#utility.yul\":5275:5293   */\n      dup2\n      add\n        /* \"#utility.yul\":5268:5302   */\n      dup5\n      swap1\n      mstore\n        /* \"contracts/memebank.sol\":4519:4529  msg.sender */\n      caller\n      swap2\n        /* \"contracts/memebank.sol\":4503:4549  StableWithdrawn(msg.sender, _amount, interest) */\n      0xacfca0845eda0bcbd22737cb8526cda0fb6e3deeac93ede1ecb1fabec14843fc\n      swap2\n        /* \"#utility.yul\":5207:5225   */\n      add\n        /* \"contracts/memebank.sol\":4503:4549  StableWithdrawn(msg.sender, _amount, interest) */\n      mload(0x40)\n      dup1\n      swap2\n      sub\n      swap1\n      log2\n        /* \"contracts/memebank.sol\":3410:4556  {... */\n      pop\n      pop\n      pop\n        /* \"contracts/memebank.sol\":3360:4556  function withdrawStable(uint256 _amount) external {... */\n      pop\n      jump\t// out\n        /* \"contracts/memebank.sol\":2120:2760  function depositStable(uint256 _amount) external {... */\n    tag_40:\n        /* \"contracts/memebank.sol\":2197:2198  0 */\n      0x00\n        /* \"contracts/memebank.sol\":2187:2194  _amount */\n      dup2\n        /* \"contracts/memebank.sol\":2187:2198  _amount > 0 */\n      gt\n        /* \"contracts/memebank.sol\":2179:2232  require(_amount > 0, \"Amount must be greater than 0\") */\n      tag_157\n      jumpi\n      mload(0x40)\n      shl(0xe5, 0x461bcd)\n      dup2\n      mstore\n      0x04\n      add\n      tag_121\n      swap1\n      tag_159\n      jump\t// in\n    tag_157:\n        /* \"contracts/memebank.sol\":2313:2323  stablecoin */\n      sload(0x01)\n        /* \"contracts/memebank.sol\":2313:2372  stablecoin.transferFrom(msg.sender, address(this), _amount) */\n      mload(0x40)\n      shl(0xe0, 0x23b872dd)\n      dup2\n      mstore\n        /* \"contracts/memebank.sol\":2337:2347  msg.sender */\n      caller\n        /* \"contracts/memebank.sol\":2313:2372  stablecoin.transferFrom(msg.sender, address(this), _amount) */\n      0x04\n      dup3\n      add\n        /* \"#utility.yul\":5873:5924   */\n      mstore\n        /* \"contracts/memebank.sol\":2357:2361  this */\n      address\n        /* \"#utility.yul\":5940:5958   */\n      0x24\n      dup3\n      add\n        /* \"#utility.yul\":5933:5993   */\n      mstore\n        /* \"#utility.yul\":6009:6027   */\n      0x44\n      dup2\n      add\n        /* \"#utility.yul\":6002:6036   */\n      dup4\n      swap1\n      mstore\n      sub(shl(0xa0, 0x01), 0x01)\n        /* \"contracts/memebank.sol\":2313:2323  stablecoin */\n      swap1\n      swap2\n      and\n      swap1\n        /* \"contracts/memebank.sol\":2313:2336  stablecoin.transferFrom */\n      0x23b872dd\n      swap1\n        /* \"#utility.yul\":5846:5864   */\n      0x64\n      add\n        /* \"contracts/memebank.sol\":2313:2372  stablecoin.transferFrom(msg.sender, address(this), _amount) */\n      0x20\n      mload(0x40)\n      dup1\n      dup4\n      sub\n      dup2\n      0x00\n      dup8\n      gas\n      call\n      iszero\n      dup1\n      iszero\n      tag_163\n      jumpi\n      returndatasize\n      0x00\n      dup1\n      returndatacopy\n      revert(0x00, returndatasize)\n    tag_163:\n      pop\n      pop\n      pop\n      pop\n      mload(0x40)\n      returndatasize\n      not(0x1f)\n      0x1f\n      dup3\n      add\n      and\n      dup3\n      add\n      dup1\n      0x40\n      mstore\n      pop\n      dup2\n      add\n      swap1\n      tag_164\n      swap2\n      swap1\n      tag_150\n      jump\t// in\n    tag_164:\n        /* \"contracts/memebank.sol\":2305:2392  require(stablecoin.transferFrom(msg.sender, address(this), _amount), \"Transfer failed\") */\n      tag_165\n      jumpi\n      mload(0x40)\n      shl(0xe5, 0x461bcd)\n      dup2\n      mstore\n      0x04\n      add\n      tag_121\n      swap1\n      tag_153\n      jump\t// in\n    tag_165:\n        /* \"contracts/memebank.sol\":2461:2471  msg.sender */\n      caller\n        /* \"contracts/memebank.sol\":2455:2472  users[msg.sender] */\n      0x00\n      swap1\n      dup2\n      mstore\n        /* \"contracts/memebank.sol\":2455:2460  users */\n      0x03\n        /* \"contracts/memebank.sol\":2455:2472  users[msg.sender] */\n      0x20\n      dup2\n      swap1\n      mstore\n      0x40\n      dup3\n      keccak256\n        /* \"contracts/memebank.sol\":2455:2489  users[msg.sender].stabledDeposited */\n      add\n      sload\n        /* \"contracts/memebank.sol\":2455:2494  users[msg.sender].stabledDeposited == 0 */\n      swap1\n      sub\n        /* \"contracts/memebank.sol\":2451:2573  if (users[msg.sender].stabledDeposited == 0) {... */\n      tag_167\n      jumpi\n        /* \"contracts/memebank.sol\":2516:2526  msg.sender */\n      caller\n        /* \"contracts/memebank.sol\":2510:2527  users[msg.sender] */\n      0x00\n      swap1\n      dup2\n      mstore\n        /* \"contracts/memebank.sol\":2510:2515  users */\n      0x03\n        /* \"contracts/memebank.sol\":2510:2527  users[msg.sender] */\n      0x20\n      mstore\n      0x40\n      swap1\n      keccak256\n        /* \"contracts/memebank.sol\":2547:2562  block.timestamp */\n      timestamp\n        /* \"contracts/memebank.sol\":2510:2544  users[msg.sender].depositTimestamp */\n      0x04\n      swap1\n      swap2\n      add\n        /* \"contracts/memebank.sol\":2510:2562  users[msg.sender].depositTimestamp = block.timestamp */\n      sstore\n        /* \"contracts/memebank.sol\":2451:2573  if (users[msg.sender].stabledDeposited == 0) {... */\n    tag_167:\n        /* \"contracts/memebank.sol\":2622:2632  msg.sender */\n      caller\n        /* \"contracts/memebank.sol\":2616:2633  users[msg.sender] */\n      0x00\n      swap1\n      dup2\n      mstore\n        /* \"contracts/memebank.sol\":2616:2621  users */\n      0x03\n        /* \"contracts/memebank.sol\":2616:2633  users[msg.sender] */\n      0x20\n      dup2\n      swap1\n      mstore\n      0x40\n      dup3\n      keccak256\n        /* \"contracts/memebank.sol\":2616:2650  users[msg.sender].stabledDeposited */\n      add\n        /* \"contracts/memebank.sol\":2616:2661  users[msg.sender].stabledDeposited += _amount */\n      dup1\n      sload\n        /* \"contracts/memebank.sol\":2654:2661  _amount */\n      dup4\n      swap3\n        /* \"contracts/memebank.sol\":2616:2633  users[msg.sender] */\n      swap1\n        /* \"contracts/memebank.sol\":2616:2661  users[msg.sender].stabledDeposited += _amount */\n      tag_168\n      swap1\n        /* \"contracts/memebank.sol\":2654:2661  _amount */\n      dup5\n      swap1\n        /* \"contracts/memebank.sol\":2616:2661  users[msg.sender].stabledDeposited += _amount */\n      tag_125\n      jump\t// in\n    tag_168:\n      swap3\n      pop\n      pop\n      dup2\n      swap1\n      sstore\n      pop\n        /* \"contracts/memebank.sol\":2694:2701  _amount */\n      dup1\n        /* \"contracts/memebank.sol\":2671:2690  totalStableDeposits */\n      0x08\n      0x00\n        /* \"contracts/memebank.sol\":2671:2701  totalStableDeposits += _amount */\n      dup3\n      dup3\n      sload\n      tag_169\n      swap2\n      swap1\n      tag_125\n      jump\t// in\n    tag_169:\n      swap1\n      swap2\n      sstore\n      pop\n      pop\n        /* \"contracts/memebank.sol\":2717:2753  StableDeposited(msg.sender, _amount) */\n      mload(0x40)\n        /* \"#utility.yul\":160:185   */\n      dup2\n      dup2\n      mstore\n        /* \"contracts/memebank.sol\":2733:2743  msg.sender */\n      caller\n      swap1\n        /* \"contracts/memebank.sol\":2717:2753  StableDeposited(msg.sender, _amount) */\n      0x72bcd92218a56686cd2892adc5b472dd4e131f58ba98e7a05a28b34ca44be5d3\n      swap1\n        /* \"#utility.yul\":148:150   */\n      0x20\n        /* \"#utility.yul\":133:151   */\n      add\n        /* \"contracts/memebank.sol\":2717:2753  StableDeposited(msg.sender, _amount) */\n      mload(0x40)\n      dup1\n      swap2\n      sub\n      swap1\n      log2\n        /* \"contracts/memebank.sol\":2120:2760  function depositStable(uint256 _amount) external {... */\n      pop\n      jump\t// out\n        /* \"contracts/memebank.sol\":6432:6735  function getPlatformStats() external view returns (... */\n    tag_42:\n        /* \"contracts/memebank.sol\":6492:6513  uint256 totalDeposits */\n      0x00\n        /* \"contracts/memebank.sol\":6523:6544  uint256 totalBorrowed */\n      dup1\n        /* \"contracts/memebank.sol\":6554:6580  uint256 availableLiquidity */\n      0x00\n        /* \"contracts/memebank.sol\":6618:6637  totalStableDeposits */\n      sload(0x08)\n        /* \"contracts/memebank.sol\":6651:6669  getTotalBorrowed() */\n      tag_172\n        /* \"contracts/memebank.sol\":7029:7039  msg.sender */\n      caller\n        /* \"contracts/memebank.sol\":6842:6863  uint256 totalBorrowed */\n      0x00\n        /* \"contracts/memebank.sol\":7023:7040  users[msg.sender] */\n      swap1\n      dup2\n      mstore\n        /* \"contracts/memebank.sol\":7023:7028  users */\n      0x03\n        /* \"contracts/memebank.sol\":7023:7040  users[msg.sender] */\n      0x20\n      mstore\n      0x40\n      swap1\n      keccak256\n        /* \"contracts/memebank.sol\":7023:7055  users[msg.sender].borrowedAmount */\n      0x01\n      add\n      sload\n      swap1\n        /* \"contracts/memebank.sol\":6793:7062  function getTotalBorrowed() public view returns (uint256 totalBorrowed) {... */\n      jump\n        /* \"contracts/memebank.sol\":6651:6669  getTotalBorrowed() */\n    tag_172:\n        /* \"contracts/memebank.sol\":6683:6693  stablecoin */\n      sload(0x01)\n        /* \"contracts/memebank.sol\":6683:6718  stablecoin.balanceOf(address(this)) */\n      mload(0x40)\n      shl(0xe0, 0x70a08231)\n      dup2\n      mstore\n        /* \"contracts/memebank.sol\":6712:6716  this */\n      address\n        /* \"contracts/memebank.sol\":6683:6718  stablecoin.balanceOf(address(this)) */\n      0x04\n      dup3\n      add\n        /* \"#utility.yul\":864:915   */\n      mstore\n      sub(shl(0xa0, 0x01), 0x01)\n        /* \"contracts/memebank.sol\":6683:6693  stablecoin */\n      swap1\n      swap2\n      and\n      swap1\n        /* \"contracts/memebank.sol\":6683:6703  stablecoin.balanceOf */\n      0x70a08231\n      swap1\n        /* \"#utility.yul\":837:855   */\n      0x24\n      add\n        /* \"contracts/memebank.sol\":6683:6718  stablecoin.balanceOf(address(this)) */\n      0x20\n      mload(0x40)\n      dup1\n      dup4\n      sub\n      dup2\n      dup7\n      gas\n      staticcall\n      iszero\n      dup1\n      iszero\n      tag_175\n      jumpi\n      returndatasize\n      0x00\n      dup1\n      returndatacopy\n      revert(0x00, returndatasize)\n    tag_175:\n      pop\n      pop\n      pop\n      pop\n      mload(0x40)\n      returndatasize\n      not(0x1f)\n      0x1f\n      dup3\n      add\n      and\n      dup3\n      add\n      dup1\n      0x40\n      mstore\n      pop\n      dup2\n      add\n      swap1\n      tag_176\n      swap2\n      swap1\n      tag_133\n      jump\t// in\n    tag_176:\n        /* \"contracts/memebank.sol\":6597:6728  return (... */\n      swap3\n      pop\n      swap3\n      pop\n      swap3\n      pop\n        /* \"contracts/memebank.sol\":6432:6735  function getPlatformStats() external view returns (... */\n      swap1\n      swap2\n      swap3\n      jump\t// out\n        /* \"contracts/memebank.sol\":5539:5703  function setLendingInterestRate(uint256 _rate) external onlyOwner {... */\n    tag_58:\n        /* \"contracts/memebank.sol\":1750:1755  owner */\n      and(sub(shl(0xa0, 0x01), 0x01), sload(0x09))\n        /* \"contracts/memebank.sol\":1736:1746  msg.sender */\n      caller\n        /* \"contracts/memebank.sol\":1736:1755  msg.sender == owner */\n      eq\n        /* \"contracts/memebank.sol\":1728:1793  require(msg.sender == owner, \"Only owner can call this function\") */\n      tag_178\n      jumpi\n      mload(0x40)\n      shl(0xe5, 0x461bcd)\n      dup2\n      mstore\n        /* \"#utility.yul\":6249:6251   */\n      0x20\n        /* \"contracts/memebank.sol\":1728:1793  require(msg.sender == owner, \"Only owner can call this function\") */\n      0x04\n      dup3\n      add\n        /* \"#utility.yul\":6231:6252   */\n      mstore\n        /* \"#utility.yul\":6288:6290   */\n      0x21\n        /* \"#utility.yul\":6268:6286   */\n      0x24\n      dup3\n      add\n        /* \"#utility.yul\":6261:6291   */\n      mstore\n        /* \"#utility.yul\":6327:6361   */\n      0x4f6e6c79206f776e65722063616e2063616c6c20746869732066756e6374696f\n        /* \"#utility.yul\":6307:6325   */\n      0x44\n      dup3\n      add\n        /* \"#utility.yul\":6300:6362   */\n      mstore\n      shl(0xf9, 0x37)\n        /* \"#utility.yul\":6378:6396   */\n      0x64\n      dup3\n      add\n        /* \"#utility.yul\":6371:6402   */\n      mstore\n        /* \"#utility.yul\":6419:6438   */\n      0x84\n      add\n        /* \"contracts/memebank.sol\":1728:1793  require(msg.sender == owner, \"Only owner can call this function\") */\n      tag_121\n        /* \"#utility.yul\":6047:6444   */\n      jump\n        /* \"contracts/memebank.sol\":1728:1793  require(msg.sender == owner, \"Only owner can call this function\") */\n    tag_178:\n        /* \"contracts/memebank.sol\":5632:5635  100 */\n      0x64\n        /* \"contracts/memebank.sol\":5623:5628  _rate */\n      dup2\n        /* \"contracts/memebank.sol\":5623:5635  _rate <= 100 */\n      gt\n      iszero\n        /* \"contracts/memebank.sol\":5615:5659  require(_rate <= 100, \"Rate must be <= 100\") */\n      tag_182\n      jumpi\n      mload(0x40)\n      shl(0xe5, 0x461bcd)\n      dup2\n      mstore\n        /* \"#utility.yul\":6651:6653   */\n      0x20\n        /* \"contracts/memebank.sol\":5615:5659  require(_rate <= 100, \"Rate must be <= 100\") */\n      0x04\n      dup3\n      add\n        /* \"#utility.yul\":6633:6654   */\n      mstore\n        /* \"#utility.yul\":6690:6692   */\n      0x13\n        /* \"#utility.yul\":6670:6688   */\n      0x24\n      dup3\n      add\n        /* \"#utility.yul\":6663:6693   */\n      mstore\n      shl(0x6c, 0x052617465206d757374206265203c3d2031303)\n        /* \"#utility.yul\":6709:6727   */\n      0x44\n      dup3\n      add\n        /* \"#utility.yul\":6702:6751   */\n      mstore\n        /* \"#utility.yul\":6768:6786   */\n      0x64\n      add\n        /* \"contracts/memebank.sol\":5615:5659  require(_rate <= 100, \"Rate must be <= 100\") */\n      tag_121\n        /* \"#utility.yul\":6449:6792   */\n      jump\n        /* \"contracts/memebank.sol\":5615:5659  require(_rate <= 100, \"Rate must be <= 100\") */\n    tag_182:\n        /* \"contracts/memebank.sol\":5669:5688  lendingInterestRate */\n      0x05\n        /* \"contracts/memebank.sol\":5669:5696  lendingInterestRate = _rate */\n      sstore\n        /* \"contracts/memebank.sol\":5539:5703  function setLendingInterestRate(uint256 _rate) external onlyOwner {... */\n      jump\t// out\n        /* \"contracts/memebank.sol\":4626:4824  function getTotalEarnings(address _user) external view returns (uint256) {... */\n    tag_65:\n      sub(shl(0xa0, 0x01), 0x01)\n        /* \"contracts/memebank.sol\":4733:4745  users[_user] */\n      dup2\n      and\n        /* \"contracts/memebank.sol\":4690:4697  uint256 */\n      0x00\n        /* \"contracts/memebank.sol\":4733:4745  users[_user] */\n      swap1\n      dup2\n      mstore\n        /* \"contracts/memebank.sol\":4733:4738  users */\n      0x03\n        /* \"contracts/memebank.sol\":4733:4745  users[_user] */\n      0x20\n      mstore\n      0x40\n      dup2\n      keccak256\n        /* \"contracts/memebank.sol\":4786:4817  calculateLendingInterest(_user) */\n      tag_186\n        /* \"contracts/memebank.sol\":4739:4744  _user */\n      dup4\n        /* \"contracts/memebank.sol\":4786:4810  calculateLendingInterest */\n      tag_84\n        /* \"contracts/memebank.sol\":4786:4817  calculateLendingInterest(_user) */\n      jump\t// in\n    tag_186:\n        /* \"contracts/memebank.sol\":4762:4766  user */\n      dup2\n        /* \"contracts/memebank.sol\":4762:4783  user.stabledDeposited */\n      0x03\n      add\n      sload\n        /* \"contracts/memebank.sol\":4762:4817  user.stabledDeposited + calculateLendingInterest(_user) */\n      tag_187\n      swap2\n      swap1\n      tag_125\n      jump\t// in\n    tag_187:\n        /* \"contracts/memebank.sol\":4755:4817  return user.stabledDeposited + calculateLendingInterest(_user) */\n      swap4\n        /* \"contracts/memebank.sol\":4626:4824  function getTotalEarnings(address _user) external view returns (uint256) {... */\n      swap3\n      pop\n      pop\n      pop\n      jump\t// out\n        /* \"contracts/memebank.sol\":8878:9146  function getCollateralValue(address _user) public view returns (uint256) {... */\n    tag_76:\n        /* \"contracts/memebank.sol\":8942:8949  uint256 */\n      0x00\n        /* \"contracts/memebank.sol\":8961:8982  uint256 memecoinPrice */\n      dup1\n        /* \"contracts/memebank.sol\":8985:8996  priceOracle */\n      0x02\n      0x00\n      swap1\n      sload\n      swap1\n      0x0100\n      exp\n      swap1\n      div\n      sub(shl(0xa0, 0x01), 0x01)\n      and\n      sub(shl(0xa0, 0x01), 0x01)\n        /* \"contracts/memebank.sol\":8985:9013  priceOracle.getMemecoinPrice */\n      and\n      0xb79c54a8\n        /* \"contracts/memebank.sol\":8985:9015  priceOracle.getMemecoinPrice() */\n      mload(0x40)\n      dup2\n      0xffffffff\n      and\n      0xe0\n      shl\n      dup2\n      mstore\n      0x04\n      add\n      0x20\n      mload(0x40)\n      dup1\n      dup4\n      sub\n      dup2\n      dup7\n      gas\n      staticcall\n      iszero\n      dup1\n      iszero\n      tag_190\n      jumpi\n      returndatasize\n      0x00\n      dup1\n      returndatacopy\n      revert(0x00, returndatasize)\n    tag_190:\n      pop\n      pop\n      pop\n      pop\n      mload(0x40)\n      returndatasize\n      not(0x1f)\n      0x1f\n      dup3\n      add\n      and\n      dup3\n      add\n      dup1\n      0x40\n      mstore\n      pop\n      dup2\n      add\n      swap1\n      tag_191\n      swap2\n      swap1\n      tag_133\n      jump\t// in\n    tag_191:\n      sub(shl(0xa0, 0x01), 0x01)\n        /* \"contracts/memebank.sol\":9052:9064  users[_user] */\n      dup5\n      and\n        /* \"contracts/memebank.sol\":9025:9049  uint256 collateralAmount */\n      0x00\n        /* \"contracts/memebank.sol\":9052:9064  users[_user] */\n      swap1\n      dup2\n      mstore\n        /* \"contracts/memebank.sol\":9052:9057  users */\n      0x03\n        /* \"contracts/memebank.sol\":9052:9064  users[_user] */\n      0x20\n      mstore\n      0x40\n      swap1\n      keccak256\n        /* \"contracts/memebank.sol\":9052:9081  users[_user].collateralAmount */\n      sload\n        /* \"contracts/memebank.sol\":8961:9015  uint256 memecoinPrice = priceOracle.getMemecoinPrice() */\n      swap1\n      swap2\n      pop\n        /* \"contracts/memebank.sol\":9135:9139  1e18 */\n      0x0de0b6b3a7640000\n        /* \"contracts/memebank.sol\":9099:9131  collateralAmount * memecoinPrice */\n      tag_192\n        /* \"contracts/memebank.sol\":8961:9015  uint256 memecoinPrice = priceOracle.getMemecoinPrice() */\n      dup4\n        /* \"contracts/memebank.sol\":9052:9081  users[_user].collateralAmount */\n      dup4\n        /* \"contracts/memebank.sol\":9099:9131  collateralAmount * memecoinPrice */\n      tag_193\n      jump\t// in\n    tag_192:\n        /* \"contracts/memebank.sol\":9098:9139  (collateralAmount * memecoinPrice) / 1e18 */\n      tag_194\n      swap2\n      swap1\n      tag_195\n      jump\t// in\n    tag_194:\n        /* \"contracts/memebank.sol\":9091:9139  return (collateralAmount * memecoinPrice) / 1e18 */\n      swap5\n        /* \"contracts/memebank.sol\":8878:9146  function getCollateralValue(address _user) public view returns (uint256) {... */\n      swap4\n      pop\n      pop\n      pop\n      pop\n      jump\t// out\n        /* \"contracts/memebank.sol\":5776:6379  function calculateRepaymentAmount(address _user) public view returns (... */\n    tag_80:\n      sub(shl(0xa0, 0x01), 0x01)\n        /* \"contracts/memebank.sol\":5957:5969  users[_user] */\n      dup2\n      and\n        /* \"contracts/memebank.sol\":5851:5873  uint256 totalRepayment */\n      0x00\n        /* \"contracts/memebank.sol\":5957:5969  users[_user] */\n      swap1\n      dup2\n      mstore\n        /* \"contracts/memebank.sol\":5957:5962  users */\n      0x03\n        /* \"contracts/memebank.sol\":5957:5969  users[_user] */\n      0x20\n      mstore\n      0x40\n      dup2\n      keccak256\n        /* \"contracts/memebank.sol\":5983:6002  user.borrowedAmount */\n      0x01\n      dup2\n      add\n      sload\n        /* \"contracts/memebank.sol\":5851:5873  uint256 totalRepayment */\n      dup3\n      swap2\n      dup3\n      swap2\n        /* \"contracts/memebank.sol\":5975:6025  require(user.borrowedAmount > 0, \"No active loan\") */\n      tag_197\n      jumpi\n      mload(0x40)\n      shl(0xe5, 0x461bcd)\n      dup2\n      mstore\n        /* \"#utility.yul\":7394:7396   */\n      0x20\n        /* \"contracts/memebank.sol\":5975:6025  require(user.borrowedAmount > 0, \"No active loan\") */\n      0x04\n      dup3\n      add\n        /* \"#utility.yul\":7376:7397   */\n      mstore\n        /* \"#utility.yul\":7433:7435   */\n      0x0e\n        /* \"#utility.yul\":7413:7431   */\n      0x24\n      dup3\n      add\n        /* \"#utility.yul\":7406:7436   */\n      mstore\n      shl(0x91, 0x27379030b1ba34bb32903637b0b7)\n        /* \"#utility.yul\":7452:7470   */\n      0x44\n      dup3\n      add\n        /* \"#utility.yul\":7445:7489   */\n      mstore\n        /* \"#utility.yul\":7506:7524   */\n      0x64\n      add\n        /* \"contracts/memebank.sol\":5975:6025  require(user.borrowedAmount > 0, \"No active loan\") */\n      tag_121\n        /* \"#utility.yul\":7192:7530   */\n      jump\n        /* \"contracts/memebank.sol\":5975:6025  require(user.borrowedAmount > 0, \"No active loan\") */\n    tag_197:\n        /* \"contracts/memebank.sol\":6100:6104  user */\n      dup1\n        /* \"contracts/memebank.sol\":6100:6119  user.borrowedAmount */\n      0x01\n      add\n      sload\n        /* \"contracts/memebank.sol\":6088:6119  principal = user.borrowedAmount */\n      swap3\n      pop\n        /* \"contracts/memebank.sol\":6194:6218  calculateInterest(_user) */\n      tag_200\n        /* \"contracts/memebank.sol\":6212:6217  _user */\n      dup6\n        /* \"contracts/memebank.sol\":6194:6211  calculateInterest */\n      tag_108\n        /* \"contracts/memebank.sol\":6194:6218  calculateInterest(_user) */\n      jump\t// in\n    tag_200:\n        /* \"contracts/memebank.sol\":6177:6218  totalRepayment = calculateInterest(_user) */\n      swap4\n      pop\n        /* \"contracts/memebank.sol\":6289:6315  totalRepayment - principal */\n      tag_201\n        /* \"contracts/memebank.sol\":6306:6315  principal */\n      dup4\n        /* \"contracts/memebank.sol\":6177:6218  totalRepayment = calculateInterest(_user) */\n      dup6\n        /* \"contracts/memebank.sol\":6289:6315  totalRepayment - principal */\n      tag_139\n      jump\t// in\n    tag_201:\n        /* \"contracts/memebank.sol\":5776:6379  function calculateRepaymentAmount(address _user) public view returns (... */\n      swap4\n      swap6\n      swap3\n      swap5\n      pop\n      pop\n      pop\n      jump\t// out\n        /* \"contracts/memebank.sol\":2821:3288  function calculateLendingInterest(address _user) public view returns (uint256) {... */\n    tag_84:\n      sub(shl(0xa0, 0x01), 0x01)\n        /* \"contracts/memebank.sol\":2934:2946  users[_user] */\n      dup2\n      and\n        /* \"contracts/memebank.sol\":2891:2898  uint256 */\n      0x00\n        /* \"contracts/memebank.sol\":2934:2946  users[_user] */\n      swap1\n      dup2\n      mstore\n        /* \"contracts/memebank.sol\":2934:2939  users */\n      0x03\n        /* \"contracts/memebank.sol\":2934:2946  users[_user] */\n      0x20\n      dup2\n      swap1\n      mstore\n      0x40\n      dup3\n      keccak256\n        /* \"contracts/memebank.sol\":2960:2981  user.stabledDeposited */\n      swap1\n      dup2\n      add\n      sload\n        /* \"contracts/memebank.sol\":2960:2986  user.stabledDeposited == 0 */\n      dup3\n      sub\n        /* \"contracts/memebank.sol\":2956:2996  if (user.stabledDeposited == 0) return 0 */\n      tag_203\n      jumpi\n      pop\n        /* \"contracts/memebank.sol\":2995:2996  0 */\n      0x00\n      swap3\n        /* \"contracts/memebank.sol\":2821:3288  function calculateLendingInterest(address _user) public view returns (uint256) {... */\n      swap2\n      pop\n      pop\n      jump\t// out\n        /* \"contracts/memebank.sol\":2956:2996  if (user.stabledDeposited == 0) return 0 */\n    tag_203:\n        /* \"contracts/memebank.sol\":3007:3026  uint256 timeElapsed */\n      0x00\n        /* \"contracts/memebank.sol\":3047:3051  user */\n      dup2\n        /* \"contracts/memebank.sol\":3047:3068  user.depositTimestamp */\n      0x04\n      add\n      sload\n        /* \"contracts/memebank.sol\":3029:3044  block.timestamp */\n      timestamp\n        /* \"contracts/memebank.sol\":3029:3068  block.timestamp - user.depositTimestamp */\n      tag_204\n      swap2\n      swap1\n      tag_139\n      jump\t// in\n    tag_204:\n        /* \"contracts/memebank.sol\":3007:3068  uint256 timeElapsed = block.timestamp - user.depositTimestamp */\n      swap1\n      pop\n        /* \"contracts/memebank.sol\":3150:3166  uint256 interest */\n      0x00\n        /* \"contracts/memebank.sol\":3232:3246  365 days * 100 */\n      0xbbf81e00\n        /* \"contracts/memebank.sol\":3216:3227  timeElapsed */\n      dup3\n        /* \"contracts/memebank.sol\":3194:3213  lendingInterestRate */\n      sload(0x05)\n        /* \"contracts/memebank.sol\":3170:3174  user */\n      dup6\n        /* \"contracts/memebank.sol\":3170:3191  user.stabledDeposited */\n      0x03\n      add\n      sload\n        /* \"contracts/memebank.sol\":3170:3213  user.stabledDeposited * lendingInterestRate */\n      tag_205\n      swap2\n      swap1\n      tag_193\n      jump\t// in\n    tag_205:\n        /* \"contracts/memebank.sol\":3170:3227  user.stabledDeposited * lendingInterestRate * timeElapsed */\n      tag_206\n      swap2\n      swap1\n      tag_193\n      jump\t// in\n    tag_206:\n        /* \"contracts/memebank.sol\":3169:3247  (user.stabledDeposited * lendingInterestRate * timeElapsed) / (365 days * 100) */\n      tag_207\n      swap2\n      swap1\n      tag_195\n      jump\t// in\n    tag_207:\n        /* \"contracts/memebank.sol\":3150:3247  uint256 interest = (user.stabledDeposited * lendingInterestRate * timeElapsed) / (365 days * 100) */\n      swap6\n        /* \"contracts/memebank.sol\":2821:3288  function calculateLendingInterest(address _user) public view returns (uint256) {... */\n      swap5\n      pop\n      pop\n      pop\n      pop\n      pop\n      jump\t// out\n        /* \"contracts/memebank.sol\":7832:8317  function repayLoan(uint256 _amount) public {... */\n    tag_93:\n        /* \"contracts/memebank.sol\":7885:7902  uint256 totalOwed */\n      0x00\n        /* \"contracts/memebank.sol\":7905:7934  calculateInterest(msg.sender) */\n      tag_209\n        /* \"contracts/memebank.sol\":7923:7933  msg.sender */\n      caller\n        /* \"contracts/memebank.sol\":7905:7922  calculateInterest */\n      tag_108\n        /* \"contracts/memebank.sol\":7905:7934  calculateInterest(msg.sender) */\n      jump\t// in\n    tag_209:\n        /* \"contracts/memebank.sol\":7885:7934  uint256 totalOwed = calculateInterest(msg.sender) */\n      swap1\n      pop\n        /* \"contracts/memebank.sol\":7963:7972  totalOwed */\n      dup1\n        /* \"contracts/memebank.sol\":7952:7959  _amount */\n      dup3\n        /* \"contracts/memebank.sol\":7952:7972  _amount <= totalOwed */\n      gt\n      iszero\n        /* \"contracts/memebank.sol\":7944:8008  require(_amount <= totalOwed, \"Repay amount exceeds total owed\") */\n      tag_210\n      jumpi\n      mload(0x40)\n      shl(0xe5, 0x461bcd)\n      dup2\n      mstore\n        /* \"#utility.yul\":7737:7739   */\n      0x20\n        /* \"contracts/memebank.sol\":7944:8008  require(_amount <= totalOwed, \"Repay amount exceeds total owed\") */\n      0x04\n      dup3\n      add\n        /* \"#utility.yul\":7719:7740   */\n      mstore\n        /* \"#utility.yul\":7776:7778   */\n      0x1f\n        /* \"#utility.yul\":7756:7774   */\n      0x24\n      dup3\n      add\n        /* \"#utility.yul\":7749:7779   */\n      mstore\n        /* \"#utility.yul\":7815:7848   */\n      0x526570617920616d6f756e74206578636565647320746f74616c206f77656400\n        /* \"#utility.yul\":7795:7813   */\n      0x44\n      dup3\n      add\n        /* \"#utility.yul\":7788:7849   */\n      mstore\n        /* \"#utility.yul\":7866:7884   */\n      0x64\n      add\n        /* \"contracts/memebank.sol\":7944:8008  require(_amount <= totalOwed, \"Repay amount exceeds total owed\") */\n      tag_121\n        /* \"#utility.yul\":7535:7890   */\n      jump\n        /* \"contracts/memebank.sol\":7944:8008  require(_amount <= totalOwed, \"Repay amount exceeds total owed\") */\n    tag_210:\n        /* \"contracts/memebank.sol\":8036:8037  0 */\n      0x00\n        /* \"contracts/memebank.sol\":8026:8033  _amount */\n      dup3\n        /* \"contracts/memebank.sol\":8026:8037  _amount > 0 */\n      gt\n        /* \"contracts/memebank.sol\":8018:8071  require(_amount > 0, \"Amount must be greater than 0\") */\n      tag_213\n      jumpi\n      mload(0x40)\n      shl(0xe5, 0x461bcd)\n      dup2\n      mstore\n      0x04\n      add\n      tag_121\n      swap1\n      tag_159\n      jump\t// in\n    tag_213:\n        /* \"contracts/memebank.sol\":8144:8154  stablecoin */\n      sload(0x01)\n        /* \"contracts/memebank.sol\":8144:8203  stablecoin.transferFrom(msg.sender, address(this), _amount) */\n      mload(0x40)\n      shl(0xe0, 0x23b872dd)\n      dup2\n      mstore\n        /* \"contracts/memebank.sol\":8168:8178  msg.sender */\n      caller\n        /* \"contracts/memebank.sol\":8144:8203  stablecoin.transferFrom(msg.sender, address(this), _amount) */\n      0x04\n      dup3\n      add\n        /* \"#utility.yul\":5873:5924   */\n      mstore\n        /* \"contracts/memebank.sol\":8188:8192  this */\n      address\n        /* \"#utility.yul\":5940:5958   */\n      0x24\n      dup3\n      add\n        /* \"#utility.yul\":5933:5993   */\n      mstore\n        /* \"#utility.yul\":6009:6027   */\n      0x44\n      dup2\n      add\n        /* \"#utility.yul\":6002:6036   */\n      dup5\n      swap1\n      mstore\n      sub(shl(0xa0, 0x01), 0x01)\n        /* \"contracts/memebank.sol\":8144:8154  stablecoin */\n      swap1\n      swap2\n      and\n      swap1\n        /* \"contracts/memebank.sol\":8144:8167  stablecoin.transferFrom */\n      0x23b872dd\n      swap1\n        /* \"#utility.yul\":5846:5864   */\n      0x64\n      add\n        /* \"contracts/memebank.sol\":8144:8203  stablecoin.transferFrom(msg.sender, address(this), _amount) */\n      0x20\n      mload(0x40)\n      dup1\n      dup4\n      sub\n      dup2\n      0x00\n      dup8\n      gas\n      call\n      iszero\n      dup1\n      iszero\n      tag_217\n      jumpi\n      returndatasize\n      0x00\n      dup1\n      returndatacopy\n      revert(0x00, returndatasize)\n    tag_217:\n      pop\n      pop\n      pop\n      pop\n      mload(0x40)\n      returndatasize\n      not(0x1f)\n      0x1f\n      dup3\n      add\n      and\n      dup3\n      add\n      dup1\n      0x40\n      mstore\n      pop\n      dup2\n      add\n      swap1\n      tag_218\n      swap2\n      swap1\n      tag_150\n      jump\t// in\n    tag_218:\n      pop\n        /* \"contracts/memebank.sol\":8291:8310  totalOwed - _amount */\n      tag_219\n        /* \"contracts/memebank.sol\":8303:8310  _amount */\n      dup3\n        /* \"contracts/memebank.sol\":8291:8300  totalOwed */\n      dup3\n        /* \"contracts/memebank.sol\":8291:8310  totalOwed - _amount */\n      tag_139\n      jump\t// in\n    tag_219:\n        /* \"contracts/memebank.sol\":8262:8272  msg.sender */\n      caller\n        /* \"contracts/memebank.sol\":8256:8273  users[msg.sender] */\n      0x00\n      swap1\n      dup2\n      mstore\n        /* \"contracts/memebank.sol\":8256:8261  users */\n      0x03\n        /* \"contracts/memebank.sol\":8256:8273  users[msg.sender] */\n      0x20\n      mstore\n      0x40\n      swap1\n      keccak256\n        /* \"contracts/memebank.sol\":8256:8288  users[msg.sender].borrowedAmount */\n      0x01\n      add\n        /* \"contracts/memebank.sol\":8256:8310  users[msg.sender].borrowedAmount = totalOwed - _amount */\n      sstore\n      pop\n      pop\n        /* \"contracts/memebank.sol\":7832:8317  function repayLoan(uint256 _amount) public {... */\n      jump\t// out\n        /* \"contracts/memebank.sol\":7119:7362  function depositCollateral(uint256 _amount) public {... */\n    tag_96:\n        /* \"contracts/memebank.sol\":7198:7199  0 */\n      0x00\n        /* \"contracts/memebank.sol\":7188:7195  _amount */\n      dup2\n        /* \"contracts/memebank.sol\":7188:7199  _amount > 0 */\n      gt\n        /* \"contracts/memebank.sol\":7180:7233  require(_amount > 0, \"Amount must be greater than 0\") */\n      tag_221\n      jumpi\n      mload(0x40)\n      shl(0xe5, 0x461bcd)\n      dup2\n      mstore\n      0x04\n      add\n      tag_121\n      swap1\n      tag_159\n      jump\t// in\n    tag_221:\n        /* \"contracts/memebank.sol\":7243:7251  memecoin */\n      sload(0x00)\n        /* \"contracts/memebank.sol\":7243:7300  memecoin.transferFrom(msg.sender, address(this), _amount) */\n      mload(0x40)\n      shl(0xe0, 0x23b872dd)\n      dup2\n      mstore\n        /* \"contracts/memebank.sol\":7265:7275  msg.sender */\n      caller\n        /* \"contracts/memebank.sol\":7243:7300  memecoin.transferFrom(msg.sender, address(this), _amount) */\n      0x04\n      dup3\n      add\n        /* \"#utility.yul\":5873:5924   */\n      mstore\n        /* \"contracts/memebank.sol\":7285:7289  this */\n      address\n        /* \"#utility.yul\":5940:5958   */\n      0x24\n      dup3\n      add\n        /* \"#utility.yul\":5933:5993   */\n      mstore\n        /* \"#utility.yul\":6009:6027   */\n      0x44\n      dup2\n      add\n        /* \"#utility.yul\":6002:6036   */\n      dup4\n      swap1\n      mstore\n      sub(shl(0xa0, 0x01), 0x01)\n        /* \"contracts/memebank.sol\":7243:7251  memecoin */\n      swap1\n      swap2\n      and\n      swap1\n        /* \"contracts/memebank.sol\":7243:7264  memecoin.transferFrom */\n      0x23b872dd\n      swap1\n        /* \"#utility.yul\":5846:5864   */\n      0x64\n      add\n        /* \"contracts/memebank.sol\":7243:7300  memecoin.transferFrom(msg.sender, address(this), _amount) */\n      0x20\n      mload(0x40)\n      dup1\n      dup4\n      sub\n      dup2\n      0x00\n      dup8\n      gas\n      call\n      iszero\n      dup1\n      iszero\n      tag_225\n      jumpi\n      returndatasize\n      0x00\n      dup1\n      returndatacopy\n      revert(0x00, returndatasize)\n    tag_225:\n      pop\n      pop\n      pop\n      pop\n      mload(0x40)\n      returndatasize\n      not(0x1f)\n      0x1f\n      dup3\n      add\n      and\n      dup3\n      add\n      dup1\n      0x40\n      mstore\n      pop\n      dup2\n      add\n      swap1\n      tag_226\n      swap2\n      swap1\n      tag_150\n      jump\t// in\n    tag_226:\n      pop\n        /* \"contracts/memebank.sol\":7316:7326  msg.sender */\n      caller\n        /* \"contracts/memebank.sol\":7310:7327  users[msg.sender] */\n      0x00\n      swap1\n      dup2\n      mstore\n        /* \"contracts/memebank.sol\":7310:7315  users */\n      0x03\n        /* \"contracts/memebank.sol\":7310:7327  users[msg.sender] */\n      0x20\n      mstore\n      0x40\n      dup2\n      keccak256\n        /* \"contracts/memebank.sol\":7310:7355  users[msg.sender].collateralAmount += _amount */\n      dup1\n      sload\n        /* \"contracts/memebank.sol\":7348:7355  _amount */\n      dup4\n      swap3\n        /* \"contracts/memebank.sol\":7310:7327  users[msg.sender] */\n      swap1\n        /* \"contracts/memebank.sol\":7310:7355  users[msg.sender].collateralAmount += _amount */\n      tag_227\n      swap1\n        /* \"contracts/memebank.sol\":7348:7355  _amount */\n      dup5\n      swap1\n        /* \"contracts/memebank.sol\":7310:7355  users[msg.sender].collateralAmount += _amount */\n      tag_125\n      jump\t// in\n    tag_227:\n      swap1\n      swap2\n      sstore\n      pop\n      pop\n      pop\n        /* \"contracts/memebank.sol\":7119:7362  function depositCollateral(uint256 _amount) public {... */\n      jump\t// out\n        /* \"contracts/memebank.sol\":4902:5479  function borrowStablecoins(uint256 _amount) public {... */\n    tag_99:\n        /* \"contracts/memebank.sol\":4971:4981  stablecoin */\n      sload(0x01)\n        /* \"contracts/memebank.sol\":4971:5006  stablecoin.balanceOf(address(this)) */\n      mload(0x40)\n      shl(0xe0, 0x70a08231)\n      dup2\n      mstore\n        /* \"contracts/memebank.sol\":5000:5004  this */\n      address\n        /* \"contracts/memebank.sol\":4971:5006  stablecoin.balanceOf(address(this)) */\n      0x04\n      dup3\n      add\n        /* \"#utility.yul\":864:915   */\n      mstore\n        /* \"contracts/memebank.sol\":5010:5017  _amount */\n      dup3\n      swap2\n      sub(shl(0xa0, 0x01), 0x01)\n        /* \"contracts/memebank.sol\":4971:4981  stablecoin */\n      and\n      swap1\n        /* \"contracts/memebank.sol\":4971:4991  stablecoin.balanceOf */\n      0x70a08231\n      swap1\n        /* \"#utility.yul\":837:855   */\n      0x24\n      add\n        /* \"contracts/memebank.sol\":4971:5006  stablecoin.balanceOf(address(this)) */\n      0x20\n      mload(0x40)\n      dup1\n      dup4\n      sub\n      dup2\n      dup7\n      gas\n      staticcall\n      iszero\n      dup1\n      iszero\n      tag_231\n      jumpi\n      returndatasize\n      0x00\n      dup1\n      returndatacopy\n      revert(0x00, returndatasize)\n    tag_231:\n      pop\n      pop\n      pop\n      pop\n      mload(0x40)\n      returndatasize\n      not(0x1f)\n      0x1f\n      dup3\n      add\n      and\n      dup3\n      add\n      dup1\n      0x40\n      mstore\n      pop\n      dup2\n      add\n      swap1\n      tag_232\n      swap2\n      swap1\n      tag_133\n      jump\t// in\n    tag_232:\n        /* \"contracts/memebank.sol\":4971:5017  stablecoin.balanceOf(address(this)) >= _amount */\n      lt\n      iszero\n        /* \"contracts/memebank.sol\":4963:5052  require(stablecoin.balanceOf(address(this)) >= _amount, \"Insufficient lending liquidity\") */\n      tag_233\n      jumpi\n      mload(0x40)\n      shl(0xe5, 0x461bcd)\n      dup2\n      mstore\n        /* \"#utility.yul\":8097:8099   */\n      0x20\n        /* \"contracts/memebank.sol\":4963:5052  require(stablecoin.balanceOf(address(this)) >= _amount, \"Insufficient lending liquidity\") */\n      0x04\n      dup3\n      add\n        /* \"#utility.yul\":8079:8100   */\n      mstore\n        /* \"#utility.yul\":8136:8138   */\n      0x1e\n        /* \"#utility.yul\":8116:8134   */\n      0x24\n      dup3\n      add\n        /* \"#utility.yul\":8109:8139   */\n      mstore\n        /* \"#utility.yul\":8175:8207   */\n      0x496e73756666696369656e74206c656e64696e67206c69717569646974790000\n        /* \"#utility.yul\":8155:8173   */\n      0x44\n      dup3\n      add\n        /* \"#utility.yul\":8148:8208   */\n      mstore\n        /* \"#utility.yul\":8225:8243   */\n      0x64\n      add\n        /* \"contracts/memebank.sol\":4963:5052  require(stablecoin.balanceOf(address(this)) >= _amount, \"Insufficient lending liquidity\") */\n      tag_121\n        /* \"#utility.yul\":7895:8249   */\n      jump\n        /* \"contracts/memebank.sol\":4963:5052  require(stablecoin.balanceOf(address(this)) >= _amount, \"Insufficient lending liquidity\") */\n    tag_233:\n        /* \"contracts/memebank.sol\":5071:5094  uint256 collateralValue */\n      0x00\n        /* \"contracts/memebank.sol\":5097:5127  getCollateralValue(msg.sender) */\n      tag_236\n        /* \"contracts/memebank.sol\":5116:5126  msg.sender */\n      caller\n        /* \"contracts/memebank.sol\":5097:5115  getCollateralValue */\n      tag_76\n        /* \"contracts/memebank.sol\":5097:5127  getCollateralValue(msg.sender) */\n      jump\t// in\n    tag_236:\n        /* \"contracts/memebank.sol\":5071:5127  uint256 collateralValue = getCollateralValue(msg.sender) */\n      swap1\n      pop\n        /* \"contracts/memebank.sol\":5137:5160  uint256 maxBorrowAmount */\n      0x00\n        /* \"contracts/memebank.sol\":5188:5191  100 */\n      0x64\n        /* \"contracts/memebank.sol\":5164:5184  collateralValue * 60 */\n      tag_237\n        /* \"contracts/memebank.sol\":5071:5127  uint256 collateralValue = getCollateralValue(msg.sender) */\n      dup4\n        /* \"contracts/memebank.sol\":5182:5184  60 */\n      0x3c\n        /* \"contracts/memebank.sol\":5164:5184  collateralValue * 60 */\n      tag_193\n      jump\t// in\n    tag_237:\n        /* \"contracts/memebank.sol\":5163:5191  (collateralValue * 60) / 100 */\n      tag_238\n      swap2\n      swap1\n      tag_195\n      jump\t// in\n    tag_238:\n        /* \"contracts/memebank.sol\":5137:5191  uint256 maxBorrowAmount = (collateralValue * 60) / 100 */\n      swap1\n      pop\n        /* \"contracts/memebank.sol\":5220:5235  maxBorrowAmount */\n      dup1\n        /* \"contracts/memebank.sol\":5209:5216  _amount */\n      dup4\n        /* \"contracts/memebank.sol\":5209:5235  _amount <= maxBorrowAmount */\n      gt\n      iszero\n        /* \"contracts/memebank.sol\":5201:5278  require(_amount <= maxBorrowAmount, \"Borrow amount exceeds collateral limit\") */\n      tag_239\n      jumpi\n      mload(0x40)\n      shl(0xe5, 0x461bcd)\n      dup2\n      mstore\n        /* \"#utility.yul\":8456:8458   */\n      0x20\n        /* \"contracts/memebank.sol\":5201:5278  require(_amount <= maxBorrowAmount, \"Borrow amount exceeds collateral limit\") */\n      0x04\n      dup3\n      add\n        /* \"#utility.yul\":8438:8459   */\n      mstore\n        /* \"#utility.yul\":8495:8497   */\n      0x26\n        /* \"#utility.yul\":8475:8493   */\n      0x24\n      dup3\n      add\n        /* \"#utility.yul\":8468:8498   */\n      mstore\n        /* \"#utility.yul\":8534:8568   */\n      0x426f72726f7720616d6f756e74206578636565647320636f6c6c61746572616c\n        /* \"#utility.yul\":8514:8532   */\n      0x44\n      dup3\n      add\n        /* \"#utility.yul\":8507:8569   */\n      mstore\n      shl(0xd2, 0x081b1a5b5a5d)\n        /* \"#utility.yul\":8585:8603   */\n      0x64\n      dup3\n      add\n        /* \"#utility.yul\":8578:8614   */\n      mstore\n        /* \"#utility.yul\":8631:8650   */\n      0x84\n      add\n        /* \"contracts/memebank.sol\":5201:5278  require(_amount <= maxBorrowAmount, \"Borrow amount exceeds collateral limit\") */\n      tag_121\n        /* \"#utility.yul\":8254:8656   */\n      jump\n        /* \"contracts/memebank.sol\":5201:5278  require(_amount <= maxBorrowAmount, \"Borrow amount exceeds collateral limit\") */\n    tag_239:\n        /* \"contracts/memebank.sol\":5295:5305  msg.sender */\n      caller\n        /* \"contracts/memebank.sol\":5289:5306  users[msg.sender] */\n      0x00\n      swap1\n      dup2\n      mstore\n        /* \"contracts/memebank.sol\":5289:5294  users */\n      0x03\n        /* \"contracts/memebank.sol\":5289:5306  users[msg.sender] */\n      0x20\n      mstore\n      0x40\n      dup2\n      keccak256\n        /* \"contracts/memebank.sol\":5325:5340  block.timestamp */\n      timestamp\n        /* \"contracts/memebank.sol\":5289:5322  users[msg.sender].borrowTimestamp */\n      0x02\n      dup3\n      add\n        /* \"contracts/memebank.sol\":5289:5340  users[msg.sender].borrowTimestamp = block.timestamp */\n      sstore\n        /* \"contracts/memebank.sol\":5350:5382  users[msg.sender].borrowedAmount */\n      0x01\n      add\n        /* \"contracts/memebank.sol\":5350:5393  users[msg.sender].borrowedAmount += _amount */\n      dup1\n      sload\n        /* \"contracts/memebank.sol\":5386:5393  _amount */\n      dup6\n      swap3\n        /* \"contracts/memebank.sol\":5289:5306  users[msg.sender] */\n      swap1\n        /* \"contracts/memebank.sol\":5350:5393  users[msg.sender].borrowedAmount += _amount */\n      tag_242\n      swap1\n        /* \"contracts/memebank.sol\":5386:5393  _amount */\n      dup5\n      swap1\n        /* \"contracts/memebank.sol\":5350:5393  users[msg.sender].borrowedAmount += _amount */\n      tag_125\n      jump\t// in\n    tag_242:\n      swap1\n      swap2\n      sstore\n      pop\n      pop\n        /* \"contracts/memebank.sol\":5412:5422  stablecoin */\n      sload(0x01)\n        /* \"contracts/memebank.sol\":5412:5452  stablecoin.transfer(msg.sender, _amount) */\n      mload(0x40)\n      shl(0xe0, 0xa9059cbb)\n      dup2\n      mstore\n        /* \"contracts/memebank.sol\":5432:5442  msg.sender */\n      caller\n        /* \"contracts/memebank.sol\":5412:5452  stablecoin.transfer(msg.sender, _amount) */\n      0x04\n      dup3\n      add\n        /* \"#utility.yul\":4329:4380   */\n      mstore\n        /* \"#utility.yul\":4396:4414   */\n      0x24\n      dup2\n      add\n        /* \"#utility.yul\":4389:4423   */\n      dup6\n      swap1\n      mstore\n      sub(shl(0xa0, 0x01), 0x01)\n        /* \"contracts/memebank.sol\":5412:5422  stablecoin */\n      swap1\n      swap2\n      and\n      swap1\n        /* \"contracts/memebank.sol\":5412:5431  stablecoin.transfer */\n      0xa9059cbb\n      swap1\n        /* \"#utility.yul\":4302:4320   */\n      0x44\n      add\n        /* \"contracts/memebank.sol\":5412:5452  stablecoin.transfer(msg.sender, _amount) */\n      0x20\n      mload(0x40)\n      dup1\n      dup4\n      sub\n      dup2\n      0x00\n      dup8\n      gas\n      call\n      iszero\n      dup1\n      iszero\n      tag_245\n      jumpi\n      returndatasize\n      0x00\n      dup1\n      returndatacopy\n      revert(0x00, returndatasize)\n    tag_245:\n      pop\n      pop\n      pop\n      pop\n      mload(0x40)\n      returndatasize\n      not(0x1f)\n      0x1f\n      dup3\n      add\n      and\n      dup3\n      add\n      dup1\n      0x40\n      mstore\n      pop\n      dup2\n      add\n      swap1\n      tag_246\n      swap2\n      swap1\n      tag_150\n      jump\t// in\n    tag_246:\n        /* \"contracts/memebank.sol\":5404:5472  require(stablecoin.transfer(msg.sender, _amount), \"Transfer failed\") */\n      tag_247\n      jumpi\n      mload(0x40)\n      shl(0xe5, 0x461bcd)\n      dup2\n      mstore\n      0x04\n      add\n      tag_121\n      swap1\n      tag_153\n      jump\t// in\n    tag_247:\n        /* \"contracts/memebank.sol\":4953:5479  {... */\n      pop\n      pop\n        /* \"contracts/memebank.sol\":4902:5479  function borrowStablecoins(uint256 _amount) public {... */\n      pop\n      jump\t// out\n        /* \"contracts/memebank.sol\":7433:7799  function calculateInterest(address _user) public view returns (uint256) {... */\n    tag_108:\n      sub(shl(0xa0, 0x01), 0x01)\n        /* \"contracts/memebank.sol\":7539:7551  users[_user] */\n      dup2\n      and\n        /* \"contracts/memebank.sol\":7496:7503  uint256 */\n      0x00\n        /* \"contracts/memebank.sol\":7539:7551  users[_user] */\n      swap1\n      dup2\n      mstore\n        /* \"contracts/memebank.sol\":7539:7544  users */\n      0x03\n        /* \"contracts/memebank.sol\":7539:7551  users[_user] */\n      0x20\n      mstore\n      0x40\n      dup2\n      keccak256\n        /* \"contracts/memebank.sol\":7580:7599  user.borrowedAmount */\n      0x01\n      dup2\n      add\n      sload\n        /* \"contracts/memebank.sol\":7649:7669  user.borrowTimestamp */\n      0x02\n      dup3\n      add\n      sload\n        /* \"contracts/memebank.sol\":7496:7503  uint256 */\n      dup4\n      swap1\n        /* \"contracts/memebank.sol\":7631:7669  block.timestamp - user.borrowTimestamp */\n      tag_250\n      swap1\n        /* \"contracts/memebank.sol\":7631:7646  block.timestamp */\n      timestamp\n        /* \"contracts/memebank.sol\":7631:7669  block.timestamp - user.borrowTimestamp */\n      tag_139\n      jump\t// in\n    tag_250:\n        /* \"contracts/memebank.sol\":7609:7669  uint256 timeElapsed = block.timestamp - user.borrowTimestamp */\n      swap1\n      pop\n        /* \"contracts/memebank.sol\":7679:7695  uint256 interest */\n      0x00\n        /* \"contracts/memebank.sol\":7741:7755  365 days * 100 */\n      0xbbf81e00\n        /* \"contracts/memebank.sol\":7725:7736  timeElapsed */\n      dup3\n        /* \"contracts/memebank.sol\":7710:7722  interestRate */\n      sload(0x04)\n        /* \"contracts/memebank.sol\":7699:7707  borrowed */\n      dup6\n        /* \"contracts/memebank.sol\":7699:7722  borrowed * interestRate */\n      tag_251\n      swap2\n      swap1\n      tag_193\n      jump\t// in\n    tag_251:\n        /* \"contracts/memebank.sol\":7699:7736  borrowed * interestRate * timeElapsed */\n      tag_252\n      swap2\n      swap1\n      tag_193\n      jump\t// in\n    tag_252:\n        /* \"contracts/memebank.sol\":7698:7756  (borrowed * interestRate * timeElapsed) / (365 days * 100) */\n      tag_253\n      swap2\n      swap1\n      tag_195\n      jump\t// in\n    tag_253:\n        /* \"contracts/memebank.sol\":7679:7756  uint256 interest = (borrowed * interestRate * timeElapsed) / (365 days * 100) */\n      swap1\n      pop\n        /* \"contracts/memebank.sol\":7773:7792  borrowed + interest */\n      tag_254\n        /* \"contracts/memebank.sol\":7679:7756  uint256 interest = (borrowed * interestRate * timeElapsed) / (365 days * 100) */\n      dup2\n        /* \"contracts/memebank.sol\":7773:7781  borrowed */\n      dup5\n        /* \"contracts/memebank.sol\":7773:7792  borrowed + interest */\n      tag_125\n      jump\t// in\n    tag_254:\n        /* \"contracts/memebank.sol\":7766:7792  return borrowed + interest */\n      swap7\n        /* \"contracts/memebank.sol\":7433:7799  function calculateInterest(address _user) public view returns (uint256) {... */\n      swap6\n      pop\n      pop\n      pop\n      pop\n      pop\n      pop\n      jump\t// out\n        /* \"#utility.yul\":196:376   */\n    tag_36:\n        /* \"#utility.yul\":255:261   */\n      0x00\n        /* \"#utility.yul\":308:310   */\n      0x20\n        /* \"#utility.yul\":296:305   */\n      dup3\n        /* \"#utility.yul\":287:294   */\n      dup5\n        /* \"#utility.yul\":283:306   */\n      sub\n        /* \"#utility.yul\":279:311   */\n      slt\n        /* \"#utility.yul\":276:328   */\n      iszero\n      tag_260\n      jumpi\n        /* \"#utility.yul\":324:325   */\n      0x00\n        /* \"#utility.yul\":321:322   */\n      dup1\n        /* \"#utility.yul\":314:326   */\n      revert\n        /* \"#utility.yul\":276:328   */\n    tag_260:\n      pop\n        /* \"#utility.yul\":347:370   */\n      calldataload\n      swap2\n        /* \"#utility.yul\":196:376   */\n      swap1\n      pop\n      jump\t// out\n        /* \"#utility.yul\":1153:1439   */\n    tag_64:\n        /* \"#utility.yul\":1212:1218   */\n      0x00\n        /* \"#utility.yul\":1265:1267   */\n      0x20\n        /* \"#utility.yul\":1253:1262   */\n      dup3\n        /* \"#utility.yul\":1244:1251   */\n      dup5\n        /* \"#utility.yul\":1240:1263   */\n      sub\n        /* \"#utility.yul\":1236:1268   */\n      slt\n        /* \"#utility.yul\":1233:1285   */\n      iszero\n      tag_265\n      jumpi\n        /* \"#utility.yul\":1281:1282   */\n      0x00\n        /* \"#utility.yul\":1278:1279   */\n      dup1\n        /* \"#utility.yul\":1271:1283   */\n      revert\n        /* \"#utility.yul\":1233:1285   */\n    tag_265:\n        /* \"#utility.yul\":1307:1330   */\n      dup2\n      calldataload\n      sub(shl(0xa0, 0x01), 0x01)\n        /* \"#utility.yul\":1359:1390   */\n      dup2\n      and\n        /* \"#utility.yul\":1349:1391   */\n      dup2\n      eq\n        /* \"#utility.yul\":1339:1409   */\n      tag_187\n      jumpi\n        /* \"#utility.yul\":1405:1406   */\n      0x00\n        /* \"#utility.yul\":1402:1403   */\n      dup1\n        /* \"#utility.yul\":1395:1407   */\n      revert\n        /* \"#utility.yul\":2862:2989   */\n    tag_256:\n        /* \"#utility.yul\":2923:2933   */\n      0x4e487b71\n        /* \"#utility.yul\":2918:2921   */\n      0xe0\n        /* \"#utility.yul\":2914:2934   */\n      shl\n        /* \"#utility.yul\":2911:2912   */\n      0x00\n        /* \"#utility.yul\":2904:2935   */\n      mstore\n        /* \"#utility.yul\":2954:2958   */\n      0x11\n        /* \"#utility.yul\":2951:2952   */\n      0x04\n        /* \"#utility.yul\":2944:2959   */\n      mstore\n        /* \"#utility.yul\":2978:2982   */\n      0x24\n        /* \"#utility.yul\":2975:2976   */\n      0x00\n        /* \"#utility.yul\":2968:2983   */\n      revert\n        /* \"#utility.yul\":2994:3119   */\n    tag_125:\n        /* \"#utility.yul\":3059:3068   */\n      dup1\n      dup3\n      add\n        /* \"#utility.yul\":3080:3090   */\n      dup1\n      dup3\n      gt\n        /* \"#utility.yul\":3077:3113   */\n      iszero\n      tag_274\n      jumpi\n        /* \"#utility.yul\":3093:3111   */\n      tag_274\n      tag_256\n      jump\t// in\n    tag_274:\n        /* \"#utility.yul\":2994:3119   */\n      swap3\n      swap2\n      pop\n      pop\n      jump\t// out\n        /* \"#utility.yul\":3473:3657   */\n    tag_133:\n        /* \"#utility.yul\":3543:3549   */\n      0x00\n        /* \"#utility.yul\":3596:3598   */\n      0x20\n        /* \"#utility.yul\":3584:3593   */\n      dup3\n        /* \"#utility.yul\":3575:3582   */\n      dup5\n        /* \"#utility.yul\":3571:3594   */\n      sub\n        /* \"#utility.yul\":3567:3599   */\n      slt\n        /* \"#utility.yul\":3564:3616   */\n      iszero\n      tag_277\n      jumpi\n        /* \"#utility.yul\":3612:3613   */\n      0x00\n        /* \"#utility.yul\":3609:3610   */\n      dup1\n        /* \"#utility.yul\":3602:3614   */\n      revert\n        /* \"#utility.yul\":3564:3616   */\n    tag_277:\n      pop\n        /* \"#utility.yul\":3635:3651   */\n      mload\n      swap2\n        /* \"#utility.yul\":3473:3657   */\n      swap1\n      pop\n      jump\t// out\n        /* \"#utility.yul\":4022:4150   */\n    tag_139:\n        /* \"#utility.yul\":4089:4098   */\n      dup2\n      dup2\n      sub\n        /* \"#utility.yul\":4110:4121   */\n      dup2\n      dup2\n      gt\n        /* \"#utility.yul\":4107:4144   */\n      iszero\n      tag_274\n      jumpi\n        /* \"#utility.yul\":4124:4142   */\n      tag_274\n      tag_256\n      jump\t// in\n        /* \"#utility.yul\":4434:4711   */\n    tag_150:\n        /* \"#utility.yul\":4501:4507   */\n      0x00\n        /* \"#utility.yul\":4554:4556   */\n      0x20\n        /* \"#utility.yul\":4542:4551   */\n      dup3\n        /* \"#utility.yul\":4533:4540   */\n      dup5\n        /* \"#utility.yul\":4529:4552   */\n      sub\n        /* \"#utility.yul\":4525:4557   */\n      slt\n        /* \"#utility.yul\":4522:4574   */\n      iszero\n      tag_284\n      jumpi\n        /* \"#utility.yul\":4570:4571   */\n      0x00\n        /* \"#utility.yul\":4567:4568   */\n      dup1\n        /* \"#utility.yul\":4560:4572   */\n      revert\n        /* \"#utility.yul\":4522:4574   */\n    tag_284:\n        /* \"#utility.yul\":4602:4611   */\n      dup2\n        /* \"#utility.yul\":4596:4612   */\n      mload\n        /* \"#utility.yul\":4655:4660   */\n      dup1\n        /* \"#utility.yul\":4648:4661   */\n      iszero\n        /* \"#utility.yul\":4641:4662   */\n      iszero\n        /* \"#utility.yul\":4634:4639   */\n      dup2\n        /* \"#utility.yul\":4631:4663   */\n      eq\n        /* \"#utility.yul\":4621:4681   */\n      tag_187\n      jumpi\n        /* \"#utility.yul\":4677:4678   */\n      0x00\n        /* \"#utility.yul\":4674:4675   */\n      dup1\n        /* \"#utility.yul\":4667:4679   */\n      revert\n        /* \"#utility.yul\":4716:5055   */\n    tag_153:\n        /* \"#utility.yul\":4918:4920   */\n      0x20\n        /* \"#utility.yul\":4900:4921   */\n      dup1\n      dup3\n      mstore\n        /* \"#utility.yul\":4957:4959   */\n      0x0f\n        /* \"#utility.yul\":4937:4955   */\n      swap1\n      dup3\n      add\n        /* \"#utility.yul\":4930:4960   */\n      mstore\n      shl(0x8a, 0x151c985b9cd9995c8819985a5b1959)\n        /* \"#utility.yul\":4991:4993   */\n      0x40\n        /* \"#utility.yul\":4976:4994   */\n      dup3\n      add\n        /* \"#utility.yul\":4969:5014   */\n      mstore\n        /* \"#utility.yul\":5046:5048   */\n      0x60\n        /* \"#utility.yul\":5031:5049   */\n      add\n      swap1\n        /* \"#utility.yul\":4716:5055   */\n      jump\t// out\n        /* \"#utility.yul\":5313:5666   */\n    tag_159:\n        /* \"#utility.yul\":5515:5517   */\n      0x20\n        /* \"#utility.yul\":5497:5518   */\n      dup1\n      dup3\n      mstore\n        /* \"#utility.yul\":5554:5556   */\n      0x1d\n        /* \"#utility.yul\":5534:5552   */\n      swap1\n      dup3\n      add\n        /* \"#utility.yul\":5527:5557   */\n      mstore\n        /* \"#utility.yul\":5593:5624   */\n      0x416d6f756e74206d7573742062652067726561746572207468616e2030000000\n        /* \"#utility.yul\":5588:5590   */\n      0x40\n        /* \"#utility.yul\":5573:5591   */\n      dup3\n      add\n        /* \"#utility.yul\":5566:5625   */\n      mstore\n        /* \"#utility.yul\":5657:5659   */\n      0x60\n        /* \"#utility.yul\":5642:5660   */\n      add\n      swap1\n        /* \"#utility.yul\":5313:5666   */\n      jump\t// out\n        /* \"#utility.yul\":6797:6965   */\n    tag_193:\n        /* \"#utility.yul\":6870:6879   */\n      dup1\n      dup3\n      mul\n        /* \"#utility.yul\":6901:6910   */\n      dup2\n      iszero\n        /* \"#utility.yul\":6918:6933   */\n      dup3\n      dup3\n      div\n        /* \"#utility.yul\":6912:6934   */\n      dup5\n      eq\n        /* \"#utility.yul\":6898:6935   */\n      or\n        /* \"#utility.yul\":6888:6959   */\n      tag_274\n      jumpi\n        /* \"#utility.yul\":6939:6957   */\n      tag_274\n      tag_256\n      jump\t// in\n        /* \"#utility.yul\":6970:7187   */\n    tag_195:\n        /* \"#utility.yul\":7010:7011   */\n      0x00\n        /* \"#utility.yul\":7036:7037   */\n      dup3\n        /* \"#utility.yul\":7026:7158   */\n      tag_296\n      jumpi\n        /* \"#utility.yul\":7080:7090   */\n      0x4e487b71\n        /* \"#utility.yul\":7075:7078   */\n      0xe0\n        /* \"#utility.yul\":7071:7091   */\n      shl\n        /* \"#utility.yul\":7068:7069   */\n      0x00\n        /* \"#utility.yul\":7061:7092   */\n      mstore\n        /* \"#utility.yul\":7115:7119   */\n      0x12\n        /* \"#utility.yul\":7112:7113   */\n      0x04\n        /* \"#utility.yul\":7105:7120   */\n      mstore\n        /* \"#utility.yul\":7143:7147   */\n      0x24\n        /* \"#utility.yul\":7140:7141   */\n      0x00\n        /* \"#utility.yul\":7133:7148   */\n      revert\n        /* \"#utility.yul\":7026:7158   */\n    tag_296:\n      pop\n        /* \"#utility.yul\":7172:7181   */\n      div\n      swap1\n        /* \"#utility.yul\":6970:7187   */\n      jump\t// out\n\n    auxdata: 0xa2646970667358221220b1a63dd533850da65f42a66148f526c4329b80517b3f603963de141db85e076064736f6c634300081c0033\n}\n",
				"bytecode": {
					"linkReferences": {},
					"object": "6080604052600a600455600860055560a6600655609660075534801561002457600080fd5b50604051611213380380611213833981016040819052610043916100ae565b600080546001600160a01b039485166001600160a01b031991821617909155600180549385169382169390931790925560028054919093169082161790915560098054909116331790556100f1565b80516001600160a01b03811681146100a957600080fd5b919050565b6000806000606084860312156100c357600080fd5b6100cc84610092565b92506100da60208501610092565b91506100e860408501610092565b90509250925092565b611113806101006000396000f3fe608060405234801561001057600080fd5b50600436106101585760003560e01c806397904e42116100c3578063c041bc361161007c578063c041bc3614610326578063c880f83e14610339578063dcaf9c4414610342578063e11932cf1461034b578063e9cbd8221461035e578063ffc9896b1461037157600080fd5b806397904e42146102615780639c424e5814610274578063a0c5cef314610287578063a87430ba1461029a578063ab7b1c8914610300578063bad4a01f1461031357600080fd5b80632630c12f116101155780632630c12f146102035780632975e3251461021657806329ffadd0146102295780636438f89c146102325780637c3a00fd146102455780638da5cb5b1461024e57600080fd5b80630307c4a11461015d5780630ad7d67d146101845780630fcfb05914610199578063136d8883146101ac5780631775765f146101cf5780631a37ea11146101d8575b600080fd5b336000908152600360205260409020600101545b6040519081526020015b60405180910390f35b610197610192366004610f85565b6103ce565b005b6101976101a7366004610f85565b6106a0565b6101b46107ff565b6040805193845260208401929092529082015260600161017b565b61017160075481565b6000546101eb906001600160a01b031681565b6040516001600160a01b03909116815260200161017b565b6002546101eb906001600160a01b031681565b610197610224366004610f85565b610897565b61017160055481565b610171610240366004610f9e565b610947565b61017160045481565b6009546101eb906001600160a01b031681565b61017161026f366004610f9e565b61097e565b6101b4610282366004610f9e565b610a39565b610171610295366004610f9e565b610abc565b6102d86102a8366004610f9e565b60036020819052600091825260409091208054600182015460028301549383015460049093015491939092909185565b604080519586526020860194909452928401919091526060830152608082015260a00161017b565b61019761030e366004610f85565b610b34565b610197610321366004610f85565b610c4e565b610197610334366004610f85565b610d11565b61017160085481565b61017160065481565b610171610359366004610f9e565b610f15565b6001546101eb906001600160a01b031681565b6103ae61037f366004610f9e565b6001600160a01b0316600090815260036020819052604090912080546001820154928201546004909201549093565b60408051948552602085019390935291830152606082015260800161017b565b336000908152600360208190526040909120908101546104295760405162461bcd60e51b8152602060048201526011602482015270139bc819195c1bdcda5d1cc8199bdd5b99607a1b60448201526064015b60405180910390fd5b600061043433610abc565b905060008183600301546104489190610fdd565b9050808411156104915760405162461bcd60e51b8152602060048201526014602482015273496e73756666696369656e742062616c616e636560601b6044820152606401610420565b6001546040516370a0823160e01b81523060048201526001600160a01b03909116906370a0823190602401602060405180830381865afa1580156104d9573d6000803e3d6000fd5b505050506040513d601f19601f820116820180604052508101906104fd9190610ff6565b84111561054c5760405162461bcd60e51b815260206004820152601f60248201527f436f6e74726163742068617320696e73756666696369656e742066756e6473006044820152606401610420565b80840361057f576000600384018190556004840181905560088054829061057490829061100f565b909155506105ce9050565b6000836003015485116105925784610598565b83600301545b9050808460030160008282546105ae919061100f565b9250508190555080600860008282546105c7919061100f565b9091555050505b60015460405163a9059cbb60e01b8152336004820152602481018690526001600160a01b039091169063a9059cbb906044016020604051808303816000875af115801561061f573d6000803e3d6000fd5b505050506040513d601f19601f820116820180604052508101906106439190611022565b61065f5760405162461bcd60e51b815260040161042090611044565b604080518581526020810184905233917facfca0845eda0bcbd22737cb8526cda0fb6e3deeac93ede1ecb1fabec14843fc910160405180910390a250505050565b600081116106c05760405162461bcd60e51b81526004016104209061106d565b6001546040516323b872dd60e01b8152336004820152306024820152604481018390526001600160a01b03909116906323b872dd906064016020604051808303816000875af1158015610717573d6000803e3d6000fd5b505050506040513d601f19601f8201168201806040525081019061073b9190611022565b6107575760405162461bcd60e51b815260040161042090611044565b33600090815260036020819052604082200154900361078757336000908152600360205260409020426004909101555b33600090815260036020819052604082200180548392906107a9908490610fdd565b9250508190555080600860008282546107c29190610fdd565b909155505060405181815233907f72bcd92218a56686cd2892adc5b472dd4e131f58ba98e7a05a28b34ca44be5d39060200160405180910390a250565b60008060006008546108203360009081526003602052604090206001015490565b6001546040516370a0823160e01b81523060048201526001600160a01b03909116906370a0823190602401602060405180830381865afa158015610868573d6000803e3d6000fd5b505050506040513d601f19601f8201168201806040525081019061088c9190610ff6565b925092509250909192565b6009546001600160a01b031633146108fb5760405162461bcd60e51b815260206004820152602160248201527f4f6e6c79206f776e65722063616e2063616c6c20746869732066756e6374696f6044820152603760f91b6064820152608401610420565b60648111156109425760405162461bcd60e51b8152602060048201526013602482015272052617465206d757374206265203c3d2031303606c1b6044820152606401610420565b600555565b6001600160a01b038116600090815260036020526040812061096883610abc565b81600301546109779190610fdd565b9392505050565b600080600260009054906101000a90046001600160a01b03166001600160a01b031663b79c54a86040518163ffffffff1660e01b8152600401602060405180830381865afa1580156109d4573d6000803e3d6000fd5b505050506040513d601f19601f820116820180604052508101906109f89190610ff6565b6001600160a01b038416600090815260036020526040902054909150670de0b6b3a7640000610a2783836110a4565b610a3191906110bb565b949350505050565b6001600160a01b0381166000908152600360205260408120600181015482918291610a975760405162461bcd60e51b815260206004820152600e60248201526d27379030b1ba34bb32903637b0b760911b6044820152606401610420565b80600101549250610aa785610f15565b9350610ab3838561100f565b93959294505050565b6001600160a01b03811660009081526003602081905260408220908101548203610ae95750600092915050565b6000816004015442610afb919061100f565b9050600063bbf81e00826005548560030154610b1791906110a4565b610b2191906110a4565b610b2b91906110bb565b95945050505050565b6000610b3f33610f15565b905080821115610b915760405162461bcd60e51b815260206004820152601f60248201527f526570617920616d6f756e74206578636565647320746f74616c206f776564006044820152606401610420565b60008211610bb15760405162461bcd60e51b81526004016104209061106d565b6001546040516323b872dd60e01b8152336004820152306024820152604481018490526001600160a01b03909116906323b872dd906064016020604051808303816000875af1158015610c08573d6000803e3d6000fd5b505050506040513d601f19601f82011682018060405250810190610c2c9190611022565b50610c37828261100f565b336000908152600360205260409020600101555050565b60008111610c6e5760405162461bcd60e51b81526004016104209061106d565b6000546040516323b872dd60e01b8152336004820152306024820152604481018390526001600160a01b03909116906323b872dd906064016020604051808303816000875af1158015610cc5573d6000803e3d6000fd5b505050506040513d601f19601f82011682018060405250810190610ce99190611022565b503360009081526003602052604081208054839290610d09908490610fdd565b909155505050565b6001546040516370a0823160e01b815230600482015282916001600160a01b0316906370a0823190602401602060405180830381865afa158015610d59573d6000803e3d6000fd5b505050506040513d601f19601f82011682018060405250810190610d7d9190610ff6565b1015610dcb5760405162461bcd60e51b815260206004820152601e60248201527f496e73756666696369656e74206c656e64696e67206c697175696469747900006044820152606401610420565b6000610dd63361097e565b905060006064610de783603c6110a4565b610df191906110bb565b905080831115610e525760405162461bcd60e51b815260206004820152602660248201527f426f72726f7720616d6f756e74206578636565647320636f6c6c61746572616c604482015265081b1a5b5a5d60d21b6064820152608401610420565b3360009081526003602052604081204260028201556001018054859290610e7a908490610fdd565b909155505060015460405163a9059cbb60e01b8152336004820152602481018590526001600160a01b039091169063a9059cbb906044016020604051808303816000875af1158015610ed0573d6000803e3d6000fd5b505050506040513d601f19601f82011682018060405250810190610ef49190611022565b610f105760405162461bcd60e51b815260040161042090611044565b505050565b6001600160a01b0381166000908152600360205260408120600181015460028201548390610f43904261100f565b9050600063bbf81e008260045485610f5b91906110a4565b610f6591906110a4565b610f6f91906110bb565b9050610f7b8184610fdd565b9695505050505050565b600060208284031215610f9757600080fd5b5035919050565b600060208284031215610fb057600080fd5b81356001600160a01b038116811461097757600080fd5b634e487b7160e01b600052601160045260246000fd5b80820180821115610ff057610ff0610fc7565b92915050565b60006020828403121561100857600080fd5b5051919050565b81810381811115610ff057610ff0610fc7565b60006020828403121561103457600080fd5b8151801515811461097757600080fd5b6020808252600f908201526e151c985b9cd9995c8819985a5b1959608a1b604082015260600190565b6020808252601d908201527f416d6f756e74206d7573742062652067726561746572207468616e2030000000604082015260600190565b8082028115828204841417610ff057610ff0610fc7565b6000826110d857634e487b7160e01b600052601260045260246000fd5b50049056fea2646970667358221220b1a63dd533850da65f42a66148f526c4329b80517b3f603963de141db85e076064736f6c634300081c0033",
					"opcodes": "PUSH1 0x80 PUSH1 0x40 MSTORE PUSH1 0xA PUSH1 0x4 SSTORE PUSH1 0x8 PUSH1 0x5 SSTORE PUSH1 0xA6 PUSH1 0x6 SSTORE PUSH1 0x96 PUSH1 0x7 SSTORE CALLVALUE DUP1 ISZERO PUSH2 0x24 JUMPI PUSH1 0x0 DUP1 REVERT JUMPDEST POP PUSH1 0x40 MLOAD PUSH2 0x1213 CODESIZE SUB DUP1 PUSH2 0x1213 DUP4 CODECOPY DUP2 ADD PUSH1 0x40 DUP2 SWAP1 MSTORE PUSH2 0x43 SWAP2 PUSH2 0xAE JUMP JUMPDEST PUSH1 0x0 DUP1 SLOAD PUSH1 0x1 PUSH1 0x1 PUSH1 0xA0 SHL SUB SWAP5 DUP6 AND PUSH1 0x1 PUSH1 0x1 PUSH1 0xA0 SHL SUB NOT SWAP2 DUP3 AND OR SWAP1 SWAP2 SSTORE PUSH1 0x1 DUP1 SLOAD SWAP4 DUP6 AND SWAP4 DUP3 AND SWAP4 SWAP1 SWAP4 OR SWAP1 SWAP3 SSTORE PUSH1 0x2 DUP1 SLOAD SWAP2 SWAP1 SWAP4 AND SWAP1 DUP3 AND OR SWAP1 SWAP2 SSTORE PUSH1 0x9 DUP1 SLOAD SWAP1 SWAP2 AND CALLER OR SWAP1 SSTORE PUSH2 0xF1 JUMP JUMPDEST DUP1 MLOAD PUSH1 0x1 PUSH1 0x1 PUSH1 0xA0 SHL SUB DUP2 AND DUP2 EQ PUSH2 0xA9 JUMPI PUSH1 0x0 DUP1 REVERT JUMPDEST SWAP2 SWAP1 POP JUMP JUMPDEST PUSH1 0x0 DUP1 PUSH1 0x0 PUSH1 0x60 DUP5 DUP7 SUB SLT ISZERO PUSH2 0xC3 JUMPI PUSH1 0x0 DUP1 REVERT JUMPDEST PUSH2 0xCC DUP5 PUSH2 0x92 JUMP JUMPDEST SWAP3 POP PUSH2 0xDA PUSH1 0x20 DUP6 ADD PUSH2 0x92 JUMP JUMPDEST SWAP2 POP PUSH2 0xE8 PUSH1 0x40 DUP6 ADD PUSH2 0x92 JUMP JUMPDEST SWAP1 POP SWAP3 POP SWAP3 POP SWAP3 JUMP JUMPDEST PUSH2 0x1113 DUP1 PUSH2 0x100 PUSH1 0x0 CODECOPY PUSH1 0x0 RETURN INVALID PUSH1 0x80 PUSH1 0x40 MSTORE CALLVALUE DUP1 ISZERO PUSH2 0x10 JUMPI PUSH1 0x0 DUP1 REVERT JUMPDEST POP PUSH1 0x4 CALLDATASIZE LT PUSH2 0x158 JUMPI PUSH1 0x0 CALLDATALOAD PUSH1 0xE0 SHR DUP1 PUSH4 0x97904E42 GT PUSH2 0xC3 JUMPI DUP1 PUSH4 0xC041BC36 GT PUSH2 0x7C JUMPI DUP1 PUSH4 0xC041BC36 EQ PUSH2 0x326 JUMPI DUP1 PUSH4 0xC880F83E EQ PUSH2 0x339 JUMPI DUP1 PUSH4 0xDCAF9C44 EQ PUSH2 0x342 JUMPI DUP1 PUSH4 0xE11932CF EQ PUSH2 0x34B JUMPI DUP1 PUSH4 0xE9CBD822 EQ PUSH2 0x35E JUMPI DUP1 PUSH4 0xFFC9896B EQ PUSH2 0x371 JUMPI PUSH1 0x0 DUP1 REVERT JUMPDEST DUP1 PUSH4 0x97904E42 EQ PUSH2 0x261 JUMPI DUP1 PUSH4 0x9C424E58 EQ PUSH2 0x274 JUMPI DUP1 PUSH4 0xA0C5CEF3 EQ PUSH2 0x287 JUMPI DUP1 PUSH4 0xA87430BA EQ PUSH2 0x29A JUMPI DUP1 PUSH4 0xAB7B1C89 EQ PUSH2 0x300 JUMPI DUP1 PUSH4 0xBAD4A01F EQ PUSH2 0x313 JUMPI PUSH1 0x0 DUP1 REVERT JUMPDEST DUP1 PUSH4 0x2630C12F GT PUSH2 0x115 JUMPI DUP1 PUSH4 0x2630C12F EQ PUSH2 0x203 JUMPI DUP1 PUSH4 0x2975E325 EQ PUSH2 0x216 JUMPI DUP1 PUSH4 0x29FFADD0 EQ PUSH2 0x229 JUMPI DUP1 PUSH4 0x6438F89C EQ PUSH2 0x232 JUMPI DUP1 PUSH4 0x7C3A00FD EQ PUSH2 0x245 JUMPI DUP1 PUSH4 0x8DA5CB5B EQ PUSH2 0x24E JUMPI PUSH1 0x0 DUP1 REVERT JUMPDEST DUP1 PUSH4 0x307C4A1 EQ PUSH2 0x15D JUMPI DUP1 PUSH4 0xAD7D67D EQ PUSH2 0x184 JUMPI DUP1 PUSH4 0xFCFB059 EQ PUSH2 0x199 JUMPI DUP1 PUSH4 0x136D8883 EQ PUSH2 0x1AC JUMPI DUP1 PUSH4 0x1775765F EQ PUSH2 0x1CF JUMPI DUP1 PUSH4 0x1A37EA11 EQ PUSH2 0x1D8 JUMPI JUMPDEST PUSH1 0x0 DUP1 REVERT JUMPDEST CALLER PUSH1 0x0 SWAP1 DUP2 MSTORE PUSH1 0x3 PUSH1 0x20 MSTORE PUSH1 0x40 SWAP1 KECCAK256 PUSH1 0x1 ADD SLOAD JUMPDEST PUSH1 0x40 MLOAD SWAP1 DUP2 MSTORE PUSH1 0x20 ADD JUMPDEST PUSH1 0x40 MLOAD DUP1 SWAP2 SUB SWAP1 RETURN JUMPDEST PUSH2 0x197 PUSH2 0x192 CALLDATASIZE PUSH1 0x4 PUSH2 0xF85 JUMP JUMPDEST PUSH2 0x3CE JUMP JUMPDEST STOP JUMPDEST PUSH2 0x197 PUSH2 0x1A7 CALLDATASIZE PUSH1 0x4 PUSH2 0xF85 JUMP JUMPDEST PUSH2 0x6A0 JUMP JUMPDEST PUSH2 0x1B4 PUSH2 0x7FF JUMP JUMPDEST PUSH1 0x40 DUP1 MLOAD SWAP4 DUP5 MSTORE PUSH1 0x20 DUP5 ADD SWAP3 SWAP1 SWAP3 MSTORE SWAP1 DUP3 ADD MSTORE PUSH1 0x60 ADD PUSH2 0x17B JUMP JUMPDEST PUSH2 0x171 PUSH1 0x7 SLOAD DUP2 JUMP JUMPDEST PUSH1 0x0 SLOAD PUSH2 0x1EB SWAP1 PUSH1 0x1 PUSH1 0x1 PUSH1 0xA0 SHL SUB AND DUP2 JUMP JUMPDEST PUSH1 0x40 MLOAD PUSH1 0x1 PUSH1 0x1 PUSH1 0xA0 SHL SUB SWAP1 SWAP2 AND DUP2 MSTORE PUSH1 0x20 ADD PUSH2 0x17B JUMP JUMPDEST PUSH1 0x2 SLOAD PUSH2 0x1EB SWAP1 PUSH1 0x1 PUSH1 0x1 PUSH1 0xA0 SHL SUB AND DUP2 JUMP JUMPDEST PUSH2 0x197 PUSH2 0x224 CALLDATASIZE PUSH1 0x4 PUSH2 0xF85 JUMP JUMPDEST PUSH2 0x897 JUMP JUMPDEST PUSH2 0x171 PUSH1 0x5 SLOAD DUP2 JUMP JUMPDEST PUSH2 0x171 PUSH2 0x240 CALLDATASIZE PUSH1 0x4 PUSH2 0xF9E JUMP JUMPDEST PUSH2 0x947 JUMP JUMPDEST PUSH2 0x171 PUSH1 0x4 SLOAD DUP2 JUMP JUMPDEST PUSH1 0x9 SLOAD PUSH2 0x1EB SWAP1 PUSH1 0x1 PUSH1 0x1 PUSH1 0xA0 SHL SUB AND DUP2 JUMP JUMPDEST PUSH2 0x171 PUSH2 0x26F CALLDATASIZE PUSH1 0x4 PUSH2 0xF9E JUMP JUMPDEST PUSH2 0x97E JUMP JUMPDEST PUSH2 0x1B4 PUSH2 0x282 CALLDATASIZE PUSH1 0x4 PUSH2 0xF9E JUMP JUMPDEST PUSH2 0xA39 JUMP JUMPDEST PUSH2 0x171 PUSH2 0x295 CALLDATASIZE PUSH1 0x4 PUSH2 0xF9E JUMP JUMPDEST PUSH2 0xABC JUMP JUMPDEST PUSH2 0x2D8 PUSH2 0x2A8 CALLDATASIZE PUSH1 0x4 PUSH2 0xF9E JUMP JUMPDEST PUSH1 0x3 PUSH1 0x20 DUP2 SWAP1 MSTORE PUSH1 0x0 SWAP2 DUP3 MSTORE PUSH1 0x40 SWAP1 SWAP2 KECCAK256 DUP1 SLOAD PUSH1 0x1 DUP3 ADD SLOAD PUSH1 0x2 DUP4 ADD SLOAD SWAP4 DUP4 ADD SLOAD PUSH1 0x4 SWAP1 SWAP4 ADD SLOAD SWAP2 SWAP4 SWAP1 SWAP3 SWAP1 SWAP2 DUP6 JUMP JUMPDEST PUSH1 0x40 DUP1 MLOAD SWAP6 DUP7 MSTORE PUSH1 0x20 DUP7 ADD SWAP5 SWAP1 SWAP5 MSTORE SWAP3 DUP5 ADD SWAP2 SWAP1 SWAP2 MSTORE PUSH1 0x60 DUP4 ADD MSTORE PUSH1 0x80 DUP3 ADD MSTORE PUSH1 0xA0 ADD PUSH2 0x17B JUMP JUMPDEST PUSH2 0x197 PUSH2 0x30E CALLDATASIZE PUSH1 0x4 PUSH2 0xF85 JUMP JUMPDEST PUSH2 0xB34 JUMP JUMPDEST PUSH2 0x197 PUSH2 0x321 CALLDATASIZE PUSH1 0x4 PUSH2 0xF85 JUMP JUMPDEST PUSH2 0xC4E JUMP JUMPDEST PUSH2 0x197 PUSH2 0x334 CALLDATASIZE PUSH1 0x4 PUSH2 0xF85 JUMP JUMPDEST PUSH2 0xD11 JUMP JUMPDEST PUSH2 0x171 PUSH1 0x8 SLOAD DUP2 JUMP JUMPDEST PUSH2 0x171 PUSH1 0x6 SLOAD DUP2 JUMP JUMPDEST PUSH2 0x171 PUSH2 0x359 CALLDATASIZE PUSH1 0x4 PUSH2 0xF9E JUMP JUMPDEST PUSH2 0xF15 JUMP JUMPDEST PUSH1 0x1 SLOAD PUSH2 0x1EB SWAP1 PUSH1 0x1 PUSH1 0x1 PUSH1 0xA0 SHL SUB AND DUP2 JUMP JUMPDEST PUSH2 0x3AE PUSH2 0x37F CALLDATASIZE PUSH1 0x4 PUSH2 0xF9E JUMP JUMPDEST PUSH1 0x1 PUSH1 0x1 PUSH1 0xA0 SHL SUB AND PUSH1 0x0 SWAP1 DUP2 MSTORE PUSH1 0x3 PUSH1 0x20 DUP2 SWAP1 MSTORE PUSH1 0x40 SWAP1 SWAP2 KECCAK256 DUP1 SLOAD PUSH1 0x1 DUP3 ADD SLOAD SWAP3 DUP3 ADD SLOAD PUSH1 0x4 SWAP1 SWAP3 ADD SLOAD SWAP1 SWAP4 JUMP JUMPDEST PUSH1 0x40 DUP1 MLOAD SWAP5 DUP6 MSTORE PUSH1 0x20 DUP6 ADD SWAP4 SWAP1 SWAP4 MSTORE SWAP2 DUP4 ADD MSTORE PUSH1 0x60 DUP3 ADD MSTORE PUSH1 0x80 ADD PUSH2 0x17B JUMP JUMPDEST CALLER PUSH1 0x0 SWAP1 DUP2 MSTORE PUSH1 0x3 PUSH1 0x20 DUP2 SWAP1 MSTORE PUSH1 0x40 SWAP1 SWAP2 KECCAK256 SWAP1 DUP2 ADD SLOAD PUSH2 0x429 JUMPI PUSH1 0x40 MLOAD PUSH3 0x461BCD PUSH1 0xE5 SHL DUP2 MSTORE PUSH1 0x20 PUSH1 0x4 DUP3 ADD MSTORE PUSH1 0x11 PUSH1 0x24 DUP3 ADD MSTORE PUSH17 0x139BC819195C1BDCDA5D1CC8199BDD5B99 PUSH1 0x7A SHL PUSH1 0x44 DUP3 ADD MSTORE PUSH1 0x64 ADD JUMPDEST PUSH1 0x40 MLOAD DUP1 SWAP2 SUB SWAP1 REVERT JUMPDEST PUSH1 0x0 PUSH2 0x434 CALLER PUSH2 0xABC JUMP JUMPDEST SWAP1 POP PUSH1 0x0 DUP2 DUP4 PUSH1 0x3 ADD SLOAD PUSH2 0x448 SWAP2 SWAP1 PUSH2 0xFDD JUMP JUMPDEST SWAP1 POP DUP1 DUP5 GT ISZERO PUSH2 0x491 JUMPI PUSH1 0x40 MLOAD PUSH3 0x461BCD PUSH1 0xE5 SHL DUP2 MSTORE PUSH1 0x20 PUSH1 0x4 DUP3 ADD MSTORE PUSH1 0x14 PUSH1 0x24 DUP3 ADD MSTORE PUSH20 0x496E73756666696369656E742062616C616E6365 PUSH1 0x60 SHL PUSH1 0x44 DUP3 ADD MSTORE PUSH1 0x64 ADD PUSH2 0x420 JUMP JUMPDEST PUSH1 0x1 SLOAD PUSH1 0x40 MLOAD PUSH4 0x70A08231 PUSH1 0xE0 SHL DUP2 MSTORE ADDRESS PUSH1 0x4 DUP3 ADD MSTORE PUSH1 0x1 PUSH1 0x1 PUSH1 0xA0 SHL SUB SWAP1 SWAP2 AND SWAP1 PUSH4 0x70A08231 SWAP1 PUSH1 0x24 ADD PUSH1 0x20 PUSH1 0x40 MLOAD DUP1 DUP4 SUB DUP2 DUP7 GAS STATICCALL ISZERO DUP1 ISZERO PUSH2 0x4D9 JUMPI RETURNDATASIZE PUSH1 0x0 DUP1 RETURNDATACOPY RETURNDATASIZE PUSH1 0x0 REVERT JUMPDEST POP POP POP POP PUSH1 0x40 MLOAD RETURNDATASIZE PUSH1 0x1F NOT PUSH1 0x1F DUP3 ADD AND DUP3 ADD DUP1 PUSH1 0x40 MSTORE POP DUP2 ADD SWAP1 PUSH2 0x4FD SWAP2 SWAP1 PUSH2 0xFF6 JUMP JUMPDEST DUP5 GT ISZERO PUSH2 0x54C JUMPI PUSH1 0x40 MLOAD PUSH3 0x461BCD PUSH1 0xE5 SHL DUP2 MSTORE PUSH1 0x20 PUSH1 0x4 DUP3 ADD MSTORE PUSH1 0x1F PUSH1 0x24 DUP3 ADD MSTORE PUSH32 0x436F6E74726163742068617320696E73756666696369656E742066756E647300 PUSH1 0x44 DUP3 ADD MSTORE PUSH1 0x64 ADD PUSH2 0x420 JUMP JUMPDEST DUP1 DUP5 SUB PUSH2 0x57F JUMPI PUSH1 0x0 PUSH1 0x3 DUP5 ADD DUP2 SWAP1 SSTORE PUSH1 0x4 DUP5 ADD DUP2 SWAP1 SSTORE PUSH1 0x8 DUP1 SLOAD DUP3 SWAP1 PUSH2 0x574 SWAP1 DUP3 SWAP1 PUSH2 0x100F JUMP JUMPDEST SWAP1 SWAP2 SSTORE POP PUSH2 0x5CE SWAP1 POP JUMP JUMPDEST PUSH1 0x0 DUP4 PUSH1 0x3 ADD SLOAD DUP6 GT PUSH2 0x592 JUMPI DUP5 PUSH2 0x598 JUMP JUMPDEST DUP4 PUSH1 0x3 ADD SLOAD JUMPDEST SWAP1 POP DUP1 DUP5 PUSH1 0x3 ADD PUSH1 0x0 DUP3 DUP3 SLOAD PUSH2 0x5AE SWAP2 SWAP1 PUSH2 0x100F JUMP JUMPDEST SWAP3 POP POP DUP2 SWAP1 SSTORE POP DUP1 PUSH1 0x8 PUSH1 0x0 DUP3 DUP3 SLOAD PUSH2 0x5C7 SWAP2 SWAP1 PUSH2 0x100F JUMP JUMPDEST SWAP1 SWAP2 SSTORE POP POP POP JUMPDEST PUSH1 0x1 SLOAD PUSH1 0x40 MLOAD PUSH4 0xA9059CBB PUSH1 0xE0 SHL DUP2 MSTORE CALLER PUSH1 0x4 DUP3 ADD MSTORE PUSH1 0x24 DUP2 ADD DUP7 SWAP1 MSTORE PUSH1 0x1 PUSH1 0x1 PUSH1 0xA0 SHL SUB SWAP1 SWAP2 AND SWAP1 PUSH4 0xA9059CBB SWAP1 PUSH1 0x44 ADD PUSH1 0x20 PUSH1 0x40 MLOAD DUP1 DUP4 SUB DUP2 PUSH1 0x0 DUP8 GAS CALL ISZERO DUP1 ISZERO PUSH2 0x61F JUMPI RETURNDATASIZE PUSH1 0x0 DUP1 RETURNDATACOPY RETURNDATASIZE PUSH1 0x0 REVERT JUMPDEST POP POP POP POP PUSH1 0x40 MLOAD RETURNDATASIZE PUSH1 0x1F NOT PUSH1 0x1F DUP3 ADD AND DUP3 ADD DUP1 PUSH1 0x40 MSTORE POP DUP2 ADD SWAP1 PUSH2 0x643 SWAP2 SWAP1 PUSH2 0x1022 JUMP JUMPDEST PUSH2 0x65F JUMPI PUSH1 0x40 MLOAD PUSH3 0x461BCD PUSH1 0xE5 SHL DUP2 MSTORE PUSH1 0x4 ADD PUSH2 0x420 SWAP1 PUSH2 0x1044 JUMP JUMPDEST PUSH1 0x40 DUP1 MLOAD DUP6 DUP2 MSTORE PUSH1 0x20 DUP2 ADD DUP5 SWAP1 MSTORE CALLER SWAP2 PUSH32 0xACFCA0845EDA0BCBD22737CB8526CDA0FB6E3DEEAC93EDE1ECB1FABEC14843FC SWAP2 ADD PUSH1 0x40 MLOAD DUP1 SWAP2 SUB SWAP1 LOG2 POP POP POP POP JUMP JUMPDEST PUSH1 0x0 DUP2 GT PUSH2 0x6C0 JUMPI PUSH1 0x40 MLOAD PUSH3 0x461BCD PUSH1 0xE5 SHL DUP2 MSTORE PUSH1 0x4 ADD PUSH2 0x420 SWAP1 PUSH2 0x106D JUMP JUMPDEST PUSH1 0x1 SLOAD PUSH1 0x40 MLOAD PUSH4 0x23B872DD PUSH1 0xE0 SHL DUP2 MSTORE CALLER PUSH1 0x4 DUP3 ADD MSTORE ADDRESS PUSH1 0x24 DUP3 ADD MSTORE PUSH1 0x44 DUP2 ADD DUP4 SWAP1 MSTORE PUSH1 0x1 PUSH1 0x1 PUSH1 0xA0 SHL SUB SWAP1 SWAP2 AND SWAP1 PUSH4 0x23B872DD SWAP1 PUSH1 0x64 ADD PUSH1 0x20 PUSH1 0x40 MLOAD DUP1 DUP4 SUB DUP2 PUSH1 0x0 DUP8 GAS CALL ISZERO DUP1 ISZERO PUSH2 0x717 JUMPI RETURNDATASIZE PUSH1 0x0 DUP1 RETURNDATACOPY RETURNDATASIZE PUSH1 0x0 REVERT JUMPDEST POP POP POP POP PUSH1 0x40 MLOAD RETURNDATASIZE PUSH1 0x1F NOT PUSH1 0x1F DUP3 ADD AND DUP3 ADD DUP1 PUSH1 0x40 MSTORE POP DUP2 ADD SWAP1 PUSH2 0x73B SWAP2 SWAP1 PUSH2 0x1022 JUMP JUMPDEST PUSH2 0x757 JUMPI PUSH1 0x40 MLOAD PUSH3 0x461BCD PUSH1 0xE5 SHL DUP2 MSTORE PUSH1 0x4 ADD PUSH2 0x420 SWAP1 PUSH2 0x1044 JUMP JUMPDEST CALLER PUSH1 0x0 SWAP1 DUP2 MSTORE PUSH1 0x3 PUSH1 0x20 DUP2 SWAP1 MSTORE PUSH1 0x40 DUP3 KECCAK256 ADD SLOAD SWAP1 SUB PUSH2 0x787 JUMPI CALLER PUSH1 0x0 SWAP1 DUP2 MSTORE PUSH1 0x3 PUSH1 0x20 MSTORE PUSH1 0x40 SWAP1 KECCAK256 TIMESTAMP PUSH1 0x4 SWAP1 SWAP2 ADD SSTORE JUMPDEST CALLER PUSH1 0x0 SWAP1 DUP2 MSTORE PUSH1 0x3 PUSH1 0x20 DUP2 SWAP1 MSTORE PUSH1 0x40 DUP3 KECCAK256 ADD DUP1 SLOAD DUP4 SWAP3 SWAP1 PUSH2 0x7A9 SWAP1 DUP5 SWAP1 PUSH2 0xFDD JUMP JUMPDEST SWAP3 POP POP DUP2 SWAP1 SSTORE POP DUP1 PUSH1 0x8 PUSH1 0x0 DUP3 DUP3 SLOAD PUSH2 0x7C2 SWAP2 SWAP1 PUSH2 0xFDD JUMP JUMPDEST SWAP1 SWAP2 SSTORE POP POP PUSH1 0x40 MLOAD DUP2 DUP2 MSTORE CALLER SWAP1 PUSH32 0x72BCD92218A56686CD2892ADC5B472DD4E131F58BA98E7A05A28B34CA44BE5D3 SWAP1 PUSH1 0x20 ADD PUSH1 0x40 MLOAD DUP1 SWAP2 SUB SWAP1 LOG2 POP JUMP JUMPDEST PUSH1 0x0 DUP1 PUSH1 0x0 PUSH1 0x8 SLOAD PUSH2 0x820 CALLER PUSH1 0x0 SWAP1 DUP2 MSTORE PUSH1 0x3 PUSH1 0x20 MSTORE PUSH1 0x40 SWAP1 KECCAK256 PUSH1 0x1 ADD SLOAD SWAP1 JUMP JUMPDEST PUSH1 0x1 SLOAD PUSH1 0x40 MLOAD PUSH4 0x70A08231 PUSH1 0xE0 SHL DUP2 MSTORE ADDRESS PUSH1 0x4 DUP3 ADD MSTORE PUSH1 0x1 PUSH1 0x1 PUSH1 0xA0 SHL SUB SWAP1 SWAP2 AND SWAP1 PUSH4 0x70A08231 SWAP1 PUSH1 0x24 ADD PUSH1 0x20 PUSH1 0x40 MLOAD DUP1 DUP4 SUB DUP2 DUP7 GAS STATICCALL ISZERO DUP1 ISZERO PUSH2 0x868 JUMPI RETURNDATASIZE PUSH1 0x0 DUP1 RETURNDATACOPY RETURNDATASIZE PUSH1 0x0 REVERT JUMPDEST POP POP POP POP PUSH1 0x40 MLOAD RETURNDATASIZE PUSH1 0x1F NOT PUSH1 0x1F DUP3 ADD AND DUP3 ADD DUP1 PUSH1 0x40 MSTORE POP DUP2 ADD SWAP1 PUSH2 0x88C SWAP2 SWAP1 PUSH2 0xFF6 JUMP JUMPDEST SWAP3 POP SWAP3 POP SWAP3 POP SWAP1 SWAP2 SWAP3 JUMP JUMPDEST PUSH1 0x9 SLOAD PUSH1 0x1 PUSH1 0x1 PUSH1 0xA0 SHL SUB AND CALLER EQ PUSH2 0x8FB JUMPI PUSH1 0x40 MLOAD PUSH3 0x461BCD PUSH1 0xE5 SHL DUP2 MSTORE PUSH1 0x20 PUSH1 0x4 DUP3 ADD MSTORE PUSH1 0x21 PUSH1 0x24 DUP3 ADD MSTORE PUSH32 0x4F6E6C79206F776E65722063616E2063616C6C20746869732066756E6374696F PUSH1 0x44 DUP3 ADD MSTORE PUSH1 0x37 PUSH1 0xF9 SHL PUSH1 0x64 DUP3 ADD MSTORE PUSH1 0x84 ADD PUSH2 0x420 JUMP JUMPDEST PUSH1 0x64 DUP2 GT ISZERO PUSH2 0x942 JUMPI PUSH1 0x40 MLOAD PUSH3 0x461BCD PUSH1 0xE5 SHL DUP2 MSTORE PUSH1 0x20 PUSH1 0x4 DUP3 ADD MSTORE PUSH1 0x13 PUSH1 0x24 DUP3 ADD MSTORE PUSH19 0x52617465206D757374206265203C3D2031303 PUSH1 0x6C SHL PUSH1 0x44 DUP3 ADD MSTORE PUSH1 0x64 ADD PUSH2 0x420 JUMP JUMPDEST PUSH1 0x5 SSTORE JUMP JUMPDEST PUSH1 0x1 PUSH1 0x1 PUSH1 0xA0 SHL SUB DUP2 AND PUSH1 0x0 SWAP1 DUP2 MSTORE PUSH1 0x3 PUSH1 0x20 MSTORE PUSH1 0x40 DUP2 KECCAK256 PUSH2 0x968 DUP4 PUSH2 0xABC JUMP JUMPDEST DUP2 PUSH1 0x3 ADD SLOAD PUSH2 0x977 SWAP2 SWAP1 PUSH2 0xFDD JUMP JUMPDEST SWAP4 SWAP3 POP POP POP JUMP JUMPDEST PUSH1 0x0 DUP1 PUSH1 0x2 PUSH1 0x0 SWAP1 SLOAD SWAP1 PUSH2 0x100 EXP SWAP1 DIV PUSH1 0x1 PUSH1 0x1 PUSH1 0xA0 SHL SUB AND PUSH1 0x1 PUSH1 0x1 PUSH1 0xA0 SHL SUB AND PUSH4 0xB79C54A8 PUSH1 0x40 MLOAD DUP2 PUSH4 0xFFFFFFFF AND PUSH1 0xE0 SHL DUP2 MSTORE PUSH1 0x4 ADD PUSH1 0x20 PUSH1 0x40 MLOAD DUP1 DUP4 SUB DUP2 DUP7 GAS STATICCALL ISZERO DUP1 ISZERO PUSH2 0x9D4 JUMPI RETURNDATASIZE PUSH1 0x0 DUP1 RETURNDATACOPY RETURNDATASIZE PUSH1 0x0 REVERT JUMPDEST POP POP POP POP PUSH1 0x40 MLOAD RETURNDATASIZE PUSH1 0x1F NOT PUSH1 0x1F DUP3 ADD AND DUP3 ADD DUP1 PUSH1 0x40 MSTORE POP DUP2 ADD SWAP1 PUSH2 0x9F8 SWAP2 SWAP1 PUSH2 0xFF6 JUMP JUMPDEST PUSH1 0x1 PUSH1 0x1 PUSH1 0xA0 SHL SUB DUP5 AND PUSH1 0x0 SWAP1 DUP2 MSTORE PUSH1 0x3 PUSH1 0x20 MSTORE PUSH1 0x40 SWAP1 KECCAK256 SLOAD SWAP1 SWAP2 POP PUSH8 0xDE0B6B3A7640000 PUSH2 0xA27 DUP4 DUP4 PUSH2 0x10A4 JUMP JUMPDEST PUSH2 0xA31 SWAP2 SWAP1 PUSH2 0x10BB JUMP JUMPDEST SWAP5 SWAP4 POP POP POP POP JUMP JUMPDEST PUSH1 0x1 PUSH1 0x1 PUSH1 0xA0 SHL SUB DUP2 AND PUSH1 0x0 SWAP1 DUP2 MSTORE PUSH1 0x3 PUSH1 0x20 MSTORE PUSH1 0x40 DUP2 KECCAK256 PUSH1 0x1 DUP2 ADD SLOAD DUP3 SWAP2 DUP3 SWAP2 PUSH2 0xA97 JUMPI PUSH1 0x40 MLOAD PUSH3 0x461BCD PUSH1 0xE5 SHL DUP2 MSTORE PUSH1 0x20 PUSH1 0x4 DUP3 ADD MSTORE PUSH1 0xE PUSH1 0x24 DUP3 ADD MSTORE PUSH14 0x27379030B1BA34BB32903637B0B7 PUSH1 0x91 SHL PUSH1 0x44 DUP3 ADD MSTORE PUSH1 0x64 ADD PUSH2 0x420 JUMP JUMPDEST DUP1 PUSH1 0x1 ADD SLOAD SWAP3 POP PUSH2 0xAA7 DUP6 PUSH2 0xF15 JUMP JUMPDEST SWAP4 POP PUSH2 0xAB3 DUP4 DUP6 PUSH2 0x100F JUMP JUMPDEST SWAP4 SWAP6 SWAP3 SWAP5 POP POP POP JUMP JUMPDEST PUSH1 0x1 PUSH1 0x1 PUSH1 0xA0 SHL SUB DUP2 AND PUSH1 0x0 SWAP1 DUP2 MSTORE PUSH1 0x3 PUSH1 0x20 DUP2 SWAP1 MSTORE PUSH1 0x40 DUP3 KECCAK256 SWAP1 DUP2 ADD SLOAD DUP3 SUB PUSH2 0xAE9 JUMPI POP PUSH1 0x0 SWAP3 SWAP2 POP POP JUMP JUMPDEST PUSH1 0x0 DUP2 PUSH1 0x4 ADD SLOAD TIMESTAMP PUSH2 0xAFB SWAP2 SWAP1 PUSH2 0x100F JUMP JUMPDEST SWAP1 POP PUSH1 0x0 PUSH4 0xBBF81E00 DUP3 PUSH1 0x5 SLOAD DUP6 PUSH1 0x3 ADD SLOAD PUSH2 0xB17 SWAP2 SWAP1 PUSH2 0x10A4 JUMP JUMPDEST PUSH2 0xB21 SWAP2 SWAP1 PUSH2 0x10A4 JUMP JUMPDEST PUSH2 0xB2B SWAP2 SWAP1 PUSH2 0x10BB JUMP JUMPDEST SWAP6 SWAP5 POP POP POP POP POP JUMP JUMPDEST PUSH1 0x0 PUSH2 0xB3F CALLER PUSH2 0xF15 JUMP JUMPDEST SWAP1 POP DUP1 DUP3 GT ISZERO PUSH2 0xB91 JUMPI PUSH1 0x40 MLOAD PUSH3 0x461BCD PUSH1 0xE5 SHL DUP2 MSTORE PUSH1 0x20 PUSH1 0x4 DUP3 ADD MSTORE PUSH1 0x1F PUSH1 0x24 DUP3 ADD MSTORE PUSH32 0x526570617920616D6F756E74206578636565647320746F74616C206F77656400 PUSH1 0x44 DUP3 ADD MSTORE PUSH1 0x64 ADD PUSH2 0x420 JUMP JUMPDEST PUSH1 0x0 DUP3 GT PUSH2 0xBB1 JUMPI PUSH1 0x40 MLOAD PUSH3 0x461BCD PUSH1 0xE5 SHL DUP2 MSTORE PUSH1 0x4 ADD PUSH2 0x420 SWAP1 PUSH2 0x106D JUMP JUMPDEST PUSH1 0x1 SLOAD PUSH1 0x40 MLOAD PUSH4 0x23B872DD PUSH1 0xE0 SHL DUP2 MSTORE CALLER PUSH1 0x4 DUP3 ADD MSTORE ADDRESS PUSH1 0x24 DUP3 ADD MSTORE PUSH1 0x44 DUP2 ADD DUP5 SWAP1 MSTORE PUSH1 0x1 PUSH1 0x1 PUSH1 0xA0 SHL SUB SWAP1 SWAP2 AND SWAP1 PUSH4 0x23B872DD SWAP1 PUSH1 0x64 ADD PUSH1 0x20 PUSH1 0x40 MLOAD DUP1 DUP4 SUB DUP2 PUSH1 0x0 DUP8 GAS CALL ISZERO DUP1 ISZERO PUSH2 0xC08 JUMPI RETURNDATASIZE PUSH1 0x0 DUP1 RETURNDATACOPY RETURNDATASIZE PUSH1 0x0 REVERT JUMPDEST POP POP POP POP PUSH1 0x40 MLOAD RETURNDATASIZE PUSH1 0x1F NOT PUSH1 0x1F DUP3 ADD AND DUP3 ADD DUP1 PUSH1 0x40 MSTORE POP DUP2 ADD SWAP1 PUSH2 0xC2C SWAP2 SWAP1 PUSH2 0x1022 JUMP JUMPDEST POP PUSH2 0xC37 DUP3 DUP3 PUSH2 0x100F JUMP JUMPDEST CALLER PUSH1 0x0 SWAP1 DUP2 MSTORE PUSH1 0x3 PUSH1 0x20 MSTORE PUSH1 0x40 SWAP1 KECCAK256 PUSH1 0x1 ADD SSTORE POP POP JUMP JUMPDEST PUSH1 0x0 DUP2 GT PUSH2 0xC6E JUMPI PUSH1 0x40 MLOAD PUSH3 0x461BCD PUSH1 0xE5 SHL DUP2 MSTORE PUSH1 0x4 ADD PUSH2 0x420 SWAP1 PUSH2 0x106D JUMP JUMPDEST PUSH1 0x0 SLOAD PUSH1 0x40 MLOAD PUSH4 0x23B872DD PUSH1 0xE0 SHL DUP2 MSTORE CALLER PUSH1 0x4 DUP3 ADD MSTORE ADDRESS PUSH1 0x24 DUP3 ADD MSTORE PUSH1 0x44 DUP2 ADD DUP4 SWAP1 MSTORE PUSH1 0x1 PUSH1 0x1 PUSH1 0xA0 SHL SUB SWAP1 SWAP2 AND SWAP1 PUSH4 0x23B872DD SWAP1 PUSH1 0x64 ADD PUSH1 0x20 PUSH1 0x40 MLOAD DUP1 DUP4 SUB DUP2 PUSH1 0x0 DUP8 GAS CALL ISZERO DUP1 ISZERO PUSH2 0xCC5 JUMPI RETURNDATASIZE PUSH1 0x0 DUP1 RETURNDATACOPY RETURNDATASIZE PUSH1 0x0 REVERT JUMPDEST POP POP POP POP PUSH1 0x40 MLOAD RETURNDATASIZE PUSH1 0x1F NOT PUSH1 0x1F DUP3 ADD AND DUP3 ADD DUP1 PUSH1 0x40 MSTORE POP DUP2 ADD SWAP1 PUSH2 0xCE9 SWAP2 SWAP1 PUSH2 0x1022 JUMP JUMPDEST POP CALLER PUSH1 0x0 SWAP1 DUP2 MSTORE PUSH1 0x3 PUSH1 0x20 MSTORE PUSH1 0x40 DUP2 KECCAK256 DUP1 SLOAD DUP4 SWAP3 SWAP1 PUSH2 0xD09 SWAP1 DUP5 SWAP1 PUSH2 0xFDD JUMP JUMPDEST SWAP1 SWAP2 SSTORE POP POP POP JUMP JUMPDEST PUSH1 0x1 SLOAD PUSH1 0x40 MLOAD PUSH4 0x70A08231 PUSH1 0xE0 SHL DUP2 MSTORE ADDRESS PUSH1 0x4 DUP3 ADD MSTORE DUP3 SWAP2 PUSH1 0x1 PUSH1 0x1 PUSH1 0xA0 SHL SUB AND SWAP1 PUSH4 0x70A08231 SWAP1 PUSH1 0x24 ADD PUSH1 0x20 PUSH1 0x40 MLOAD DUP1 DUP4 SUB DUP2 DUP7 GAS STATICCALL ISZERO DUP1 ISZERO PUSH2 0xD59 JUMPI RETURNDATASIZE PUSH1 0x0 DUP1 RETURNDATACOPY RETURNDATASIZE PUSH1 0x0 REVERT JUMPDEST POP POP POP POP PUSH1 0x40 MLOAD RETURNDATASIZE PUSH1 0x1F NOT PUSH1 0x1F DUP3 ADD AND DUP3 ADD DUP1 PUSH1 0x40 MSTORE POP DUP2 ADD SWAP1 PUSH2 0xD7D SWAP2 SWAP1 PUSH2 0xFF6 JUMP JUMPDEST LT ISZERO PUSH2 0xDCB JUMPI PUSH1 0x40 MLOAD PUSH3 0x461BCD PUSH1 0xE5 SHL DUP2 MSTORE PUSH1 0x20 PUSH1 0x4 DUP3 ADD MSTORE PUSH1 0x1E PUSH1 0x24 DUP3 ADD MSTORE PUSH32 0x496E73756666696369656E74206C656E64696E67206C69717569646974790000 PUSH1 0x44 DUP3 ADD MSTORE PUSH1 0x64 ADD PUSH2 0x420 JUMP JUMPDEST PUSH1 0x0 PUSH2 0xDD6 CALLER PUSH2 0x97E JUMP JUMPDEST SWAP1 POP PUSH1 0x0 PUSH1 0x64 PUSH2 0xDE7 DUP4 PUSH1 0x3C PUSH2 0x10A4 JUMP JUMPDEST PUSH2 0xDF1 SWAP2 SWAP1 PUSH2 0x10BB JUMP JUMPDEST SWAP1 POP DUP1 DUP4 GT ISZERO PUSH2 0xE52 JUMPI PUSH1 0x40 MLOAD PUSH3 0x461BCD PUSH1 0xE5 SHL DUP2 MSTORE PUSH1 0x20 PUSH1 0x4 DUP3 ADD MSTORE PUSH1 0x26 PUSH1 0x24 DUP3 ADD MSTORE PUSH32 0x426F72726F7720616D6F756E74206578636565647320636F6C6C61746572616C PUSH1 0x44 DUP3 ADD MSTORE PUSH6 0x81B1A5B5A5D PUSH1 0xD2 SHL PUSH1 0x64 DUP3 ADD MSTORE PUSH1 0x84 ADD PUSH2 0x420 JUMP JUMPDEST CALLER PUSH1 0x0 SWAP1 DUP2 MSTORE PUSH1 0x3 PUSH1 0x20 MSTORE PUSH1 0x40 DUP2 KECCAK256 TIMESTAMP PUSH1 0x2 DUP3 ADD SSTORE PUSH1 0x1 ADD DUP1 SLOAD DUP6 SWAP3 SWAP1 PUSH2 0xE7A SWAP1 DUP5 SWAP1 PUSH2 0xFDD JUMP JUMPDEST SWAP1 SWAP2 SSTORE POP POP PUSH1 0x1 SLOAD PUSH1 0x40 MLOAD PUSH4 0xA9059CBB PUSH1 0xE0 SHL DUP2 MSTORE CALLER PUSH1 0x4 DUP3 ADD MSTORE PUSH1 0x24 DUP2 ADD DUP6 SWAP1 MSTORE PUSH1 0x1 PUSH1 0x1 PUSH1 0xA0 SHL SUB SWAP1 SWAP2 AND SWAP1 PUSH4 0xA9059CBB SWAP1 PUSH1 0x44 ADD PUSH1 0x20 PUSH1 0x40 MLOAD DUP1 DUP4 SUB DUP2 PUSH1 0x0 DUP8 GAS CALL ISZERO DUP1 ISZERO PUSH2 0xED0 JUMPI RETURNDATASIZE PUSH1 0x0 DUP1 RETURNDATACOPY RETURNDATASIZE PUSH1 0x0 REVERT JUMPDEST POP POP POP POP PUSH1 0x40 MLOAD RETURNDATASIZE PUSH1 0x1F NOT PUSH1 0x1F DUP3 ADD AND DUP3 ADD DUP1 PUSH1 0x40 MSTORE POP DUP2 ADD SWAP1 PUSH2 0xEF4 SWAP2 SWAP1 PUSH2 0x1022 JUMP JUMPDEST PUSH2 0xF10 JUMPI PUSH1 0x40 MLOAD PUSH3 0x461BCD PUSH1 0xE5 SHL DUP2 MSTORE PUSH1 0x4 ADD PUSH2 0x420 SWAP1 PUSH2 0x1044 JUMP JUMPDEST POP POP POP JUMP JUMPDEST PUSH1 0x1 PUSH1 0x1 PUSH1 0xA0 SHL SUB DUP2 AND PUSH1 0x0 SWAP1 DUP2 MSTORE PUSH1 0x3 PUSH1 0x20 MSTORE PUSH1 0x40 DUP2 KECCAK256 PUSH1 0x1 DUP2 ADD SLOAD PUSH1 0x2 DUP3 ADD SLOAD DUP4 SWAP1 PUSH2 0xF43 SWAP1 TIMESTAMP PUSH2 0x100F JUMP JUMPDEST SWAP1 POP PUSH1 0x0 PUSH4 0xBBF81E00 DUP3 PUSH1 0x4 SLOAD DUP6 PUSH2 0xF5B SWAP2 SWAP1 PUSH2 0x10A4 JUMP JUMPDEST PUSH2 0xF65 SWAP2 SWAP1 PUSH2 0x10A4 JUMP JUMPDEST PUSH2 0xF6F SWAP2 SWAP1 PUSH2 0x10BB JUMP JUMPDEST SWAP1 POP PUSH2 0xF7B DUP2 DUP5 PUSH2 0xFDD JUMP JUMPDEST SWAP7 SWAP6 POP POP POP POP POP POP JUMP JUMPDEST PUSH1 0x0 PUSH1 0x20 DUP3 DUP5 SUB SLT ISZERO PUSH2 0xF97 JUMPI PUSH1 0x0 DUP1 REVERT JUMPDEST POP CALLDATALOAD SWAP2 SWAP1 POP JUMP JUMPDEST PUSH1 0x0 PUSH1 0x20 DUP3 DUP5 SUB SLT ISZERO PUSH2 0xFB0 JUMPI PUSH1 0x0 DUP1 REVERT JUMPDEST DUP2 CALLDATALOAD PUSH1 0x1 PUSH1 0x1 PUSH1 0xA0 SHL SUB DUP2 AND DUP2 EQ PUSH2 0x977 JUMPI PUSH1 0x0 DUP1 REVERT JUMPDEST PUSH4 0x4E487B71 PUSH1 0xE0 SHL PUSH1 0x0 MSTORE PUSH1 0x11 PUSH1 0x4 MSTORE PUSH1 0x24 PUSH1 0x0 REVERT JUMPDEST DUP1 DUP3 ADD DUP1 DUP3 GT ISZERO PUSH2 0xFF0 JUMPI PUSH2 0xFF0 PUSH2 0xFC7 JUMP JUMPDEST SWAP3 SWAP2 POP POP JUMP JUMPDEST PUSH1 0x0 PUSH1 0x20 DUP3 DUP5 SUB SLT ISZERO PUSH2 0x1008 JUMPI PUSH1 0x0 DUP1 REVERT JUMPDEST POP MLOAD SWAP2 SWAP1 POP JUMP JUMPDEST DUP2 DUP2 SUB DUP2 DUP2 GT ISZERO PUSH2 0xFF0 JUMPI PUSH2 0xFF0 PUSH2 0xFC7 JUMP JUMPDEST PUSH1 0x0 PUSH1 0x20 DUP3 DUP5 SUB SLT ISZERO PUSH2 0x1034 JUMPI PUSH1 0x0 DUP1 REVERT JUMPDEST DUP2 MLOAD DUP1 ISZERO ISZERO DUP2 EQ PUSH2 0x977 JUMPI PUSH1 0x0 DUP1 REVERT JUMPDEST PUSH1 0x20 DUP1 DUP3 MSTORE PUSH1 0xF SWAP1 DUP3 ADD MSTORE PUSH15 0x151C985B9CD9995C8819985A5B1959 PUSH1 0x8A SHL PUSH1 0x40 DUP3 ADD MSTORE PUSH1 0x60 ADD SWAP1 JUMP JUMPDEST PUSH1 0x20 DUP1 DUP3 MSTORE PUSH1 0x1D SWAP1 DUP3 ADD MSTORE PUSH32 0x416D6F756E74206D7573742062652067726561746572207468616E2030000000 PUSH1 0x40 DUP3 ADD MSTORE PUSH1 0x60 ADD SWAP1 JUMP JUMPDEST DUP1 DUP3 MUL DUP2 ISZERO DUP3 DUP3 DIV DUP5 EQ OR PUSH2 0xFF0 JUMPI PUSH2 0xFF0 PUSH2 0xFC7 JUMP JUMPDEST PUSH1 0x0 DUP3 PUSH2 0x10D8 JUMPI PUSH4 0x4E487B71 PUSH1 0xE0 SHL PUSH1 0x0 MSTORE PUSH1 0x12 PUSH1 0x4 MSTORE PUSH1 0x24 PUSH1 0x0 REVERT JUMPDEST POP DIV SWAP1 JUMP INVALID LOG2 PUSH5 0x6970667358 0x22 SLT KECCAK256 0xB1 0xA6 RETURNDATASIZE 0xD5 CALLER DUP6 0xD 0xA6 PUSH0 TIMESTAMP 0xA6 PUSH2 0x48F5 0x26 0xC4 ORIGIN SWAP12 DUP1 MLOAD PUSH28 0x3F603963DE141DB85E076064736F6C634300081C0033000000000000 "
				},
				"gasEstimates": {
					"creation": {
						"codeDepositCost": "874200",
						"executionCost": "infinite",
						"totalCost": "infinite"
					},
					"external": {
						"borrowStablecoins(uint256)": "infinite",
						"calculateInterest(address)": "infinite",
						"calculateLendingInterest(address)": "infinite",
						"calculateRepaymentAmount(address)": "infinite",
						"collateralizationRatio()": "2350",
						"depositCollateral(uint256)": "infinite",
						"depositStable(uint256)": "infinite",
						"getCollateralValue(address)": "infinite",
						"getPlatformStats()": "infinite",
						"getTotalBorrowed()": "2368",
						"getTotalEarnings(address)": "infinite",
						"getUserData(address)": "9036",
						"interestRate()": "2395",
						"lendingInterestRate()": "2351",
						"liquidationRatio()": "2396",
						"memecoin()": "2471",
						"owner()": "2470",
						"priceOracle()": "2360",
						"repayLoan(uint256)": "infinite",
						"setLendingInterestRate(uint256)": "24535",
						"stablecoin()": "2447",
						"totalStableDeposits()": "2328",
						"users(address)": "11123",
						"withdrawStable(uint256)": "infinite"
					}
				},
				"methodIdentifiers": {
					"borrowStablecoins(uint256)": "c041bc36",
					"calculateInterest(address)": "e11932cf",
					"calculateLendingInterest(address)": "a0c5cef3",
					"calculateRepaymentAmount(address)": "9c424e58",
					"collateralizationRatio()": "dcaf9c44",
					"depositCollateral(uint256)": "bad4a01f",
					"depositStable(uint256)": "0fcfb059",
					"getCollateralValue(address)": "97904e42",
					"getPlatformStats()": "136d8883",
					"getTotalBorrowed()": "0307c4a1",
					"getTotalEarnings(address)": "6438f89c",
					"getUserData(address)": "ffc9896b",
					"interestRate()": "7c3a00fd",
					"lendingInterestRate()": "29ffadd0",
					"liquidationRatio()": "1775765f",
					"memecoin()": "1a37ea11",
					"owner()": "8da5cb5b",
					"priceOracle()": "2630c12f",
					"repayLoan(uint256)": "ab7b1c89",
					"setLendingInterestRate(uint256)": "2975e325",
					"stablecoin()": "e9cbd822",
					"totalStableDeposits()": "c880f83e",
					"users(address)": "a87430ba",
					"withdrawStable(uint256)": "0ad7d67d"
				}
			},
			"storageLayout": {
				"storage": [
					{
						"astId": 47,
						"contract": "contracts/memebank.sol:MemecoinLendingBorrowing",
						"label": "memecoin",
						"offset": 0,
						"slot": "0",
						"type": "t_contract(IERC20)38"
					},
					{
						"astId": 50,
						"contract": "contracts/memebank.sol:MemecoinLendingBorrowing",
						"label": "stablecoin",
						"offset": 0,
						"slot": "1",
						"type": "t_contract(IERC20)38"
					},
					{
						"astId": 53,
						"contract": "contracts/memebank.sol:MemecoinLendingBorrowing",
						"label": "priceOracle",
						"offset": 0,
						"slot": "2",
						"type": "t_contract(IPriceOracle)44"
					},
					{
						"astId": 69,
						"contract": "contracts/memebank.sol:MemecoinLendingBorrowing",
						"label": "users",
						"offset": 0,
						"slot": "3",
						"type": "t_mapping(t_address,t_struct(UserData)64_storage)"
					},
					{
						"astId": 72,
						"contract": "contracts/memebank.sol:MemecoinLendingBorrowing",
						"label": "interestRate",
						"offset": 0,
						"slot": "4",
						"type": "t_uint256"
					},
					{
						"astId": 75,
						"contract": "contracts/memebank.sol:MemecoinLendingBorrowing",
						"label": "lendingInterestRate",
						"offset": 0,
						"slot": "5",
						"type": "t_uint256"
					},
					{
						"astId": 78,
						"contract": "contracts/memebank.sol:MemecoinLendingBorrowing",
						"label": "collateralizationRatio",
						"offset": 0,
						"slot": "6",
						"type": "t_uint256"
					},
					{
						"astId": 81,
						"contract": "contracts/memebank.sol:MemecoinLendingBorrowing",
						"label": "liquidationRatio",
						"offset": 0,
						"slot": "7",
						"type": "t_uint256"
					},
					{
						"astId": 83,
						"contract": "contracts/memebank.sol:MemecoinLendingBorrowing",
						"label": "totalStableDeposits",
						"offset": 0,
						"slot": "8",
						"type": "t_uint256"
					},
					{
						"astId": 85,
						"contract": "contracts/memebank.sol:MemecoinLendingBorrowing",
						"label": "owner",
						"offset": 0,
						"slot": "9",
						"type": "t_address"
					}
				],
				"types": {
					"t_address": {
						"encoding": "inplace",
						"label": "address",
						"numberOfBytes": "20"
					},
					"t_contract(IERC20)38": {
						"encoding": "inplace",
						"label": "contract IERC20",
						"numberOfBytes": "20"
					},
					"t_contract(IPriceOracle)44": {
						"encoding": "inplace",
						"label": "contract IPriceOracle",
						"numberOfBytes": "20"
					},
					"t_mapping(t_address,t_struct(UserData)64_storage)": {
						"encoding": "mapping",
						"key": "t_address",
						"label": "mapping(address => struct MemecoinLendingBorrowing.UserData)",
						"numberOfBytes": "32",
						"value": "t_struct(UserData)64_storage"
					},
					"t_struct(UserData)64_storage": {
						"encoding": "inplace",
						"label": "struct MemecoinLendingBorrowing.UserData",
						"members": [
							{
								"astId": 55,
								"contract": "contracts/memebank.sol:MemecoinLendingBorrowing",
								"label": "collateralAmount",
								"offset": 0,
								"slot": "0",
								"type": "t_uint256"
							},
							{
								"astId": 57,
								"contract": "contracts/memebank.sol:MemecoinLendingBorrowing",
								"label": "borrowedAmount",
								"offset": 0,
								"slot": "1",
								"type": "t_uint256"
							},
							{
								"astId": 59,
								"contract": "contracts/memebank.sol:MemecoinLendingBorrowing",
								"label": "borrowTimestamp",
								"offset": 0,
								"slot": "2",
								"type": "t_uint256"
							},
							{
								"astId": 61,
								"contract": "contracts/memebank.sol:MemecoinLendingBorrowing",
								"label": "stabledDeposited",
								"offset": 0,
								"slot": "3",
								"type": "t_uint256"
							},
							{
								"astId": 63,
								"contract": "contracts/memebank.sol:MemecoinLendingBorrowing",
								"label": "depositTimestamp",
								"offset": 0,
								"slot": "4",
								"type": "t_uint256"
							}
						],
						"numberOfBytes": "160"
					},
					"t_uint256": {
						"encoding": "inplace",
						"label": "uint256",
						"numberOfBytes": "32"
					}
				}
			},
			"userdoc": {
				"kind": "user",
				"methods": {},
				"version": 1
			}
		}
	}
}