{
	"data": {
		"bytecode": {
			"linkReferences": {},
			"object": "6080604052600a600655600860075560a660085560966009556014600d55610e1060105534801561002f57600080fd5b5060405161218938038061218983398101604081905261004e9161012f565b338061007457604051631e4fbdf760e01b81526000600482015260240160405180910390fd5b61007d816100c3565b50600180546001600160a01b03199081166001600160a01b039687161790915560028054821694861694909417909355600380549093169190931617905560045561017a565b600080546001600160a01b038381166001600160a01b0319831681178455604051919092169283917f8be0079c531659141344cd1fd0a4f28419497f9722a3daafe3b4186f6b6457e09190a35050565b80516001600160a01b038116811461012a57600080fd5b919050565b6000806000806080858703121561014557600080fd5b61014e85610113565b935061015c60208601610113565b925061016a60408601610113565b6060959095015193969295505050565b612000806101896000396000f3fe608060405234801561001057600080fd5b506004361061021c5760003560e01c8063975b866211610125578063c880f83e116100ad578063ea0706201161007c578063ea070620146104cd578063f2fde38b146104e0578063f3038e74146104f3578063f9f65de514610506578063ffeb3b851461051957600080fd5b8063c880f83e146104a0578063dcaf9c44146104a9578063e57cbeb4146104b2578063e9cbd822146104ba57600080fd5b8063a87430ba116100f4578063a87430ba146103fa578063ab7b1c891461045f578063b79c54a814610472578063bad4a01f1461047a578063c041bc361461048d57600080fd5b8063975b8662146103b857806397904e42146103c15780639e09a844146103d4578063a0c5cef3146103e757600080fd5b80632f865568116101a8578063800437d211610177578063800437d2146103405780638325a1c01461035d5780638736ec47146103665780638da5cb5b1461037957806393b5e9931461038a57600080fd5b80632f865568146102bd578063715018a6146102d0578063758f9c1b146102d85780637f4e8ee81461033757600080fd5b80631775765f116101ef5780631775765f1461026e5780631a37ea111461027757806325712bde146102a257806329ffadd0146102ab5780632bcfaa80146102b457600080fd5b80630ad7d67d146102215780630fcfb0591461023657806314bcec9f1461024957806316871f0f14610265575b600080fd5b61023461022f366004611a92565b61053b565b005b610234610244366004611a92565b61080c565b610252600f5481565b6040519081526020015b60405180910390f35b610252600e5481565b61025260095481565b60015461028a906001600160a01b031681565b6040516001600160a01b03909116815260200161025c565b61025260045481565b61025260075481565b61025260105481565b6102346102cb366004611aab565b610950565b610234610b25565b6102eb6102e6366004611aab565b610b39565b60405161025c9190600060c082019050825182526020830151602083015260408301516040830152606083015160608301526080830151608083015260a083015160a083015292915050565b610252600c5481565b600b5461034d9060ff1681565b604051901515815260200161025c565b61025260065481565b610252610374366004611ad4565b610c4f565b6000546001600160a01b031661028a565b61039d610398366004611aab565b610f08565b6040805193845260208401929092529082015260600161025c565b610252600d5481565b6102526103cf366004611aab565b610fce565b6102526103e2366004611aab565b61101b565b6102526103f5366004611aab565b61108f565b610437610408366004611aab565b600560205260009081526040902080546001820154600283015460038401546004909401549293919290919085565b604080519586526020860194909452928401919091526060830152608082015260a00161025c565b61023461046d366004611a92565b6110e7565b610252611282565b610234610488366004611a92565b611335565b61023461049b366004611a92565b611448565b610252600a5481565b61025260085481565b61023461167b565b60025461028a906001600160a01b031681565b6102346104db366004611b48565b6116b8565b6102346104ee366004611aab565b61170b565b610234610501366004611a92565b611749565b610234610514366004611b48565b6117e5565b61052c610527366004611aab565b61185c565b60405161025c93929190611b6a565b33600090815260056020526040902060038101546105945760405162461bcd60e51b8152602060048201526011602482015270139bc819195c1bdcda5d1cc8199bdd5b99607a1b60448201526064015b60405180910390fd5b600061059f3361108f565b905060008183600301546105b39190611bdc565b9050808411156105fc5760405162461bcd60e51b8152602060048201526014602482015273496e73756666696369656e742062616c616e636560601b604482015260640161058b565b6002546040516370a0823160e01b81523060048201526001600160a01b03909116906370a0823190602401602060405180830381865afa158015610644573d6000803e3d6000fd5b505050506040513d601f19601f820116820180604052508101906106689190611bef565b8411156106b75760405162461bcd60e51b815260206004820152601f60248201527f436f6e74726163742068617320696e73756666696369656e742066756e647300604482015260640161058b565b8084036106ea5760006003840181905560048401819055600a805482906106df908290611c08565b909155506107399050565b6000836003015485116106fd5784610703565b83600301545b9050808460030160008282546107199190611c08565b9250508190555080600a60008282546107329190611c08565b9091555050505b60025460405163a9059cbb60e01b8152336004820152602481018690526001600160a01b039091169063a9059cbb906044016020604051808303816000875af115801561078a573d6000803e3d6000fd5b505050506040513d601f19601f820116820180604052508101906107ae9190611c1b565b6107ca5760405162461bcd60e51b815260040161058b90611c3d565b604080518581526020810184905233917facfca0845eda0bcbd22737cb8526cda0fb6e3deeac93ede1ecb1fabec14843fc91015b60405180910390a250505050565b6000811161082c5760405162461bcd60e51b815260040161058b90611c66565b6002546040516323b872dd60e01b8152336004820152306024820152604481018390526001600160a01b03909116906323b872dd906064016020604051808303816000875af1158015610883573d6000803e3d6000fd5b505050506040513d601f19601f820116820180604052508101906108a79190611c1b565b6108c35760405162461bcd60e51b815260040161058b90611c3d565b33600090815260056020526040812060038101549091036108e5574260048201555b818160030160008282546108f99190611bdc565b9250508190555081600a60008282546109129190611bdc565b909155505060405182815233907f72bcd92218a56686cd2892adc5b472dd4e131f58ba98e7a05a28b34ca44be5d39060200160405180910390a25050565b6001600160a01b03811660009081526005602052604081209061097283610fce565b9050600061097f8461101b565b836001015461098e9190611bdc565b905060006064600954836109a29190611c9d565b6109ac9190611cb4565b90508083106109fd5760405162461bcd60e51b815260206004820152601960248201527f506f736974696f6e206e6f74206c6971756964617461626c6500000000000000604482015260640161058b565b8354600090610a0e90600290611cb4565b905080856000016000828254610a249190611c08565b90915550506001546001600160a01b031663a9059cbb610a4c6000546001600160a01b031690565b6040516001600160e01b031960e084901b1681526001600160a01b039091166004820152602481018490526044016020604051808303816000875af1158015610a99573d6000803e3d6000fd5b505050506040513d601f19601f82011682018060405250810190610abd9190611c1b565b610ad95760405162461bcd60e51b815260040161058b90611c3d565b60408051828152602081018590526001600160a01b038816917f09c223cfcd8c93e245f558f5f8de755fc0930fd9bc257441155ef5d54a170e0f910160405180910390a2505050505050565b610b2d6119ce565b610b3760006119fb565b565b610b726040518060c001604052806000815260200160008152602001600081526020016000815260200160008152602001600081525090565b6001600160a01b03821660009081526005602052604090206001810154610bcc5760405162461bcd60e51b815260206004820152600e60248201526d27379030b1ba34bb32903637b0b760911b604482015260640161058b565b6000816002015442610bde9190611c08565b90506000610bef6201518083611cb4565b90506000610bfc8661101b565b90506040518060c0016040528085600101548152602001828152602001828660010154610c299190611bdc565b815260200160065481526020018381526020018560020154815250945050505050919050565b6000610c596119ce565b600354604051632ce81dbd60e21b81526000916001600160a01b03169063b3a076f490610c8c9087908790600401611cd6565b6000604051808303816000875af1158015610cab573d6000803e3d6000fd5b505050506040513d6000823e601f3d908101601f19168201604052610cd39190810190611df8565b90506000805b825151811015610e05576004548351805183908110610cfa57610cfa611ec1565b602002602001015103610dfd5782602001518181518110610d1d57610d1d611ec1565b60200260200101519150601283604001518281518110610d3f57610d3f611ec1565b60200260200101511015610d935782604001518181518110610d6357610d63611ec1565b60200260200101516012610d779190611c08565b610d8290600a611fbe565b610d8c9083611c9d565b9150610e05565b601283604001518281518110610dab57610dab611ec1565b60200260200101511115610df857601283604001518281518110610dd157610dd1611ec1565b6020026020010151610de39190611c08565b610dee90600a611fbe565b610d8c9083611cb4565b610e05565b600101610cd9565b5060008111610e565760405162461bcd60e51b815260206004820152601d60248201527f5072696365206e6f7420666f756e6420696e2070726f6f662064617461000000604482015260640161058b565b600e5415610ec2576000610e6c600e5483611a4b565b9050600d54811115610ec05760405162461bcd60e51b815260206004820152601860248201527f507269636520646576696174696f6e20746f6f20686967680000000000000000604482015260640161058b565b505b600e81905542600f556040518181527f66cbca4f3c64fecf1dcb9ce094abcf7f68c3450a1d4e3a8e917dd621edb4ebe09060200160405180910390a19150505b92915050565b6001600160a01b0381166000908152600560205260408120600181015482918291610f665760405162461bcd60e51b815260206004820152600e60248201526d27379030b1ba34bb32903637b0b760911b604482015260640161058b565b610f6f85610fce565b92506064610f7e84603c611c9d565b610f889190611cb4565b91506000610f958661101b565b8260010154610fa49190611bdc565b905082811115610fbf57610fb88382611c08565b9450610fc4565b600094505b50505b9193909250565b600080610fd9611282565b6001600160a01b038416600090815260056020526040902054909150670de0b6b3a76400009061100a908390611c9d565b6110149190611cb4565b9392505050565b6001600160a01b0381166000908152600560205260408120600181015482036110475750600092915050565b60008160020154426110599190611c08565b905063bbf81e008160065484600101546110739190611c9d565b61107d9190611c9d565b6110879190611cb4565b949350505050565b6001600160a01b0381166000908152600560205260408120600381015482036110bb5750600092915050565b60008160040154426110cd9190611c08565b905063bbf81e008160075484600301546110739190611c9d565b336000818152600560205260408120916111009061101b565b826001015461110f9190611bdc565b9050808311156111615760405162461bcd60e51b815260206004820152601960248201527f526570617920616d6f756e742065786365656473206465627400000000000000604482015260640161058b565b600083116111815760405162461bcd60e51b815260040161058b90611c66565b6002546040516323b872dd60e01b8152336004820152306024820152604481018590526001600160a01b03909116906323b872dd906064016020604051808303816000875af11580156111d8573d6000803e3d6000fd5b505050506040513d601f19601f820116820180604052508101906111fc9190611c1b565b6112185760405162461bcd60e51b815260040161058b90611c3d565b808303611232576000600183018190556002830155611248565b61123c8382611c08565b60018301554260028301555b60405183815233907fc200a1f31dd659e356e0f112c82558e25f49f7b0f84438691cd96f5cb35588239060200160405180910390a2505050565b600b5460009060ff16156112975750600c5490565b6000600f54116112e15760405162461bcd60e51b8152602060048201526015602482015274141c9a58d9481b9bdd081a5b9a5d1a585b1a5e9959605a1b604482015260640161058b565b601054600f546112f19042611c08565b1061132e5760405162461bcd60e51b815260206004820152600d60248201526c141c9a58d9481d1bdbc81bdb19609a1b604482015260640161058b565b50600e5490565b600081116113555760405162461bcd60e51b815260040161058b90611c66565b6001546040516323b872dd60e01b8152336004820152306024820152604481018390526001600160a01b03909116906323b872dd906064016020604051808303816000875af11580156113ac573d6000803e3d6000fd5b505050506040513d601f19601f820116820180604052508101906113d09190611c1b565b6113ec5760405162461bcd60e51b815260040161058b90611c3d565b336000908152600560205260408120805483929061140b908490611bdc565b909155505060405181815233907fd7243f6f8212d5188fd054141cf6ea89cfc0d91facb8c3afe2f88a13584801429060200160405180910390a250565b6002546040516370a0823160e01b815230600482015282916001600160a01b0316906370a0823190602401602060405180830381865afa158015611490573d6000803e3d6000fd5b505050506040513d601f19601f820116820180604052508101906114b49190611bef565b10156115025760405162461bcd60e51b815260206004820152601e60248201527f496e73756666696369656e74206c656e64696e67206c69717569646974790000604482015260640161058b565b600061150d33610fce565b90506000606461151e83603c611c9d565b6115289190611cb4565b9050808311156115895760405162461bcd60e51b815260206004820152602660248201527f426f72726f7720616d6f756e74206578636565647320636f6c6c61746572616c604482015265081b1a5b5a5d60d21b606482015260840161058b565b336000908152600560205260408120426002820155600181018054919286926115b3908490611bdc565b909155505060025460405163a9059cbb60e01b8152336004820152602481018690526001600160a01b039091169063a9059cbb906044016020604051808303816000875af1158015611609573d6000803e3d6000fd5b505050506040513d601f19601f8201168201806040525081019061162d9190611c1b565b6116495760405162461bcd60e51b815260040161058b90611c3d565b60405184815233907f8412c29da21aa433ef5a58b426e1a0a97689471947dd559e72c5a8953bd5e9f5906020016107fe565b6116836119ce565b600b805460ff191690556040517fa012f7abfa2811abca58203ddd73cafe86ff7fa05fc1fb82646bfa00081c774190600090a1565b6116c06119ce565b8082116117005760405162461bcd60e51b815260206004820152600e60248201526d496e76616c696420726174696f7360901b604482015260640161058b565b600891909155600955565b6117136119ce565b6001600160a01b03811661173d57604051631e4fbdf760e01b81526000600482015260240161058b565b611746816119fb565b50565b6117516119ce565b600081116117915760405162461bcd60e51b815260206004820152600d60248201526c496e76616c696420707269636560981b604482015260640161058b565b600c819055600b805460ff19166001179055600e8190556040517fefdb515cbc08d8da442b74da4e9c0095dabf6b77f1c491390e15c92cde055258906117da9083815260200190565b60405180910390a150565b6117ed6119ce565b8082116118515760405162461bcd60e51b815260206004820152602c60248201527f426f72726f772072617465206d75737420626520686967686572207468616e2060448201526b6c656e64696e67207261746560a01b606482015260840161058b565b600691909155600755565b6001600160a01b03811660009081526005602052604081206001810154829160609183036118b757505060408051808201909152600e81526d27379030b1ba34bb32903637b0b760911b602082015260009250829150610fc7565b60006118c286610b39565b905060006118cf87610fce565b90506000606460095484604001516118e79190611c9d565b6118f19190611cb4565b90506060600082841061197a57604051806040016040528060078152602001664865616c74687960c81b8152509150828411156119755760006119348486611c08565b90506000618e94600654896001015461194d9190611c9d565b6119579190611cb4565b90506119638183611cb4565b6119709062015180611c9d565b925050505b6119ac565b505060408051808201909152601681527520ba103934b9b59037b3103634b8bab4b230ba34b7b760511b602082015260005b60408501516119bb8242611bdc565b909b909a50919850909650505050505050565b6000546001600160a01b03163314610b375760405163118cdaa760e01b815233600482015260240161058b565b600080546001600160a01b038381166001600160a01b0319831681178455604051919092169283917f8be0079c531659141344cd1fd0a4f28419497f9722a3daafe3b4186f6b6457e09190a35050565b600081831115611a7c5782611a608382611c08565b611a6b906064611c9d565b611a759190611cb4565b9050610f02565b82611a878184611c08565b61100a906064611c9d565b600060208284031215611aa457600080fd5b5035919050565b600060208284031215611abd57600080fd5b81356001600160a01b038116811461101457600080fd5b60008060208385031215611ae757600080fd5b823567ffffffffffffffff811115611afe57600080fd5b8301601f81018513611b0f57600080fd5b803567ffffffffffffffff811115611b2657600080fd5b856020828401011115611b3857600080fd5b6020919091019590945092505050565b60008060408385031215611b5b57600080fd5b50508035926020909101359150565b838152826020820152606060408201526000825180606084015260005b81811015611ba45760208186018101516080868401015201611b87565b506000608082850101526080601f19601f830116840101915050949350505050565b634e487b7160e01b600052601160045260246000fd5b80820180821115610f0257610f02611bc6565b600060208284031215611c0157600080fd5b5051919050565b81810381811115610f0257610f02611bc6565b600060208284031215611c2d57600080fd5b8151801515811461101457600080fd5b6020808252600f908201526e151c985b9cd9995c8819985a5b1959608a1b604082015260600190565b6020808252601d908201527f416d6f756e74206d7573742062652067726561746572207468616e2030000000604082015260600190565b8082028115828204841417610f0257610f02611bc6565b600082611cd157634e487b7160e01b600052601260045260246000fd5b500490565b60208152816020820152818360408301376000818301604090810191909152601f909201601f19160101919050565b634e487b7160e01b600052604160045260246000fd5b6040516060810167ffffffffffffffff81118282101715611d3e57611d3e611d05565b60405290565b604051601f8201601f1916810167ffffffffffffffff81118282101715611d6d57611d6d611d05565b604052919050565b600082601f830112611d8657600080fd5b815167ffffffffffffffff811115611da057611da0611d05565b8060051b611db060208201611d44565b91825260208185018101929081019086841115611dcc57600080fd5b6020860192505b83831015611dee578251825260209283019290910190611dd3565b9695505050505050565b600060208284031215611e0a57600080fd5b815167ffffffffffffffff811115611e2157600080fd5b820160608185031215611e3357600080fd5b611e3b611d1b565b815167ffffffffffffffff811115611e5257600080fd5b611e5e86828501611d75565b825250602082015167ffffffffffffffff811115611e7b57600080fd5b611e8786828501611d75565b602083015250604082015167ffffffffffffffff811115611ea757600080fd5b611eb386828501611d75565b604083015250949350505050565b634e487b7160e01b600052603260045260246000fd5b6001815b6001841115611f1257808504811115611ef657611ef6611bc6565b6001841615611f0457908102905b60019390931c928002611edb565b935093915050565b600082611f2957506001610f02565b81611f3657506000610f02565b8160018114611f4c5760028114611f5657611f72565b6001915050610f02565b60ff841115611f6757611f67611bc6565b50506001821b610f02565b5060208310610133831016604e8410600b8410161715611f95575081810a610f02565b611fa26000198484611ed7565b8060001904821115611fb657611fb6611bc6565b029392505050565b60006110148383611f1a56fea26469706673582212205f2df9d37ce66b724586d52a834803b0d87eab0a03b93b1ff443954f67c0a0ab64736f6c634300081c0033",
			"opcodes": "PUSH1 0x80 PUSH1 0x40 MSTORE PUSH1 0xA PUSH1 0x6 SSTORE PUSH1 0x8 PUSH1 0x7 SSTORE PUSH1 0xA6 PUSH1 0x8 SSTORE PUSH1 0x96 PUSH1 0x9 SSTORE PUSH1 0x14 PUSH1 0xD SSTORE PUSH2 0xE10 PUSH1 0x10 SSTORE CALLVALUE DUP1 ISZERO PUSH2 0x2F JUMPI PUSH1 0x0 DUP1 REVERT JUMPDEST POP PUSH1 0x40 MLOAD PUSH2 0x2189 CODESIZE SUB DUP1 PUSH2 0x2189 DUP4 CODECOPY DUP2 ADD PUSH1 0x40 DUP2 SWAP1 MSTORE PUSH2 0x4E SWAP2 PUSH2 0x12F JUMP JUMPDEST CALLER DUP1 PUSH2 0x74 JUMPI PUSH1 0x40 MLOAD PUSH4 0x1E4FBDF7 PUSH1 0xE0 SHL DUP2 MSTORE PUSH1 0x0 PUSH1 0x4 DUP3 ADD MSTORE PUSH1 0x24 ADD PUSH1 0x40 MLOAD DUP1 SWAP2 SUB SWAP1 REVERT JUMPDEST PUSH2 0x7D DUP2 PUSH2 0xC3 JUMP JUMPDEST POP PUSH1 0x1 DUP1 SLOAD PUSH1 0x1 PUSH1 0x1 PUSH1 0xA0 SHL SUB NOT SWAP1 DUP2 AND PUSH1 0x1 PUSH1 0x1 PUSH1 0xA0 SHL SUB SWAP7 DUP8 AND OR SWAP1 SWAP2 SSTORE PUSH1 0x2 DUP1 SLOAD DUP3 AND SWAP5 DUP7 AND SWAP5 SWAP1 SWAP5 OR SWAP1 SWAP4 SSTORE PUSH1 0x3 DUP1 SLOAD SWAP1 SWAP4 AND SWAP2 SWAP1 SWAP4 AND OR SWAP1 SSTORE PUSH1 0x4 SSTORE PUSH2 0x17A JUMP JUMPDEST PUSH1 0x0 DUP1 SLOAD PUSH1 0x1 PUSH1 0x1 PUSH1 0xA0 SHL SUB DUP4 DUP2 AND PUSH1 0x1 PUSH1 0x1 PUSH1 0xA0 SHL SUB NOT DUP4 AND DUP2 OR DUP5 SSTORE PUSH1 0x40 MLOAD SWAP2 SWAP1 SWAP3 AND SWAP3 DUP4 SWAP2 PUSH32 0x8BE0079C531659141344CD1FD0A4F28419497F9722A3DAAFE3B4186F6B6457E0 SWAP2 SWAP1 LOG3 POP POP JUMP JUMPDEST DUP1 MLOAD PUSH1 0x1 PUSH1 0x1 PUSH1 0xA0 SHL SUB DUP2 AND DUP2 EQ PUSH2 0x12A JUMPI PUSH1 0x0 DUP1 REVERT JUMPDEST SWAP2 SWAP1 POP JUMP JUMPDEST PUSH1 0x0 DUP1 PUSH1 0x0 DUP1 PUSH1 0x80 DUP6 DUP8 SUB SLT ISZERO PUSH2 0x145 JUMPI PUSH1 0x0 DUP1 REVERT JUMPDEST PUSH2 0x14E DUP6 PUSH2 0x113 JUMP JUMPDEST SWAP4 POP PUSH2 0x15C PUSH1 0x20 DUP7 ADD PUSH2 0x113 JUMP JUMPDEST SWAP3 POP PUSH2 0x16A PUSH1 0x40 DUP7 ADD PUSH2 0x113 JUMP JUMPDEST PUSH1 0x60 SWAP6 SWAP1 SWAP6 ADD MLOAD SWAP4 SWAP7 SWAP3 SWAP6 POP POP POP JUMP JUMPDEST PUSH2 0x2000 DUP1 PUSH2 0x189 PUSH1 0x0 CODECOPY PUSH1 0x0 RETURN INVALID PUSH1 0x80 PUSH1 0x40 MSTORE CALLVALUE DUP1 ISZERO PUSH2 0x10 JUMPI PUSH1 0x0 DUP1 REVERT JUMPDEST POP PUSH1 0x4 CALLDATASIZE LT PUSH2 0x21C JUMPI PUSH1 0x0 CALLDATALOAD PUSH1 0xE0 SHR DUP1 PUSH4 0x975B8662 GT PUSH2 0x125 JUMPI DUP1 PUSH4 0xC880F83E GT PUSH2 0xAD JUMPI DUP1 PUSH4 0xEA070620 GT PUSH2 0x7C JUMPI DUP1 PUSH4 0xEA070620 EQ PUSH2 0x4CD JUMPI DUP1 PUSH4 0xF2FDE38B EQ PUSH2 0x4E0 JUMPI DUP1 PUSH4 0xF3038E74 EQ PUSH2 0x4F3 JUMPI DUP1 PUSH4 0xF9F65DE5 EQ PUSH2 0x506 JUMPI DUP1 PUSH4 0xFFEB3B85 EQ PUSH2 0x519 JUMPI PUSH1 0x0 DUP1 REVERT JUMPDEST DUP1 PUSH4 0xC880F83E EQ PUSH2 0x4A0 JUMPI DUP1 PUSH4 0xDCAF9C44 EQ PUSH2 0x4A9 JUMPI DUP1 PUSH4 0xE57CBEB4 EQ PUSH2 0x4B2 JUMPI DUP1 PUSH4 0xE9CBD822 EQ PUSH2 0x4BA JUMPI PUSH1 0x0 DUP1 REVERT JUMPDEST DUP1 PUSH4 0xA87430BA GT PUSH2 0xF4 JUMPI DUP1 PUSH4 0xA87430BA EQ PUSH2 0x3FA JUMPI DUP1 PUSH4 0xAB7B1C89 EQ PUSH2 0x45F JUMPI DUP1 PUSH4 0xB79C54A8 EQ PUSH2 0x472 JUMPI DUP1 PUSH4 0xBAD4A01F EQ PUSH2 0x47A JUMPI DUP1 PUSH4 0xC041BC36 EQ PUSH2 0x48D JUMPI PUSH1 0x0 DUP1 REVERT JUMPDEST DUP1 PUSH4 0x975B8662 EQ PUSH2 0x3B8 JUMPI DUP1 PUSH4 0x97904E42 EQ PUSH2 0x3C1 JUMPI DUP1 PUSH4 0x9E09A844 EQ PUSH2 0x3D4 JUMPI DUP1 PUSH4 0xA0C5CEF3 EQ PUSH2 0x3E7 JUMPI PUSH1 0x0 DUP1 REVERT JUMPDEST DUP1 PUSH4 0x2F865568 GT PUSH2 0x1A8 JUMPI DUP1 PUSH4 0x800437D2 GT PUSH2 0x177 JUMPI DUP1 PUSH4 0x800437D2 EQ PUSH2 0x340 JUMPI DUP1 PUSH4 0x8325A1C0 EQ PUSH2 0x35D JUMPI DUP1 PUSH4 0x8736EC47 EQ PUSH2 0x366 JUMPI DUP1 PUSH4 0x8DA5CB5B EQ PUSH2 0x379 JUMPI DUP1 PUSH4 0x93B5E993 EQ PUSH2 0x38A JUMPI PUSH1 0x0 DUP1 REVERT JUMPDEST DUP1 PUSH4 0x2F865568 EQ PUSH2 0x2BD JUMPI DUP1 PUSH4 0x715018A6 EQ PUSH2 0x2D0 JUMPI DUP1 PUSH4 0x758F9C1B EQ PUSH2 0x2D8 JUMPI DUP1 PUSH4 0x7F4E8EE8 EQ PUSH2 0x337 JUMPI PUSH1 0x0 DUP1 REVERT JUMPDEST DUP1 PUSH4 0x1775765F GT PUSH2 0x1EF JUMPI DUP1 PUSH4 0x1775765F EQ PUSH2 0x26E JUMPI DUP1 PUSH4 0x1A37EA11 EQ PUSH2 0x277 JUMPI DUP1 PUSH4 0x25712BDE EQ PUSH2 0x2A2 JUMPI DUP1 PUSH4 0x29FFADD0 EQ PUSH2 0x2AB JUMPI DUP1 PUSH4 0x2BCFAA80 EQ PUSH2 0x2B4 JUMPI PUSH1 0x0 DUP1 REVERT JUMPDEST DUP1 PUSH4 0xAD7D67D EQ PUSH2 0x221 JUMPI DUP1 PUSH4 0xFCFB059 EQ PUSH2 0x236 JUMPI DUP1 PUSH4 0x14BCEC9F EQ PUSH2 0x249 JUMPI DUP1 PUSH4 0x16871F0F EQ PUSH2 0x265 JUMPI JUMPDEST PUSH1 0x0 DUP1 REVERT JUMPDEST PUSH2 0x234 PUSH2 0x22F CALLDATASIZE PUSH1 0x4 PUSH2 0x1A92 JUMP JUMPDEST PUSH2 0x53B JUMP JUMPDEST STOP JUMPDEST PUSH2 0x234 PUSH2 0x244 CALLDATASIZE PUSH1 0x4 PUSH2 0x1A92 JUMP JUMPDEST PUSH2 0x80C JUMP JUMPDEST PUSH2 0x252 PUSH1 0xF SLOAD DUP2 JUMP JUMPDEST PUSH1 0x40 MLOAD SWAP1 DUP2 MSTORE PUSH1 0x20 ADD JUMPDEST PUSH1 0x40 MLOAD DUP1 SWAP2 SUB SWAP1 RETURN JUMPDEST PUSH2 0x252 PUSH1 0xE SLOAD DUP2 JUMP JUMPDEST PUSH2 0x252 PUSH1 0x9 SLOAD DUP2 JUMP JUMPDEST PUSH1 0x1 SLOAD PUSH2 0x28A SWAP1 PUSH1 0x1 PUSH1 0x1 PUSH1 0xA0 SHL SUB AND DUP2 JUMP JUMPDEST PUSH1 0x40 MLOAD PUSH1 0x1 PUSH1 0x1 PUSH1 0xA0 SHL SUB SWAP1 SWAP2 AND DUP2 MSTORE PUSH1 0x20 ADD PUSH2 0x25C JUMP JUMPDEST PUSH2 0x252 PUSH1 0x4 SLOAD DUP2 JUMP JUMPDEST PUSH2 0x252 PUSH1 0x7 SLOAD DUP2 JUMP JUMPDEST PUSH2 0x252 PUSH1 0x10 SLOAD DUP2 JUMP JUMPDEST PUSH2 0x234 PUSH2 0x2CB CALLDATASIZE PUSH1 0x4 PUSH2 0x1AAB JUMP JUMPDEST PUSH2 0x950 JUMP JUMPDEST PUSH2 0x234 PUSH2 0xB25 JUMP JUMPDEST PUSH2 0x2EB PUSH2 0x2E6 CALLDATASIZE PUSH1 0x4 PUSH2 0x1AAB JUMP JUMPDEST PUSH2 0xB39 JUMP JUMPDEST PUSH1 0x40 MLOAD PUSH2 0x25C SWAP2 SWAP1 PUSH1 0x0 PUSH1 0xC0 DUP3 ADD SWAP1 POP DUP3 MLOAD DUP3 MSTORE PUSH1 0x20 DUP4 ADD MLOAD PUSH1 0x20 DUP4 ADD MSTORE PUSH1 0x40 DUP4 ADD MLOAD PUSH1 0x40 DUP4 ADD MSTORE PUSH1 0x60 DUP4 ADD MLOAD PUSH1 0x60 DUP4 ADD MSTORE PUSH1 0x80 DUP4 ADD MLOAD PUSH1 0x80 DUP4 ADD MSTORE PUSH1 0xA0 DUP4 ADD MLOAD PUSH1 0xA0 DUP4 ADD MSTORE SWAP3 SWAP2 POP POP JUMP JUMPDEST PUSH2 0x252 PUSH1 0xC SLOAD DUP2 JUMP JUMPDEST PUSH1 0xB SLOAD PUSH2 0x34D SWAP1 PUSH1 0xFF AND DUP2 JUMP JUMPDEST PUSH1 0x40 MLOAD SWAP1 ISZERO ISZERO DUP2 MSTORE PUSH1 0x20 ADD PUSH2 0x25C JUMP JUMPDEST PUSH2 0x252 PUSH1 0x6 SLOAD DUP2 JUMP JUMPDEST PUSH2 0x252 PUSH2 0x374 CALLDATASIZE PUSH1 0x4 PUSH2 0x1AD4 JUMP JUMPDEST PUSH2 0xC4F JUMP JUMPDEST PUSH1 0x0 SLOAD PUSH1 0x1 PUSH1 0x1 PUSH1 0xA0 SHL SUB AND PUSH2 0x28A JUMP JUMPDEST PUSH2 0x39D PUSH2 0x398 CALLDATASIZE PUSH1 0x4 PUSH2 0x1AAB JUMP JUMPDEST PUSH2 0xF08 JUMP JUMPDEST PUSH1 0x40 DUP1 MLOAD SWAP4 DUP5 MSTORE PUSH1 0x20 DUP5 ADD SWAP3 SWAP1 SWAP3 MSTORE SWAP1 DUP3 ADD MSTORE PUSH1 0x60 ADD PUSH2 0x25C JUMP JUMPDEST PUSH2 0x252 PUSH1 0xD SLOAD DUP2 JUMP JUMPDEST PUSH2 0x252 PUSH2 0x3CF CALLDATASIZE PUSH1 0x4 PUSH2 0x1AAB JUMP JUMPDEST PUSH2 0xFCE JUMP JUMPDEST PUSH2 0x252 PUSH2 0x3E2 CALLDATASIZE PUSH1 0x4 PUSH2 0x1AAB JUMP JUMPDEST PUSH2 0x101B JUMP JUMPDEST PUSH2 0x252 PUSH2 0x3F5 CALLDATASIZE PUSH1 0x4 PUSH2 0x1AAB JUMP JUMPDEST PUSH2 0x108F JUMP JUMPDEST PUSH2 0x437 PUSH2 0x408 CALLDATASIZE PUSH1 0x4 PUSH2 0x1AAB JUMP JUMPDEST PUSH1 0x5 PUSH1 0x20 MSTORE PUSH1 0x0 SWAP1 DUP2 MSTORE PUSH1 0x40 SWAP1 KECCAK256 DUP1 SLOAD PUSH1 0x1 DUP3 ADD SLOAD PUSH1 0x2 DUP4 ADD SLOAD PUSH1 0x3 DUP5 ADD SLOAD PUSH1 0x4 SWAP1 SWAP5 ADD SLOAD SWAP3 SWAP4 SWAP2 SWAP3 SWAP1 SWAP2 SWAP1 DUP6 JUMP JUMPDEST PUSH1 0x40 DUP1 MLOAD SWAP6 DUP7 MSTORE PUSH1 0x20 DUP7 ADD SWAP5 SWAP1 SWAP5 MSTORE SWAP3 DUP5 ADD SWAP2 SWAP1 SWAP2 MSTORE PUSH1 0x60 DUP4 ADD MSTORE PUSH1 0x80 DUP3 ADD MSTORE PUSH1 0xA0 ADD PUSH2 0x25C JUMP JUMPDEST PUSH2 0x234 PUSH2 0x46D CALLDATASIZE PUSH1 0x4 PUSH2 0x1A92 JUMP JUMPDEST PUSH2 0x10E7 JUMP JUMPDEST PUSH2 0x252 PUSH2 0x1282 JUMP JUMPDEST PUSH2 0x234 PUSH2 0x488 CALLDATASIZE PUSH1 0x4 PUSH2 0x1A92 JUMP JUMPDEST PUSH2 0x1335 JUMP JUMPDEST PUSH2 0x234 PUSH2 0x49B CALLDATASIZE PUSH1 0x4 PUSH2 0x1A92 JUMP JUMPDEST PUSH2 0x1448 JUMP JUMPDEST PUSH2 0x252 PUSH1 0xA SLOAD DUP2 JUMP JUMPDEST PUSH2 0x252 PUSH1 0x8 SLOAD DUP2 JUMP JUMPDEST PUSH2 0x234 PUSH2 0x167B JUMP JUMPDEST PUSH1 0x2 SLOAD PUSH2 0x28A SWAP1 PUSH1 0x1 PUSH1 0x1 PUSH1 0xA0 SHL SUB AND DUP2 JUMP JUMPDEST PUSH2 0x234 PUSH2 0x4DB CALLDATASIZE PUSH1 0x4 PUSH2 0x1B48 JUMP JUMPDEST PUSH2 0x16B8 JUMP JUMPDEST PUSH2 0x234 PUSH2 0x4EE CALLDATASIZE PUSH1 0x4 PUSH2 0x1AAB JUMP JUMPDEST PUSH2 0x170B JUMP JUMPDEST PUSH2 0x234 PUSH2 0x501 CALLDATASIZE PUSH1 0x4 PUSH2 0x1A92 JUMP JUMPDEST PUSH2 0x1749 JUMP JUMPDEST PUSH2 0x234 PUSH2 0x514 CALLDATASIZE PUSH1 0x4 PUSH2 0x1B48 JUMP JUMPDEST PUSH2 0x17E5 JUMP JUMPDEST PUSH2 0x52C PUSH2 0x527 CALLDATASIZE PUSH1 0x4 PUSH2 0x1AAB JUMP JUMPDEST PUSH2 0x185C JUMP JUMPDEST PUSH1 0x40 MLOAD PUSH2 0x25C SWAP4 SWAP3 SWAP2 SWAP1 PUSH2 0x1B6A JUMP JUMPDEST CALLER PUSH1 0x0 SWAP1 DUP2 MSTORE PUSH1 0x5 PUSH1 0x20 MSTORE PUSH1 0x40 SWAP1 KECCAK256 PUSH1 0x3 DUP2 ADD SLOAD PUSH2 0x594 JUMPI PUSH1 0x40 MLOAD PUSH3 0x461BCD PUSH1 0xE5 SHL DUP2 MSTORE PUSH1 0x20 PUSH1 0x4 DUP3 ADD MSTORE PUSH1 0x11 PUSH1 0x24 DUP3 ADD MSTORE PUSH17 0x139BC819195C1BDCDA5D1CC8199BDD5B99 PUSH1 0x7A SHL PUSH1 0x44 DUP3 ADD MSTORE PUSH1 0x64 ADD JUMPDEST PUSH1 0x40 MLOAD DUP1 SWAP2 SUB SWAP1 REVERT JUMPDEST PUSH1 0x0 PUSH2 0x59F CALLER PUSH2 0x108F JUMP JUMPDEST SWAP1 POP PUSH1 0x0 DUP2 DUP4 PUSH1 0x3 ADD SLOAD PUSH2 0x5B3 SWAP2 SWAP1 PUSH2 0x1BDC JUMP JUMPDEST SWAP1 POP DUP1 DUP5 GT ISZERO PUSH2 0x5FC JUMPI PUSH1 0x40 MLOAD PUSH3 0x461BCD PUSH1 0xE5 SHL DUP2 MSTORE PUSH1 0x20 PUSH1 0x4 DUP3 ADD MSTORE PUSH1 0x14 PUSH1 0x24 DUP3 ADD MSTORE PUSH20 0x496E73756666696369656E742062616C616E6365 PUSH1 0x60 SHL PUSH1 0x44 DUP3 ADD MSTORE PUSH1 0x64 ADD PUSH2 0x58B JUMP JUMPDEST PUSH1 0x2 SLOAD PUSH1 0x40 MLOAD PUSH4 0x70A08231 PUSH1 0xE0 SHL DUP2 MSTORE ADDRESS PUSH1 0x4 DUP3 ADD MSTORE PUSH1 0x1 PUSH1 0x1 PUSH1 0xA0 SHL SUB SWAP1 SWAP2 AND SWAP1 PUSH4 0x70A08231 SWAP1 PUSH1 0x24 ADD PUSH1 0x20 PUSH1 0x40 MLOAD DUP1 DUP4 SUB DUP2 DUP7 GAS STATICCALL ISZERO DUP1 ISZERO PUSH2 0x644 JUMPI RETURNDATASIZE PUSH1 0x0 DUP1 RETURNDATACOPY RETURNDATASIZE PUSH1 0x0 REVERT JUMPDEST POP POP POP POP PUSH1 0x40 MLOAD RETURNDATASIZE PUSH1 0x1F NOT PUSH1 0x1F DUP3 ADD AND DUP3 ADD DUP1 PUSH1 0x40 MSTORE POP DUP2 ADD SWAP1 PUSH2 0x668 SWAP2 SWAP1 PUSH2 0x1BEF JUMP JUMPDEST DUP5 GT ISZERO PUSH2 0x6B7 JUMPI PUSH1 0x40 MLOAD PUSH3 0x461BCD PUSH1 0xE5 SHL DUP2 MSTORE PUSH1 0x20 PUSH1 0x4 DUP3 ADD MSTORE PUSH1 0x1F PUSH1 0x24 DUP3 ADD MSTORE PUSH32 0x436F6E74726163742068617320696E73756666696369656E742066756E647300 PUSH1 0x44 DUP3 ADD MSTORE PUSH1 0x64 ADD PUSH2 0x58B JUMP JUMPDEST DUP1 DUP5 SUB PUSH2 0x6EA JUMPI PUSH1 0x0 PUSH1 0x3 DUP5 ADD DUP2 SWAP1 SSTORE PUSH1 0x4 DUP5 ADD DUP2 SWAP1 SSTORE PUSH1 0xA DUP1 SLOAD DUP3 SWAP1 PUSH2 0x6DF SWAP1 DUP3 SWAP1 PUSH2 0x1C08 JUMP JUMPDEST SWAP1 SWAP2 SSTORE POP PUSH2 0x739 SWAP1 POP JUMP JUMPDEST PUSH1 0x0 DUP4 PUSH1 0x3 ADD SLOAD DUP6 GT PUSH2 0x6FD JUMPI DUP5 PUSH2 0x703 JUMP JUMPDEST DUP4 PUSH1 0x3 ADD SLOAD JUMPDEST SWAP1 POP DUP1 DUP5 PUSH1 0x3 ADD PUSH1 0x0 DUP3 DUP3 SLOAD PUSH2 0x719 SWAP2 SWAP1 PUSH2 0x1C08 JUMP JUMPDEST SWAP3 POP POP DUP2 SWAP1 SSTORE POP DUP1 PUSH1 0xA PUSH1 0x0 DUP3 DUP3 SLOAD PUSH2 0x732 SWAP2 SWAP1 PUSH2 0x1C08 JUMP JUMPDEST SWAP1 SWAP2 SSTORE POP POP POP JUMPDEST PUSH1 0x2 SLOAD PUSH1 0x40 MLOAD PUSH4 0xA9059CBB PUSH1 0xE0 SHL DUP2 MSTORE CALLER PUSH1 0x4 DUP3 ADD MSTORE PUSH1 0x24 DUP2 ADD DUP7 SWAP1 MSTORE PUSH1 0x1 PUSH1 0x1 PUSH1 0xA0 SHL SUB SWAP1 SWAP2 AND SWAP1 PUSH4 0xA9059CBB SWAP1 PUSH1 0x44 ADD PUSH1 0x20 PUSH1 0x40 MLOAD DUP1 DUP4 SUB DUP2 PUSH1 0x0 DUP8 GAS CALL ISZERO DUP1 ISZERO PUSH2 0x78A JUMPI RETURNDATASIZE PUSH1 0x0 DUP1 RETURNDATACOPY RETURNDATASIZE PUSH1 0x0 REVERT JUMPDEST POP POP POP POP PUSH1 0x40 MLOAD RETURNDATASIZE PUSH1 0x1F NOT PUSH1 0x1F DUP3 ADD AND DUP3 ADD DUP1 PUSH1 0x40 MSTORE POP DUP2 ADD SWAP1 PUSH2 0x7AE SWAP2 SWAP1 PUSH2 0x1C1B JUMP JUMPDEST PUSH2 0x7CA JUMPI PUSH1 0x40 MLOAD PUSH3 0x461BCD PUSH1 0xE5 SHL DUP2 MSTORE PUSH1 0x4 ADD PUSH2 0x58B SWAP1 PUSH2 0x1C3D JUMP JUMPDEST PUSH1 0x40 DUP1 MLOAD DUP6 DUP2 MSTORE PUSH1 0x20 DUP2 ADD DUP5 SWAP1 MSTORE CALLER SWAP2 PUSH32 0xACFCA0845EDA0BCBD22737CB8526CDA0FB6E3DEEAC93EDE1ECB1FABEC14843FC SWAP2 ADD JUMPDEST PUSH1 0x40 MLOAD DUP1 SWAP2 SUB SWAP1 LOG2 POP POP POP POP JUMP JUMPDEST PUSH1 0x0 DUP2 GT PUSH2 0x82C JUMPI PUSH1 0x40 MLOAD PUSH3 0x461BCD PUSH1 0xE5 SHL DUP2 MSTORE PUSH1 0x4 ADD PUSH2 0x58B SWAP1 PUSH2 0x1C66 JUMP JUMPDEST PUSH1 0x2 SLOAD PUSH1 0x40 MLOAD PUSH4 0x23B872DD PUSH1 0xE0 SHL DUP2 MSTORE CALLER PUSH1 0x4 DUP3 ADD MSTORE ADDRESS PUSH1 0x24 DUP3 ADD MSTORE PUSH1 0x44 DUP2 ADD DUP4 SWAP1 MSTORE PUSH1 0x1 PUSH1 0x1 PUSH1 0xA0 SHL SUB SWAP1 SWAP2 AND SWAP1 PUSH4 0x23B872DD SWAP1 PUSH1 0x64 ADD PUSH1 0x20 PUSH1 0x40 MLOAD DUP1 DUP4 SUB DUP2 PUSH1 0x0 DUP8 GAS CALL ISZERO DUP1 ISZERO PUSH2 0x883 JUMPI RETURNDATASIZE PUSH1 0x0 DUP1 RETURNDATACOPY RETURNDATASIZE PUSH1 0x0 REVERT JUMPDEST POP POP POP POP PUSH1 0x40 MLOAD RETURNDATASIZE PUSH1 0x1F NOT PUSH1 0x1F DUP3 ADD AND DUP3 ADD DUP1 PUSH1 0x40 MSTORE POP DUP2 ADD SWAP1 PUSH2 0x8A7 SWAP2 SWAP1 PUSH2 0x1C1B JUMP JUMPDEST PUSH2 0x8C3 JUMPI PUSH1 0x40 MLOAD PUSH3 0x461BCD PUSH1 0xE5 SHL DUP2 MSTORE PUSH1 0x4 ADD PUSH2 0x58B SWAP1 PUSH2 0x1C3D JUMP JUMPDEST CALLER PUSH1 0x0 SWAP1 DUP2 MSTORE PUSH1 0x5 PUSH1 0x20 MSTORE PUSH1 0x40 DUP2 KECCAK256 PUSH1 0x3 DUP2 ADD SLOAD SWAP1 SWAP2 SUB PUSH2 0x8E5 JUMPI TIMESTAMP PUSH1 0x4 DUP3 ADD SSTORE JUMPDEST DUP2 DUP2 PUSH1 0x3 ADD PUSH1 0x0 DUP3 DUP3 SLOAD PUSH2 0x8F9 SWAP2 SWAP1 PUSH2 0x1BDC JUMP JUMPDEST SWAP3 POP POP DUP2 SWAP1 SSTORE POP DUP2 PUSH1 0xA PUSH1 0x0 DUP3 DUP3 SLOAD PUSH2 0x912 SWAP2 SWAP1 PUSH2 0x1BDC JUMP JUMPDEST SWAP1 SWAP2 SSTORE POP POP PUSH1 0x40 MLOAD DUP3 DUP2 MSTORE CALLER SWAP1 PUSH32 0x72BCD92218A56686CD2892ADC5B472DD4E131F58BA98E7A05A28B34CA44BE5D3 SWAP1 PUSH1 0x20 ADD PUSH1 0x40 MLOAD DUP1 SWAP2 SUB SWAP1 LOG2 POP POP JUMP JUMPDEST PUSH1 0x1 PUSH1 0x1 PUSH1 0xA0 SHL SUB DUP2 AND PUSH1 0x0 SWAP1 DUP2 MSTORE PUSH1 0x5 PUSH1 0x20 MSTORE PUSH1 0x40 DUP2 KECCAK256 SWAP1 PUSH2 0x972 DUP4 PUSH2 0xFCE JUMP JUMPDEST SWAP1 POP PUSH1 0x0 PUSH2 0x97F DUP5 PUSH2 0x101B JUMP JUMPDEST DUP4 PUSH1 0x1 ADD SLOAD PUSH2 0x98E SWAP2 SWAP1 PUSH2 0x1BDC JUMP JUMPDEST SWAP1 POP PUSH1 0x0 PUSH1 0x64 PUSH1 0x9 SLOAD DUP4 PUSH2 0x9A2 SWAP2 SWAP1 PUSH2 0x1C9D JUMP JUMPDEST PUSH2 0x9AC SWAP2 SWAP1 PUSH2 0x1CB4 JUMP JUMPDEST SWAP1 POP DUP1 DUP4 LT PUSH2 0x9FD JUMPI PUSH1 0x40 MLOAD PUSH3 0x461BCD PUSH1 0xE5 SHL DUP2 MSTORE PUSH1 0x20 PUSH1 0x4 DUP3 ADD MSTORE PUSH1 0x19 PUSH1 0x24 DUP3 ADD MSTORE PUSH32 0x506F736974696F6E206E6F74206C6971756964617461626C6500000000000000 PUSH1 0x44 DUP3 ADD MSTORE PUSH1 0x64 ADD PUSH2 0x58B JUMP JUMPDEST DUP4 SLOAD PUSH1 0x0 SWAP1 PUSH2 0xA0E SWAP1 PUSH1 0x2 SWAP1 PUSH2 0x1CB4 JUMP JUMPDEST SWAP1 POP DUP1 DUP6 PUSH1 0x0 ADD PUSH1 0x0 DUP3 DUP3 SLOAD PUSH2 0xA24 SWAP2 SWAP1 PUSH2 0x1C08 JUMP JUMPDEST SWAP1 SWAP2 SSTORE POP POP PUSH1 0x1 SLOAD PUSH1 0x1 PUSH1 0x1 PUSH1 0xA0 SHL SUB AND PUSH4 0xA9059CBB PUSH2 0xA4C PUSH1 0x0 SLOAD PUSH1 0x1 PUSH1 0x1 PUSH1 0xA0 SHL SUB AND SWAP1 JUMP JUMPDEST PUSH1 0x40 MLOAD PUSH1 0x1 PUSH1 0x1 PUSH1 0xE0 SHL SUB NOT PUSH1 0xE0 DUP5 SWAP1 SHL AND DUP2 MSTORE PUSH1 0x1 PUSH1 0x1 PUSH1 0xA0 SHL SUB SWAP1 SWAP2 AND PUSH1 0x4 DUP3 ADD MSTORE PUSH1 0x24 DUP2 ADD DUP5 SWAP1 MSTORE PUSH1 0x44 ADD PUSH1 0x20 PUSH1 0x40 MLOAD DUP1 DUP4 SUB DUP2 PUSH1 0x0 DUP8 GAS CALL ISZERO DUP1 ISZERO PUSH2 0xA99 JUMPI RETURNDATASIZE PUSH1 0x0 DUP1 RETURNDATACOPY RETURNDATASIZE PUSH1 0x0 REVERT JUMPDEST POP POP POP POP PUSH1 0x40 MLOAD RETURNDATASIZE PUSH1 0x1F NOT PUSH1 0x1F DUP3 ADD AND DUP3 ADD DUP1 PUSH1 0x40 MSTORE POP DUP2 ADD SWAP1 PUSH2 0xABD SWAP2 SWAP1 PUSH2 0x1C1B JUMP JUMPDEST PUSH2 0xAD9 JUMPI PUSH1 0x40 MLOAD PUSH3 0x461BCD PUSH1 0xE5 SHL DUP2 MSTORE PUSH1 0x4 ADD PUSH2 0x58B SWAP1 PUSH2 0x1C3D JUMP JUMPDEST PUSH1 0x40 DUP1 MLOAD DUP3 DUP2 MSTORE PUSH1 0x20 DUP2 ADD DUP6 SWAP1 MSTORE PUSH1 0x1 PUSH1 0x1 PUSH1 0xA0 SHL SUB DUP9 AND SWAP2 PUSH32 0x9C223CFCD8C93E245F558F5F8DE755FC0930FD9BC257441155EF5D54A170E0F SWAP2 ADD PUSH1 0x40 MLOAD DUP1 SWAP2 SUB SWAP1 LOG2 POP POP POP POP POP POP JUMP JUMPDEST PUSH2 0xB2D PUSH2 0x19CE JUMP JUMPDEST PUSH2 0xB37 PUSH1 0x0 PUSH2 0x19FB JUMP JUMPDEST JUMP JUMPDEST PUSH2 0xB72 PUSH1 0x40 MLOAD DUP1 PUSH1 0xC0 ADD PUSH1 0x40 MSTORE DUP1 PUSH1 0x0 DUP2 MSTORE PUSH1 0x20 ADD PUSH1 0x0 DUP2 MSTORE PUSH1 0x20 ADD PUSH1 0x0 DUP2 MSTORE PUSH1 0x20 ADD PUSH1 0x0 DUP2 MSTORE PUSH1 0x20 ADD PUSH1 0x0 DUP2 MSTORE PUSH1 0x20 ADD PUSH1 0x0 DUP2 MSTORE POP SWAP1 JUMP JUMPDEST PUSH1 0x1 PUSH1 0x1 PUSH1 0xA0 SHL SUB DUP3 AND PUSH1 0x0 SWAP1 DUP2 MSTORE PUSH1 0x5 PUSH1 0x20 MSTORE PUSH1 0x40 SWAP1 KECCAK256 PUSH1 0x1 DUP2 ADD SLOAD PUSH2 0xBCC JUMPI PUSH1 0x40 MLOAD PUSH3 0x461BCD PUSH1 0xE5 SHL DUP2 MSTORE PUSH1 0x20 PUSH1 0x4 DUP3 ADD MSTORE PUSH1 0xE PUSH1 0x24 DUP3 ADD MSTORE PUSH14 0x27379030B1BA34BB32903637B0B7 PUSH1 0x91 SHL PUSH1 0x44 DUP3 ADD MSTORE PUSH1 0x64 ADD PUSH2 0x58B JUMP JUMPDEST PUSH1 0x0 DUP2 PUSH1 0x2 ADD SLOAD TIMESTAMP PUSH2 0xBDE SWAP2 SWAP1 PUSH2 0x1C08 JUMP JUMPDEST SWAP1 POP PUSH1 0x0 PUSH2 0xBEF PUSH3 0x15180 DUP4 PUSH2 0x1CB4 JUMP JUMPDEST SWAP1 POP PUSH1 0x0 PUSH2 0xBFC DUP7 PUSH2 0x101B JUMP JUMPDEST SWAP1 POP PUSH1 0x40 MLOAD DUP1 PUSH1 0xC0 ADD PUSH1 0x40 MSTORE DUP1 DUP6 PUSH1 0x1 ADD SLOAD DUP2 MSTORE PUSH1 0x20 ADD DUP3 DUP2 MSTORE PUSH1 0x20 ADD DUP3 DUP7 PUSH1 0x1 ADD SLOAD PUSH2 0xC29 SWAP2 SWAP1 PUSH2 0x1BDC JUMP JUMPDEST DUP2 MSTORE PUSH1 0x20 ADD PUSH1 0x6 SLOAD DUP2 MSTORE PUSH1 0x20 ADD DUP4 DUP2 MSTORE PUSH1 0x20 ADD DUP6 PUSH1 0x2 ADD SLOAD DUP2 MSTORE POP SWAP5 POP POP POP POP POP SWAP2 SWAP1 POP JUMP JUMPDEST PUSH1 0x0 PUSH2 0xC59 PUSH2 0x19CE JUMP JUMPDEST PUSH1 0x3 SLOAD PUSH1 0x40 MLOAD PUSH4 0x2CE81DBD PUSH1 0xE2 SHL DUP2 MSTORE PUSH1 0x0 SWAP2 PUSH1 0x1 PUSH1 0x1 PUSH1 0xA0 SHL SUB AND SWAP1 PUSH4 0xB3A076F4 SWAP1 PUSH2 0xC8C SWAP1 DUP8 SWAP1 DUP8 SWAP1 PUSH1 0x4 ADD PUSH2 0x1CD6 JUMP JUMPDEST PUSH1 0x0 PUSH1 0x40 MLOAD DUP1 DUP4 SUB DUP2 PUSH1 0x0 DUP8 GAS CALL ISZERO DUP1 ISZERO PUSH2 0xCAB JUMPI RETURNDATASIZE PUSH1 0x0 DUP1 RETURNDATACOPY RETURNDATASIZE PUSH1 0x0 REVERT JUMPDEST POP POP POP POP PUSH1 0x40 MLOAD RETURNDATASIZE PUSH1 0x0 DUP3 RETURNDATACOPY PUSH1 0x1F RETURNDATASIZE SWAP1 DUP2 ADD PUSH1 0x1F NOT AND DUP3 ADD PUSH1 0x40 MSTORE PUSH2 0xCD3 SWAP2 SWAP1 DUP2 ADD SWAP1 PUSH2 0x1DF8 JUMP JUMPDEST SWAP1 POP PUSH1 0x0 DUP1 JUMPDEST DUP3 MLOAD MLOAD DUP2 LT ISZERO PUSH2 0xE05 JUMPI PUSH1 0x4 SLOAD DUP4 MLOAD DUP1 MLOAD DUP4 SWAP1 DUP2 LT PUSH2 0xCFA JUMPI PUSH2 0xCFA PUSH2 0x1EC1 JUMP JUMPDEST PUSH1 0x20 MUL PUSH1 0x20 ADD ADD MLOAD SUB PUSH2 0xDFD JUMPI DUP3 PUSH1 0x20 ADD MLOAD DUP2 DUP2 MLOAD DUP2 LT PUSH2 0xD1D JUMPI PUSH2 0xD1D PUSH2 0x1EC1 JUMP JUMPDEST PUSH1 0x20 MUL PUSH1 0x20 ADD ADD MLOAD SWAP2 POP PUSH1 0x12 DUP4 PUSH1 0x40 ADD MLOAD DUP3 DUP2 MLOAD DUP2 LT PUSH2 0xD3F JUMPI PUSH2 0xD3F PUSH2 0x1EC1 JUMP JUMPDEST PUSH1 0x20 MUL PUSH1 0x20 ADD ADD MLOAD LT ISZERO PUSH2 0xD93 JUMPI DUP3 PUSH1 0x40 ADD MLOAD DUP2 DUP2 MLOAD DUP2 LT PUSH2 0xD63 JUMPI PUSH2 0xD63 PUSH2 0x1EC1 JUMP JUMPDEST PUSH1 0x20 MUL PUSH1 0x20 ADD ADD MLOAD PUSH1 0x12 PUSH2 0xD77 SWAP2 SWAP1 PUSH2 0x1C08 JUMP JUMPDEST PUSH2 0xD82 SWAP1 PUSH1 0xA PUSH2 0x1FBE JUMP JUMPDEST PUSH2 0xD8C SWAP1 DUP4 PUSH2 0x1C9D JUMP JUMPDEST SWAP2 POP PUSH2 0xE05 JUMP JUMPDEST PUSH1 0x12 DUP4 PUSH1 0x40 ADD MLOAD DUP3 DUP2 MLOAD DUP2 LT PUSH2 0xDAB JUMPI PUSH2 0xDAB PUSH2 0x1EC1 JUMP JUMPDEST PUSH1 0x20 MUL PUSH1 0x20 ADD ADD MLOAD GT ISZERO PUSH2 0xDF8 JUMPI PUSH1 0x12 DUP4 PUSH1 0x40 ADD MLOAD DUP3 DUP2 MLOAD DUP2 LT PUSH2 0xDD1 JUMPI PUSH2 0xDD1 PUSH2 0x1EC1 JUMP JUMPDEST PUSH1 0x20 MUL PUSH1 0x20 ADD ADD MLOAD PUSH2 0xDE3 SWAP2 SWAP1 PUSH2 0x1C08 JUMP JUMPDEST PUSH2 0xDEE SWAP1 PUSH1 0xA PUSH2 0x1FBE JUMP JUMPDEST PUSH2 0xD8C SWAP1 DUP4 PUSH2 0x1CB4 JUMP JUMPDEST PUSH2 0xE05 JUMP JUMPDEST PUSH1 0x1 ADD PUSH2 0xCD9 JUMP JUMPDEST POP PUSH1 0x0 DUP2 GT PUSH2 0xE56 JUMPI PUSH1 0x40 MLOAD PUSH3 0x461BCD PUSH1 0xE5 SHL DUP2 MSTORE PUSH1 0x20 PUSH1 0x4 DUP3 ADD MSTORE PUSH1 0x1D PUSH1 0x24 DUP3 ADD MSTORE PUSH32 0x5072696365206E6F7420666F756E6420696E2070726F6F662064617461000000 PUSH1 0x44 DUP3 ADD MSTORE PUSH1 0x64 ADD PUSH2 0x58B JUMP JUMPDEST PUSH1 0xE SLOAD ISZERO PUSH2 0xEC2 JUMPI PUSH1 0x0 PUSH2 0xE6C PUSH1 0xE SLOAD DUP4 PUSH2 0x1A4B JUMP JUMPDEST SWAP1 POP PUSH1 0xD SLOAD DUP2 GT ISZERO PUSH2 0xEC0 JUMPI PUSH1 0x40 MLOAD PUSH3 0x461BCD PUSH1 0xE5 SHL DUP2 MSTORE PUSH1 0x20 PUSH1 0x4 DUP3 ADD MSTORE PUSH1 0x18 PUSH1 0x24 DUP3 ADD MSTORE PUSH32 0x507269636520646576696174696F6E20746F6F20686967680000000000000000 PUSH1 0x44 DUP3 ADD MSTORE PUSH1 0x64 ADD PUSH2 0x58B JUMP JUMPDEST POP JUMPDEST PUSH1 0xE DUP2 SWAP1 SSTORE TIMESTAMP PUSH1 0xF SSTORE PUSH1 0x40 MLOAD DUP2 DUP2 MSTORE PUSH32 0x66CBCA4F3C64FECF1DCB9CE094ABCF7F68C3450A1D4E3A8E917DD621EDB4EBE0 SWAP1 PUSH1 0x20 ADD PUSH1 0x40 MLOAD DUP1 SWAP2 SUB SWAP1 LOG1 SWAP2 POP POP JUMPDEST SWAP3 SWAP2 POP POP JUMP JUMPDEST PUSH1 0x1 PUSH1 0x1 PUSH1 0xA0 SHL SUB DUP2 AND PUSH1 0x0 SWAP1 DUP2 MSTORE PUSH1 0x5 PUSH1 0x20 MSTORE PUSH1 0x40 DUP2 KECCAK256 PUSH1 0x1 DUP2 ADD SLOAD DUP3 SWAP2 DUP3 SWAP2 PUSH2 0xF66 JUMPI PUSH1 0x40 MLOAD PUSH3 0x461BCD PUSH1 0xE5 SHL DUP2 MSTORE PUSH1 0x20 PUSH1 0x4 DUP3 ADD MSTORE PUSH1 0xE PUSH1 0x24 DUP3 ADD MSTORE PUSH14 0x27379030B1BA34BB32903637B0B7 PUSH1 0x91 SHL PUSH1 0x44 DUP3 ADD MSTORE PUSH1 0x64 ADD PUSH2 0x58B JUMP JUMPDEST PUSH2 0xF6F DUP6 PUSH2 0xFCE JUMP JUMPDEST SWAP3 POP PUSH1 0x64 PUSH2 0xF7E DUP5 PUSH1 0x3C PUSH2 0x1C9D JUMP JUMPDEST PUSH2 0xF88 SWAP2 SWAP1 PUSH2 0x1CB4 JUMP JUMPDEST SWAP2 POP PUSH1 0x0 PUSH2 0xF95 DUP7 PUSH2 0x101B JUMP JUMPDEST DUP3 PUSH1 0x1 ADD SLOAD PUSH2 0xFA4 SWAP2 SWAP1 PUSH2 0x1BDC JUMP JUMPDEST SWAP1 POP DUP3 DUP2 GT ISZERO PUSH2 0xFBF JUMPI PUSH2 0xFB8 DUP4 DUP3 PUSH2 0x1C08 JUMP JUMPDEST SWAP5 POP PUSH2 0xFC4 JUMP JUMPDEST PUSH1 0x0 SWAP5 POP JUMPDEST POP POP JUMPDEST SWAP2 SWAP4 SWAP1 SWAP3 POP JUMP JUMPDEST PUSH1 0x0 DUP1 PUSH2 0xFD9 PUSH2 0x1282 JUMP JUMPDEST PUSH1 0x1 PUSH1 0x1 PUSH1 0xA0 SHL SUB DUP5 AND PUSH1 0x0 SWAP1 DUP2 MSTORE PUSH1 0x5 PUSH1 0x20 MSTORE PUSH1 0x40 SWAP1 KECCAK256 SLOAD SWAP1 SWAP2 POP PUSH8 0xDE0B6B3A7640000 SWAP1 PUSH2 0x100A SWAP1 DUP4 SWAP1 PUSH2 0x1C9D JUMP JUMPDEST PUSH2 0x1014 SWAP2 SWAP1 PUSH2 0x1CB4 JUMP JUMPDEST SWAP4 SWAP3 POP POP POP JUMP JUMPDEST PUSH1 0x1 PUSH1 0x1 PUSH1 0xA0 SHL SUB DUP2 AND PUSH1 0x0 SWAP1 DUP2 MSTORE PUSH1 0x5 PUSH1 0x20 MSTORE PUSH1 0x40 DUP2 KECCAK256 PUSH1 0x1 DUP2 ADD SLOAD DUP3 SUB PUSH2 0x1047 JUMPI POP PUSH1 0x0 SWAP3 SWAP2 POP POP JUMP JUMPDEST PUSH1 0x0 DUP2 PUSH1 0x2 ADD SLOAD TIMESTAMP PUSH2 0x1059 SWAP2 SWAP1 PUSH2 0x1C08 JUMP JUMPDEST SWAP1 POP PUSH4 0xBBF81E00 DUP2 PUSH1 0x6 SLOAD DUP5 PUSH1 0x1 ADD SLOAD PUSH2 0x1073 SWAP2 SWAP1 PUSH2 0x1C9D JUMP JUMPDEST PUSH2 0x107D SWAP2 SWAP1 PUSH2 0x1C9D JUMP JUMPDEST PUSH2 0x1087 SWAP2 SWAP1 PUSH2 0x1CB4 JUMP JUMPDEST SWAP5 SWAP4 POP POP POP POP JUMP JUMPDEST PUSH1 0x1 PUSH1 0x1 PUSH1 0xA0 SHL SUB DUP2 AND PUSH1 0x0 SWAP1 DUP2 MSTORE PUSH1 0x5 PUSH1 0x20 MSTORE PUSH1 0x40 DUP2 KECCAK256 PUSH1 0x3 DUP2 ADD SLOAD DUP3 SUB PUSH2 0x10BB JUMPI POP PUSH1 0x0 SWAP3 SWAP2 POP POP JUMP JUMPDEST PUSH1 0x0 DUP2 PUSH1 0x4 ADD SLOAD TIMESTAMP PUSH2 0x10CD SWAP2 SWAP1 PUSH2 0x1C08 JUMP JUMPDEST SWAP1 POP PUSH4 0xBBF81E00 DUP2 PUSH1 0x7 SLOAD DUP5 PUSH1 0x3 ADD SLOAD PUSH2 0x1073 SWAP2 SWAP1 PUSH2 0x1C9D JUMP JUMPDEST CALLER PUSH1 0x0 DUP2 DUP2 MSTORE PUSH1 0x5 PUSH1 0x20 MSTORE PUSH1 0x40 DUP2 KECCAK256 SWAP2 PUSH2 0x1100 SWAP1 PUSH2 0x101B JUMP JUMPDEST DUP3 PUSH1 0x1 ADD SLOAD PUSH2 0x110F SWAP2 SWAP1 PUSH2 0x1BDC JUMP JUMPDEST SWAP1 POP DUP1 DUP4 GT ISZERO PUSH2 0x1161 JUMPI PUSH1 0x40 MLOAD PUSH3 0x461BCD PUSH1 0xE5 SHL DUP2 MSTORE PUSH1 0x20 PUSH1 0x4 DUP3 ADD MSTORE PUSH1 0x19 PUSH1 0x24 DUP3 ADD MSTORE PUSH32 0x526570617920616D6F756E742065786365656473206465627400000000000000 PUSH1 0x44 DUP3 ADD MSTORE PUSH1 0x64 ADD PUSH2 0x58B JUMP JUMPDEST PUSH1 0x0 DUP4 GT PUSH2 0x1181 JUMPI PUSH1 0x40 MLOAD PUSH3 0x461BCD PUSH1 0xE5 SHL DUP2 MSTORE PUSH1 0x4 ADD PUSH2 0x58B SWAP1 PUSH2 0x1C66 JUMP JUMPDEST PUSH1 0x2 SLOAD PUSH1 0x40 MLOAD PUSH4 0x23B872DD PUSH1 0xE0 SHL DUP2 MSTORE CALLER PUSH1 0x4 DUP3 ADD MSTORE ADDRESS PUSH1 0x24 DUP3 ADD MSTORE PUSH1 0x44 DUP2 ADD DUP6 SWAP1 MSTORE PUSH1 0x1 PUSH1 0x1 PUSH1 0xA0 SHL SUB SWAP1 SWAP2 AND SWAP1 PUSH4 0x23B872DD SWAP1 PUSH1 0x64 ADD PUSH1 0x20 PUSH1 0x40 MLOAD DUP1 DUP4 SUB DUP2 PUSH1 0x0 DUP8 GAS CALL ISZERO DUP1 ISZERO PUSH2 0x11D8 JUMPI RETURNDATASIZE PUSH1 0x0 DUP1 RETURNDATACOPY RETURNDATASIZE PUSH1 0x0 REVERT JUMPDEST POP POP POP POP PUSH1 0x40 MLOAD RETURNDATASIZE PUSH1 0x1F NOT PUSH1 0x1F DUP3 ADD AND DUP3 ADD DUP1 PUSH1 0x40 MSTORE POP DUP2 ADD SWAP1 PUSH2 0x11FC SWAP2 SWAP1 PUSH2 0x1C1B JUMP JUMPDEST PUSH2 0x1218 JUMPI PUSH1 0x40 MLOAD PUSH3 0x461BCD PUSH1 0xE5 SHL DUP2 MSTORE PUSH1 0x4 ADD PUSH2 0x58B SWAP1 PUSH2 0x1C3D JUMP JUMPDEST DUP1 DUP4 SUB PUSH2 0x1232 JUMPI PUSH1 0x0 PUSH1 0x1 DUP4 ADD DUP2 SWAP1 SSTORE PUSH1 0x2 DUP4 ADD SSTORE PUSH2 0x1248 JUMP JUMPDEST PUSH2 0x123C DUP4 DUP3 PUSH2 0x1C08 JUMP JUMPDEST PUSH1 0x1 DUP4 ADD SSTORE TIMESTAMP PUSH1 0x2 DUP4 ADD SSTORE JUMPDEST PUSH1 0x40 MLOAD DUP4 DUP2 MSTORE CALLER SWAP1 PUSH32 0xC200A1F31DD659E356E0F112C82558E25F49F7B0F84438691CD96F5CB3558823 SWAP1 PUSH1 0x20 ADD PUSH1 0x40 MLOAD DUP1 SWAP2 SUB SWAP1 LOG2 POP POP POP JUMP JUMPDEST PUSH1 0xB SLOAD PUSH1 0x0 SWAP1 PUSH1 0xFF AND ISZERO PUSH2 0x1297 JUMPI POP PUSH1 0xC SLOAD SWAP1 JUMP JUMPDEST PUSH1 0x0 PUSH1 0xF SLOAD GT PUSH2 0x12E1 JUMPI PUSH1 0x40 MLOAD PUSH3 0x461BCD PUSH1 0xE5 SHL DUP2 MSTORE PUSH1 0x20 PUSH1 0x4 DUP3 ADD MSTORE PUSH1 0x15 PUSH1 0x24 DUP3 ADD MSTORE PUSH21 0x141C9A58D9481B9BDD081A5B9A5D1A585B1A5E9959 PUSH1 0x5A SHL PUSH1 0x44 DUP3 ADD MSTORE PUSH1 0x64 ADD PUSH2 0x58B JUMP JUMPDEST PUSH1 0x10 SLOAD PUSH1 0xF SLOAD PUSH2 0x12F1 SWAP1 TIMESTAMP PUSH2 0x1C08 JUMP JUMPDEST LT PUSH2 0x132E JUMPI PUSH1 0x40 MLOAD PUSH3 0x461BCD PUSH1 0xE5 SHL DUP2 MSTORE PUSH1 0x20 PUSH1 0x4 DUP3 ADD MSTORE PUSH1 0xD PUSH1 0x24 DUP3 ADD MSTORE PUSH13 0x141C9A58D9481D1BDBC81BDB19 PUSH1 0x9A SHL PUSH1 0x44 DUP3 ADD MSTORE PUSH1 0x64 ADD PUSH2 0x58B JUMP JUMPDEST POP PUSH1 0xE SLOAD SWAP1 JUMP JUMPDEST PUSH1 0x0 DUP2 GT PUSH2 0x1355 JUMPI PUSH1 0x40 MLOAD PUSH3 0x461BCD PUSH1 0xE5 SHL DUP2 MSTORE PUSH1 0x4 ADD PUSH2 0x58B SWAP1 PUSH2 0x1C66 JUMP JUMPDEST PUSH1 0x1 SLOAD PUSH1 0x40 MLOAD PUSH4 0x23B872DD PUSH1 0xE0 SHL DUP2 MSTORE CALLER PUSH1 0x4 DUP3 ADD MSTORE ADDRESS PUSH1 0x24 DUP3 ADD MSTORE PUSH1 0x44 DUP2 ADD DUP4 SWAP1 MSTORE PUSH1 0x1 PUSH1 0x1 PUSH1 0xA0 SHL SUB SWAP1 SWAP2 AND SWAP1 PUSH4 0x23B872DD SWAP1 PUSH1 0x64 ADD PUSH1 0x20 PUSH1 0x40 MLOAD DUP1 DUP4 SUB DUP2 PUSH1 0x0 DUP8 GAS CALL ISZERO DUP1 ISZERO PUSH2 0x13AC JUMPI RETURNDATASIZE PUSH1 0x0 DUP1 RETURNDATACOPY RETURNDATASIZE PUSH1 0x0 REVERT JUMPDEST POP POP POP POP PUSH1 0x40 MLOAD RETURNDATASIZE PUSH1 0x1F NOT PUSH1 0x1F DUP3 ADD AND DUP3 ADD DUP1 PUSH1 0x40 MSTORE POP DUP2 ADD SWAP1 PUSH2 0x13D0 SWAP2 SWAP1 PUSH2 0x1C1B JUMP JUMPDEST PUSH2 0x13EC JUMPI PUSH1 0x40 MLOAD PUSH3 0x461BCD PUSH1 0xE5 SHL DUP2 MSTORE PUSH1 0x4 ADD PUSH2 0x58B SWAP1 PUSH2 0x1C3D JUMP JUMPDEST CALLER PUSH1 0x0 SWAP1 DUP2 MSTORE PUSH1 0x5 PUSH1 0x20 MSTORE PUSH1 0x40 DUP2 KECCAK256 DUP1 SLOAD DUP4 SWAP3 SWAP1 PUSH2 0x140B SWAP1 DUP5 SWAP1 PUSH2 0x1BDC JUMP JUMPDEST SWAP1 SWAP2 SSTORE POP POP PUSH1 0x40 MLOAD DUP2 DUP2 MSTORE CALLER SWAP1 PUSH32 0xD7243F6F8212D5188FD054141CF6EA89CFC0D91FACB8C3AFE2F88A1358480142 SWAP1 PUSH1 0x20 ADD PUSH1 0x40 MLOAD DUP1 SWAP2 SUB SWAP1 LOG2 POP JUMP JUMPDEST PUSH1 0x2 SLOAD PUSH1 0x40 MLOAD PUSH4 0x70A08231 PUSH1 0xE0 SHL DUP2 MSTORE ADDRESS PUSH1 0x4 DUP3 ADD MSTORE DUP3 SWAP2 PUSH1 0x1 PUSH1 0x1 PUSH1 0xA0 SHL SUB AND SWAP1 PUSH4 0x70A08231 SWAP1 PUSH1 0x24 ADD PUSH1 0x20 PUSH1 0x40 MLOAD DUP1 DUP4 SUB DUP2 DUP7 GAS STATICCALL ISZERO DUP1 ISZERO PUSH2 0x1490 JUMPI RETURNDATASIZE PUSH1 0x0 DUP1 RETURNDATACOPY RETURNDATASIZE PUSH1 0x0 REVERT JUMPDEST POP POP POP POP PUSH1 0x40 MLOAD RETURNDATASIZE PUSH1 0x1F NOT PUSH1 0x1F DUP3 ADD AND DUP3 ADD DUP1 PUSH1 0x40 MSTORE POP DUP2 ADD SWAP1 PUSH2 0x14B4 SWAP2 SWAP1 PUSH2 0x1BEF JUMP JUMPDEST LT ISZERO PUSH2 0x1502 JUMPI PUSH1 0x40 MLOAD PUSH3 0x461BCD PUSH1 0xE5 SHL DUP2 MSTORE PUSH1 0x20 PUSH1 0x4 DUP3 ADD MSTORE PUSH1 0x1E PUSH1 0x24 DUP3 ADD MSTORE PUSH32 0x496E73756666696369656E74206C656E64696E67206C69717569646974790000 PUSH1 0x44 DUP3 ADD MSTORE PUSH1 0x64 ADD PUSH2 0x58B JUMP JUMPDEST PUSH1 0x0 PUSH2 0x150D CALLER PUSH2 0xFCE JUMP JUMPDEST SWAP1 POP PUSH1 0x0 PUSH1 0x64 PUSH2 0x151E DUP4 PUSH1 0x3C PUSH2 0x1C9D JUMP JUMPDEST PUSH2 0x1528 SWAP2 SWAP1 PUSH2 0x1CB4 JUMP JUMPDEST SWAP1 POP DUP1 DUP4 GT ISZERO PUSH2 0x1589 JUMPI PUSH1 0x40 MLOAD PUSH3 0x461BCD PUSH1 0xE5 SHL DUP2 MSTORE PUSH1 0x20 PUSH1 0x4 DUP3 ADD MSTORE PUSH1 0x26 PUSH1 0x24 DUP3 ADD MSTORE PUSH32 0x426F72726F7720616D6F756E74206578636565647320636F6C6C61746572616C PUSH1 0x44 DUP3 ADD MSTORE PUSH6 0x81B1A5B5A5D PUSH1 0xD2 SHL PUSH1 0x64 DUP3 ADD MSTORE PUSH1 0x84 ADD PUSH2 0x58B JUMP JUMPDEST CALLER PUSH1 0x0 SWAP1 DUP2 MSTORE PUSH1 0x5 PUSH1 0x20 MSTORE PUSH1 0x40 DUP2 KECCAK256 TIMESTAMP PUSH1 0x2 DUP3 ADD SSTORE PUSH1 0x1 DUP2 ADD DUP1 SLOAD SWAP2 SWAP3 DUP7 SWAP3 PUSH2 0x15B3 SWAP1 DUP5 SWAP1 PUSH2 0x1BDC JUMP JUMPDEST SWAP1 SWAP2 SSTORE POP POP PUSH1 0x2 SLOAD PUSH1 0x40 MLOAD PUSH4 0xA9059CBB PUSH1 0xE0 SHL DUP2 MSTORE CALLER PUSH1 0x4 DUP3 ADD MSTORE PUSH1 0x24 DUP2 ADD DUP7 SWAP1 MSTORE PUSH1 0x1 PUSH1 0x1 PUSH1 0xA0 SHL SUB SWAP1 SWAP2 AND SWAP1 PUSH4 0xA9059CBB SWAP1 PUSH1 0x44 ADD PUSH1 0x20 PUSH1 0x40 MLOAD DUP1 DUP4 SUB DUP2 PUSH1 0x0 DUP8 GAS CALL ISZERO DUP1 ISZERO PUSH2 0x1609 JUMPI RETURNDATASIZE PUSH1 0x0 DUP1 RETURNDATACOPY RETURNDATASIZE PUSH1 0x0 REVERT JUMPDEST POP POP POP POP PUSH1 0x40 MLOAD RETURNDATASIZE PUSH1 0x1F NOT PUSH1 0x1F DUP3 ADD AND DUP3 ADD DUP1 PUSH1 0x40 MSTORE POP DUP2 ADD SWAP1 PUSH2 0x162D SWAP2 SWAP1 PUSH2 0x1C1B JUMP JUMPDEST PUSH2 0x1649 JUMPI PUSH1 0x40 MLOAD PUSH3 0x461BCD PUSH1 0xE5 SHL DUP2 MSTORE PUSH1 0x4 ADD PUSH2 0x58B SWAP1 PUSH2 0x1C3D JUMP JUMPDEST PUSH1 0x40 MLOAD DUP5 DUP2 MSTORE CALLER SWAP1 PUSH32 0x8412C29DA21AA433EF5A58B426E1A0A97689471947DD559E72C5A8953BD5E9F5 SWAP1 PUSH1 0x20 ADD PUSH2 0x7FE JUMP JUMPDEST PUSH2 0x1683 PUSH2 0x19CE JUMP JUMPDEST PUSH1 0xB DUP1 SLOAD PUSH1 0xFF NOT AND SWAP1 SSTORE PUSH1 0x40 MLOAD PUSH32 0xA012F7ABFA2811ABCA58203DDD73CAFE86FF7FA05FC1FB82646BFA00081C7741 SWAP1 PUSH1 0x0 SWAP1 LOG1 JUMP JUMPDEST PUSH2 0x16C0 PUSH2 0x19CE JUMP JUMPDEST DUP1 DUP3 GT PUSH2 0x1700 JUMPI PUSH1 0x40 MLOAD PUSH3 0x461BCD PUSH1 0xE5 SHL DUP2 MSTORE PUSH1 0x20 PUSH1 0x4 DUP3 ADD MSTORE PUSH1 0xE PUSH1 0x24 DUP3 ADD MSTORE PUSH14 0x496E76616C696420726174696F73 PUSH1 0x90 SHL PUSH1 0x44 DUP3 ADD MSTORE PUSH1 0x64 ADD PUSH2 0x58B JUMP JUMPDEST PUSH1 0x8 SWAP2 SWAP1 SWAP2 SSTORE PUSH1 0x9 SSTORE JUMP JUMPDEST PUSH2 0x1713 PUSH2 0x19CE JUMP JUMPDEST PUSH1 0x1 PUSH1 0x1 PUSH1 0xA0 SHL SUB DUP2 AND PUSH2 0x173D JUMPI PUSH1 0x40 MLOAD PUSH4 0x1E4FBDF7 PUSH1 0xE0 SHL DUP2 MSTORE PUSH1 0x0 PUSH1 0x4 DUP3 ADD MSTORE PUSH1 0x24 ADD PUSH2 0x58B JUMP JUMPDEST PUSH2 0x1746 DUP2 PUSH2 0x19FB JUMP JUMPDEST POP JUMP JUMPDEST PUSH2 0x1751 PUSH2 0x19CE JUMP JUMPDEST PUSH1 0x0 DUP2 GT PUSH2 0x1791 JUMPI PUSH1 0x40 MLOAD PUSH3 0x461BCD PUSH1 0xE5 SHL DUP2 MSTORE PUSH1 0x20 PUSH1 0x4 DUP3 ADD MSTORE PUSH1 0xD PUSH1 0x24 DUP3 ADD MSTORE PUSH13 0x496E76616C6964207072696365 PUSH1 0x98 SHL PUSH1 0x44 DUP3 ADD MSTORE PUSH1 0x64 ADD PUSH2 0x58B JUMP JUMPDEST PUSH1 0xC DUP2 SWAP1 SSTORE PUSH1 0xB DUP1 SLOAD PUSH1 0xFF NOT AND PUSH1 0x1 OR SWAP1 SSTORE PUSH1 0xE DUP2 SWAP1 SSTORE PUSH1 0x40 MLOAD PUSH32 0xEFDB515CBC08D8DA442B74DA4E9C0095DABF6B77F1C491390E15C92CDE055258 SWAP1 PUSH2 0x17DA SWAP1 DUP4 DUP2 MSTORE PUSH1 0x20 ADD SWAP1 JUMP JUMPDEST PUSH1 0x40 MLOAD DUP1 SWAP2 SUB SWAP1 LOG1 POP JUMP JUMPDEST PUSH2 0x17ED PUSH2 0x19CE JUMP JUMPDEST DUP1 DUP3 GT PUSH2 0x1851 JUMPI PUSH1 0x40 MLOAD PUSH3 0x461BCD PUSH1 0xE5 SHL DUP2 MSTORE PUSH1 0x20 PUSH1 0x4 DUP3 ADD MSTORE PUSH1 0x2C PUSH1 0x24 DUP3 ADD MSTORE PUSH32 0x426F72726F772072617465206D75737420626520686967686572207468616E20 PUSH1 0x44 DUP3 ADD MSTORE PUSH12 0x6C656E64696E672072617465 PUSH1 0xA0 SHL PUSH1 0x64 DUP3 ADD MSTORE PUSH1 0x84 ADD PUSH2 0x58B JUMP JUMPDEST PUSH1 0x6 SWAP2 SWAP1 SWAP2 SSTORE PUSH1 0x7 SSTORE JUMP JUMPDEST PUSH1 0x1 PUSH1 0x1 PUSH1 0xA0 SHL SUB DUP2 AND PUSH1 0x0 SWAP1 DUP2 MSTORE PUSH1 0x5 PUSH1 0x20 MSTORE PUSH1 0x40 DUP2 KECCAK256 PUSH1 0x1 DUP2 ADD SLOAD DUP3 SWAP2 PUSH1 0x60 SWAP2 DUP4 SUB PUSH2 0x18B7 JUMPI POP POP PUSH1 0x40 DUP1 MLOAD DUP1 DUP3 ADD SWAP1 SWAP2 MSTORE PUSH1 0xE DUP2 MSTORE PUSH14 0x27379030B1BA34BB32903637B0B7 PUSH1 0x91 SHL PUSH1 0x20 DUP3 ADD MSTORE PUSH1 0x0 SWAP3 POP DUP3 SWAP2 POP PUSH2 0xFC7 JUMP JUMPDEST PUSH1 0x0 PUSH2 0x18C2 DUP7 PUSH2 0xB39 JUMP JUMPDEST SWAP1 POP PUSH1 0x0 PUSH2 0x18CF DUP8 PUSH2 0xFCE JUMP JUMPDEST SWAP1 POP PUSH1 0x0 PUSH1 0x64 PUSH1 0x9 SLOAD DUP5 PUSH1 0x40 ADD MLOAD PUSH2 0x18E7 SWAP2 SWAP1 PUSH2 0x1C9D JUMP JUMPDEST PUSH2 0x18F1 SWAP2 SWAP1 PUSH2 0x1CB4 JUMP JUMPDEST SWAP1 POP PUSH1 0x60 PUSH1 0x0 DUP3 DUP5 LT PUSH2 0x197A JUMPI PUSH1 0x40 MLOAD DUP1 PUSH1 0x40 ADD PUSH1 0x40 MSTORE DUP1 PUSH1 0x7 DUP2 MSTORE PUSH1 0x20 ADD PUSH7 0x4865616C746879 PUSH1 0xC8 SHL DUP2 MSTORE POP SWAP2 POP DUP3 DUP5 GT ISZERO PUSH2 0x1975 JUMPI PUSH1 0x0 PUSH2 0x1934 DUP5 DUP7 PUSH2 0x1C08 JUMP JUMPDEST SWAP1 POP PUSH1 0x0 PUSH2 0x8E94 PUSH1 0x6 SLOAD DUP10 PUSH1 0x1 ADD SLOAD PUSH2 0x194D SWAP2 SWAP1 PUSH2 0x1C9D JUMP JUMPDEST PUSH2 0x1957 SWAP2 SWAP1 PUSH2 0x1CB4 JUMP JUMPDEST SWAP1 POP PUSH2 0x1963 DUP2 DUP4 PUSH2 0x1CB4 JUMP JUMPDEST PUSH2 0x1970 SWAP1 PUSH3 0x15180 PUSH2 0x1C9D JUMP JUMPDEST SWAP3 POP POP POP JUMPDEST PUSH2 0x19AC JUMP JUMPDEST POP POP PUSH1 0x40 DUP1 MLOAD DUP1 DUP3 ADD SWAP1 SWAP2 MSTORE PUSH1 0x16 DUP2 MSTORE PUSH22 0x20BA103934B9B59037B3103634B8BAB4B230BA34B7B7 PUSH1 0x51 SHL PUSH1 0x20 DUP3 ADD MSTORE PUSH1 0x0 JUMPDEST PUSH1 0x40 DUP6 ADD MLOAD PUSH2 0x19BB DUP3 TIMESTAMP PUSH2 0x1BDC JUMP JUMPDEST SWAP1 SWAP12 SWAP1 SWAP11 POP SWAP2 SWAP9 POP SWAP1 SWAP7 POP POP POP POP POP POP POP JUMP JUMPDEST PUSH1 0x0 SLOAD PUSH1 0x1 PUSH1 0x1 PUSH1 0xA0 SHL SUB AND CALLER EQ PUSH2 0xB37 JUMPI PUSH1 0x40 MLOAD PUSH4 0x118CDAA7 PUSH1 0xE0 SHL DUP2 MSTORE CALLER PUSH1 0x4 DUP3 ADD MSTORE PUSH1 0x24 ADD PUSH2 0x58B JUMP JUMPDEST PUSH1 0x0 DUP1 SLOAD PUSH1 0x1 PUSH1 0x1 PUSH1 0xA0 SHL SUB DUP4 DUP2 AND PUSH1 0x1 PUSH1 0x1 PUSH1 0xA0 SHL SUB NOT DUP4 AND DUP2 OR DUP5 SSTORE PUSH1 0x40 MLOAD SWAP2 SWAP1 SWAP3 AND SWAP3 DUP4 SWAP2 PUSH32 0x8BE0079C531659141344CD1FD0A4F28419497F9722A3DAAFE3B4186F6B6457E0 SWAP2 SWAP1 LOG3 POP POP JUMP JUMPDEST PUSH1 0x0 DUP2 DUP4 GT ISZERO PUSH2 0x1A7C JUMPI DUP3 PUSH2 0x1A60 DUP4 DUP3 PUSH2 0x1C08 JUMP JUMPDEST PUSH2 0x1A6B SWAP1 PUSH1 0x64 PUSH2 0x1C9D JUMP JUMPDEST PUSH2 0x1A75 SWAP2 SWAP1 PUSH2 0x1CB4 JUMP JUMPDEST SWAP1 POP PUSH2 0xF02 JUMP JUMPDEST DUP3 PUSH2 0x1A87 DUP2 DUP5 PUSH2 0x1C08 JUMP JUMPDEST PUSH2 0x100A SWAP1 PUSH1 0x64 PUSH2 0x1C9D JUMP JUMPDEST PUSH1 0x0 PUSH1 0x20 DUP3 DUP5 SUB SLT ISZERO PUSH2 0x1AA4 JUMPI PUSH1 0x0 DUP1 REVERT JUMPDEST POP CALLDATALOAD SWAP2 SWAP1 POP JUMP JUMPDEST PUSH1 0x0 PUSH1 0x20 DUP3 DUP5 SUB SLT ISZERO PUSH2 0x1ABD JUMPI PUSH1 0x0 DUP1 REVERT JUMPDEST DUP2 CALLDATALOAD PUSH1 0x1 PUSH1 0x1 PUSH1 0xA0 SHL SUB DUP2 AND DUP2 EQ PUSH2 0x1014 JUMPI PUSH1 0x0 DUP1 REVERT JUMPDEST PUSH1 0x0 DUP1 PUSH1 0x20 DUP4 DUP6 SUB SLT ISZERO PUSH2 0x1AE7 JUMPI PUSH1 0x0 DUP1 REVERT JUMPDEST DUP3 CALLDATALOAD PUSH8 0xFFFFFFFFFFFFFFFF DUP2 GT ISZERO PUSH2 0x1AFE JUMPI PUSH1 0x0 DUP1 REVERT JUMPDEST DUP4 ADD PUSH1 0x1F DUP2 ADD DUP6 SGT PUSH2 0x1B0F JUMPI PUSH1 0x0 DUP1 REVERT JUMPDEST DUP1 CALLDATALOAD PUSH8 0xFFFFFFFFFFFFFFFF DUP2 GT ISZERO PUSH2 0x1B26 JUMPI PUSH1 0x0 DUP1 REVERT JUMPDEST DUP6 PUSH1 0x20 DUP3 DUP5 ADD ADD GT ISZERO PUSH2 0x1B38 JUMPI PUSH1 0x0 DUP1 REVERT JUMPDEST PUSH1 0x20 SWAP2 SWAP1 SWAP2 ADD SWAP6 SWAP1 SWAP5 POP SWAP3 POP POP POP JUMP JUMPDEST PUSH1 0x0 DUP1 PUSH1 0x40 DUP4 DUP6 SUB SLT ISZERO PUSH2 0x1B5B JUMPI PUSH1 0x0 DUP1 REVERT JUMPDEST POP POP DUP1 CALLDATALOAD SWAP3 PUSH1 0x20 SWAP1 SWAP2 ADD CALLDATALOAD SWAP2 POP JUMP JUMPDEST DUP4 DUP2 MSTORE DUP3 PUSH1 0x20 DUP3 ADD MSTORE PUSH1 0x60 PUSH1 0x40 DUP3 ADD MSTORE PUSH1 0x0 DUP3 MLOAD DUP1 PUSH1 0x60 DUP5 ADD MSTORE PUSH1 0x0 JUMPDEST DUP2 DUP2 LT ISZERO PUSH2 0x1BA4 JUMPI PUSH1 0x20 DUP2 DUP7 ADD DUP2 ADD MLOAD PUSH1 0x80 DUP7 DUP5 ADD ADD MSTORE ADD PUSH2 0x1B87 JUMP JUMPDEST POP PUSH1 0x0 PUSH1 0x80 DUP3 DUP6 ADD ADD MSTORE PUSH1 0x80 PUSH1 0x1F NOT PUSH1 0x1F DUP4 ADD AND DUP5 ADD ADD SWAP2 POP POP SWAP5 SWAP4 POP POP POP POP JUMP JUMPDEST PUSH4 0x4E487B71 PUSH1 0xE0 SHL PUSH1 0x0 MSTORE PUSH1 0x11 PUSH1 0x4 MSTORE PUSH1 0x24 PUSH1 0x0 REVERT JUMPDEST DUP1 DUP3 ADD DUP1 DUP3 GT ISZERO PUSH2 0xF02 JUMPI PUSH2 0xF02 PUSH2 0x1BC6 JUMP JUMPDEST PUSH1 0x0 PUSH1 0x20 DUP3 DUP5 SUB SLT ISZERO PUSH2 0x1C01 JUMPI PUSH1 0x0 DUP1 REVERT JUMPDEST POP MLOAD SWAP2 SWAP1 POP JUMP JUMPDEST DUP2 DUP2 SUB DUP2 DUP2 GT ISZERO PUSH2 0xF02 JUMPI PUSH2 0xF02 PUSH2 0x1BC6 JUMP JUMPDEST PUSH1 0x0 PUSH1 0x20 DUP3 DUP5 SUB SLT ISZERO PUSH2 0x1C2D JUMPI PUSH1 0x0 DUP1 REVERT JUMPDEST DUP2 MLOAD DUP1 ISZERO ISZERO DUP2 EQ PUSH2 0x1014 JUMPI PUSH1 0x0 DUP1 REVERT JUMPDEST PUSH1 0x20 DUP1 DUP3 MSTORE PUSH1 0xF SWAP1 DUP3 ADD MSTORE PUSH15 0x151C985B9CD9995C8819985A5B1959 PUSH1 0x8A SHL PUSH1 0x40 DUP3 ADD MSTORE PUSH1 0x60 ADD SWAP1 JUMP JUMPDEST PUSH1 0x20 DUP1 DUP3 MSTORE PUSH1 0x1D SWAP1 DUP3 ADD MSTORE PUSH32 0x416D6F756E74206D7573742062652067726561746572207468616E2030000000 PUSH1 0x40 DUP3 ADD MSTORE PUSH1 0x60 ADD SWAP1 JUMP JUMPDEST DUP1 DUP3 MUL DUP2 ISZERO DUP3 DUP3 DIV DUP5 EQ OR PUSH2 0xF02 JUMPI PUSH2 0xF02 PUSH2 0x1BC6 JUMP JUMPDEST PUSH1 0x0 DUP3 PUSH2 0x1CD1 JUMPI PUSH4 0x4E487B71 PUSH1 0xE0 SHL PUSH1 0x0 MSTORE PUSH1 0x12 PUSH1 0x4 MSTORE PUSH1 0x24 PUSH1 0x0 REVERT JUMPDEST POP DIV SWAP1 JUMP JUMPDEST PUSH1 0x20 DUP2 MSTORE DUP2 PUSH1 0x20 DUP3 ADD MSTORE DUP2 DUP4 PUSH1 0x40 DUP4 ADD CALLDATACOPY PUSH1 0x0 DUP2 DUP4 ADD PUSH1 0x40 SWAP1 DUP2 ADD SWAP2 SWAP1 SWAP2 MSTORE PUSH1 0x1F SWAP1 SWAP3 ADD PUSH1 0x1F NOT AND ADD ADD SWAP2 SWAP1 POP JUMP JUMPDEST PUSH4 0x4E487B71 PUSH1 0xE0 SHL PUSH1 0x0 MSTORE PUSH1 0x41 PUSH1 0x4 MSTORE PUSH1 0x24 PUSH1 0x0 REVERT JUMPDEST PUSH1 0x40 MLOAD PUSH1 0x60 DUP2 ADD PUSH8 0xFFFFFFFFFFFFFFFF DUP2 GT DUP3 DUP3 LT OR ISZERO PUSH2 0x1D3E JUMPI PUSH2 0x1D3E PUSH2 0x1D05 JUMP JUMPDEST PUSH1 0x40 MSTORE SWAP1 JUMP JUMPDEST PUSH1 0x40 MLOAD PUSH1 0x1F DUP3 ADD PUSH1 0x1F NOT AND DUP2 ADD PUSH8 0xFFFFFFFFFFFFFFFF DUP2 GT DUP3 DUP3 LT OR ISZERO PUSH2 0x1D6D JUMPI PUSH2 0x1D6D PUSH2 0x1D05 JUMP JUMPDEST PUSH1 0x40 MSTORE SWAP2 SWAP1 POP JUMP JUMPDEST PUSH1 0x0 DUP3 PUSH1 0x1F DUP4 ADD SLT PUSH2 0x1D86 JUMPI PUSH1 0x0 DUP1 REVERT JUMPDEST DUP2 MLOAD PUSH8 0xFFFFFFFFFFFFFFFF DUP2 GT ISZERO PUSH2 0x1DA0 JUMPI PUSH2 0x1DA0 PUSH2 0x1D05 JUMP JUMPDEST DUP1 PUSH1 0x5 SHL PUSH2 0x1DB0 PUSH1 0x20 DUP3 ADD PUSH2 0x1D44 JUMP JUMPDEST SWAP2 DUP3 MSTORE PUSH1 0x20 DUP2 DUP6 ADD DUP2 ADD SWAP3 SWAP1 DUP2 ADD SWAP1 DUP7 DUP5 GT ISZERO PUSH2 0x1DCC JUMPI PUSH1 0x0 DUP1 REVERT JUMPDEST PUSH1 0x20 DUP7 ADD SWAP3 POP JUMPDEST DUP4 DUP4 LT ISZERO PUSH2 0x1DEE JUMPI DUP3 MLOAD DUP3 MSTORE PUSH1 0x20 SWAP3 DUP4 ADD SWAP3 SWAP1 SWAP2 ADD SWAP1 PUSH2 0x1DD3 JUMP JUMPDEST SWAP7 SWAP6 POP POP POP POP POP POP JUMP JUMPDEST PUSH1 0x0 PUSH1 0x20 DUP3 DUP5 SUB SLT ISZERO PUSH2 0x1E0A JUMPI PUSH1 0x0 DUP1 REVERT JUMPDEST DUP2 MLOAD PUSH8 0xFFFFFFFFFFFFFFFF DUP2 GT ISZERO PUSH2 0x1E21 JUMPI PUSH1 0x0 DUP1 REVERT JUMPDEST DUP3 ADD PUSH1 0x60 DUP2 DUP6 SUB SLT ISZERO PUSH2 0x1E33 JUMPI PUSH1 0x0 DUP1 REVERT JUMPDEST PUSH2 0x1E3B PUSH2 0x1D1B JUMP JUMPDEST DUP2 MLOAD PUSH8 0xFFFFFFFFFFFFFFFF DUP2 GT ISZERO PUSH2 0x1E52 JUMPI PUSH1 0x0 DUP1 REVERT JUMPDEST PUSH2 0x1E5E DUP7 DUP3 DUP6 ADD PUSH2 0x1D75 JUMP JUMPDEST DUP3 MSTORE POP PUSH1 0x20 DUP3 ADD MLOAD PUSH8 0xFFFFFFFFFFFFFFFF DUP2 GT ISZERO PUSH2 0x1E7B JUMPI PUSH1 0x0 DUP1 REVERT JUMPDEST PUSH2 0x1E87 DUP7 DUP3 DUP6 ADD PUSH2 0x1D75 JUMP JUMPDEST PUSH1 0x20 DUP4 ADD MSTORE POP PUSH1 0x40 DUP3 ADD MLOAD PUSH8 0xFFFFFFFFFFFFFFFF DUP2 GT ISZERO PUSH2 0x1EA7 JUMPI PUSH1 0x0 DUP1 REVERT JUMPDEST PUSH2 0x1EB3 DUP7 DUP3 DUP6 ADD PUSH2 0x1D75 JUMP JUMPDEST PUSH1 0x40 DUP4 ADD MSTORE POP SWAP5 SWAP4 POP POP POP POP JUMP JUMPDEST PUSH4 0x4E487B71 PUSH1 0xE0 SHL PUSH1 0x0 MSTORE PUSH1 0x32 PUSH1 0x4 MSTORE PUSH1 0x24 PUSH1 0x0 REVERT JUMPDEST PUSH1 0x1 DUP2 JUMPDEST PUSH1 0x1 DUP5 GT ISZERO PUSH2 0x1F12 JUMPI DUP1 DUP6 DIV DUP2 GT ISZERO PUSH2 0x1EF6 JUMPI PUSH2 0x1EF6 PUSH2 0x1BC6 JUMP JUMPDEST PUSH1 0x1 DUP5 AND ISZERO PUSH2 0x1F04 JUMPI SWAP1 DUP2 MUL SWAP1 JUMPDEST PUSH1 0x1 SWAP4 SWAP1 SWAP4 SHR SWAP3 DUP1 MUL PUSH2 0x1EDB JUMP JUMPDEST SWAP4 POP SWAP4 SWAP2 POP POP JUMP JUMPDEST PUSH1 0x0 DUP3 PUSH2 0x1F29 JUMPI POP PUSH1 0x1 PUSH2 0xF02 JUMP JUMPDEST DUP2 PUSH2 0x1F36 JUMPI POP PUSH1 0x0 PUSH2 0xF02 JUMP JUMPDEST DUP2 PUSH1 0x1 DUP2 EQ PUSH2 0x1F4C JUMPI PUSH1 0x2 DUP2 EQ PUSH2 0x1F56 JUMPI PUSH2 0x1F72 JUMP JUMPDEST PUSH1 0x1 SWAP2 POP POP PUSH2 0xF02 JUMP JUMPDEST PUSH1 0xFF DUP5 GT ISZERO PUSH2 0x1F67 JUMPI PUSH2 0x1F67 PUSH2 0x1BC6 JUMP JUMPDEST POP POP PUSH1 0x1 DUP3 SHL PUSH2 0xF02 JUMP JUMPDEST POP PUSH1 0x20 DUP4 LT PUSH2 0x133 DUP4 LT AND PUSH1 0x4E DUP5 LT PUSH1 0xB DUP5 LT AND OR ISZERO PUSH2 0x1F95 JUMPI POP DUP2 DUP2 EXP PUSH2 0xF02 JUMP JUMPDEST PUSH2 0x1FA2 PUSH1 0x0 NOT DUP5 DUP5 PUSH2 0x1ED7 JUMP JUMPDEST DUP1 PUSH1 0x0 NOT DIV DUP3 GT ISZERO PUSH2 0x1FB6 JUMPI PUSH2 0x1FB6 PUSH2 0x1BC6 JUMP JUMPDEST MUL SWAP4 SWAP3 POP POP POP JUMP JUMPDEST PUSH1 0x0 PUSH2 0x1014 DUP4 DUP4 PUSH2 0x1F1A JUMP INVALID LOG2 PUSH5 0x6970667358 0x22 SLT KECCAK256 PUSH0 0x2D 0xF9 0xD3 PUSH29 0xE66B724586D52A834803B0D87EAB0A03B93B1FF443954F67C0A0AB6473 PUSH16 0x6C634300081C00330000000000000000 "
		},
		"gasEstimates": {
			"creation": {
				"codeDepositCost": "1638400",
				"executionCost": "infinite",
				"totalCost": "infinite"
			},
			"external": {
				"borrowInterestRate()": "2351",
				"borrowStablecoins(uint256)": "infinite",
				"calculateBorrowInterest(address)": "infinite",
				"calculateLendingInterest(address)": "infinite",
				"collateralizationRatio()": "2351",
				"deactivateEmergencyPrice()": "27383",
				"depositCollateral(uint256)": "infinite",
				"depositStable(uint256)": "infinite",
				"emergencyPrice()": "2396",
				"getCollateralValue(address)": "infinite",
				"getFormattedRepaymentAmount(address)": "infinite",
				"getMemecoinPrice()": "10939",
				"getMinimumRepaymentToAvoidLiquidation(address)": "infinite",
				"getRepaymentDetails(address)": "infinite",
				"isEmergencyPricing()": "2355",
				"lastUpdateTimestamp()": "2375",
				"lastValidPrice()": "2397",
				"lendingInterestRate()": "2396",
				"liquidate(address)": "infinite",
				"liquidationRatio()": "2330",
				"maxPriceDeviation()": "2330",
				"memecoin()": "2405",
				"memecoinPairId()": "2374",
				"owner()": "2442",
				"priceTimeout()": "2418",
				"renounceOwnership()": "infinite",
				"repayLoan(uint256)": "infinite",
				"setCollateralRatios(uint256,uint256)": "46690",
				"setEmergencyPrice(uint256)": "72015",
				"setInterestRates(uint256,uint256)": "46756",
				"stablecoin()": "2448",
				"totalStableDeposits()": "2329",
				"transferOwnership(address)": "28364",
				"updatePrice(bytes)": "infinite",
				"users(address)": "11073",
				"withdrawStable(uint256)": "infinite"
			},
			"internal": {
				"calculatePercentageChange(uint256,uint256)": "infinite"
			}
		},
		"methodIdentifiers": {
			"borrowInterestRate()": "8325a1c0",
			"borrowStablecoins(uint256)": "c041bc36",
			"calculateBorrowInterest(address)": "9e09a844",
			"calculateLendingInterest(address)": "a0c5cef3",
			"collateralizationRatio()": "dcaf9c44",
			"deactivateEmergencyPrice()": "e57cbeb4",
			"depositCollateral(uint256)": "bad4a01f",
			"depositStable(uint256)": "0fcfb059",
			"emergencyPrice()": "7f4e8ee8",
			"getCollateralValue(address)": "97904e42",
			"getFormattedRepaymentAmount(address)": "ffeb3b85",
			"getMemecoinPrice()": "b79c54a8",
			"getMinimumRepaymentToAvoidLiquidation(address)": "93b5e993",
			"getRepaymentDetails(address)": "758f9c1b",
			"isEmergencyPricing()": "800437d2",
			"lastUpdateTimestamp()": "14bcec9f",
			"lastValidPrice()": "16871f0f",
			"lendingInterestRate()": "29ffadd0",
			"liquidate(address)": "2f865568",
			"liquidationRatio()": "1775765f",
			"maxPriceDeviation()": "975b8662",
			"memecoin()": "1a37ea11",
			"memecoinPairId()": "25712bde",
			"owner()": "8da5cb5b",
			"priceTimeout()": "2bcfaa80",
			"renounceOwnership()": "715018a6",
			"repayLoan(uint256)": "ab7b1c89",
			"setCollateralRatios(uint256,uint256)": "ea070620",
			"setEmergencyPrice(uint256)": "f3038e74",
			"setInterestRates(uint256,uint256)": "f9f65de5",
			"stablecoin()": "e9cbd822",
			"totalStableDeposits()": "c880f83e",
			"transferOwnership(address)": "f2fde38b",
			"updatePrice(bytes)": "8736ec47",
			"users(address)": "a87430ba",
			"withdrawStable(uint256)": "0ad7d67d"
		}
	},
	"abi": [
		{
			"inputs": [
				{
					"internalType": "address",
					"name": "_memecoin",
					"type": "address"
				},
				{
					"internalType": "address",
					"name": "_stablecoin",
					"type": "address"
				},
				{
					"internalType": "address",
					"name": "_supraOracle",
					"type": "address"
				},
				{
					"internalType": "uint256",
					"name": "_memecoinPairId",
					"type": "uint256"
				}
			],
			"stateMutability": "nonpayable",
			"type": "constructor"
		},
		{
			"inputs": [
				{
					"internalType": "address",
					"name": "owner",
					"type": "address"
				}
			],
			"name": "OwnableInvalidOwner",
			"type": "error"
		},
		{
			"inputs": [
				{
					"internalType": "address",
					"name": "account",
					"type": "address"
				}
			],
			"name": "OwnableUnauthorizedAccount",
			"type": "error"
		},
		{
			"anonymous": false,
			"inputs": [
				{
					"indexed": true,
					"internalType": "address",
					"name": "user",
					"type": "address"
				},
				{
					"indexed": false,
					"internalType": "uint256",
					"name": "amount",
					"type": "uint256"
				}
			],
			"name": "CollateralDeposited",
			"type": "event"
		},
		{
			"anonymous": false,
			"inputs": [
				{
					"indexed": true,
					"internalType": "address",
					"name": "user",
					"type": "address"
				},
				{
					"indexed": false,
					"internalType": "uint256",
					"name": "amount",
					"type": "uint256"
				}
			],
			"name": "CollateralWithdrawn",
			"type": "event"
		},
		{
			"anonymous": false,
			"inputs": [
				{
					"indexed": false,
					"internalType": "uint256",
					"name": "price",
					"type": "uint256"
				}
			],
			"name": "EmergencyPriceActivated",
			"type": "event"
		},
		{
			"anonymous": false,
			"inputs": [],
			"name": "EmergencyPriceDeactivated",
			"type": "event"
		},
		{
			"anonymous": false,
			"inputs": [
				{
					"indexed": true,
					"internalType": "address",
					"name": "user",
					"type": "address"
				},
				{
					"indexed": false,
					"internalType": "uint256",
					"name": "collateralAmount",
					"type": "uint256"
				},
				{
					"indexed": false,
					"internalType": "uint256",
					"name": "debtAmount",
					"type": "uint256"
				}
			],
			"name": "Liquidated",
			"type": "event"
		},
		{
			"anonymous": false,
			"inputs": [
				{
					"indexed": true,
					"internalType": "address",
					"name": "user",
					"type": "address"
				},
				{
					"indexed": false,
					"internalType": "uint256",
					"name": "amount",
					"type": "uint256"
				}
			],
			"name": "LoanRepaid",
			"type": "event"
		},
		{
			"anonymous": false,
			"inputs": [
				{
					"indexed": true,
					"internalType": "address",
					"name": "previousOwner",
					"type": "address"
				},
				{
					"indexed": true,
					"internalType": "address",
					"name": "newOwner",
					"type": "address"
				}
			],
			"name": "OwnershipTransferred",
			"type": "event"
		},
		{
			"anonymous": false,
			"inputs": [
				{
					"indexed": false,
					"internalType": "uint256",
					"name": "price",
					"type": "uint256"
				}
			],
			"name": "PriceUpdated",
			"type": "event"
		},
		{
			"anonymous": false,
			"inputs": [
				{
					"indexed": true,
					"internalType": "address",
					"name": "user",
					"type": "address"
				},
				{
					"indexed": false,
					"internalType": "uint256",
					"name": "amount",
					"type": "uint256"
				}
			],
			"name": "StableDeposited",
			"type": "event"
		},
		{
			"anonymous": false,
			"inputs": [
				{
					"indexed": true,
					"internalType": "address",
					"name": "user",
					"type": "address"
				},
				{
					"indexed": false,
					"internalType": "uint256",
					"name": "amount",
					"type": "uint256"
				},
				{
					"indexed": false,
					"internalType": "uint256",
					"name": "interest",
					"type": "uint256"
				}
			],
			"name": "StableWithdrawn",
			"type": "event"
		},
		{
			"anonymous": false,
			"inputs": [
				{
					"indexed": true,
					"internalType": "address",
					"name": "user",
					"type": "address"
				},
				{
					"indexed": false,
					"internalType": "uint256",
					"name": "amount",
					"type": "uint256"
				}
			],
			"name": "TokensBorrowed",
			"type": "event"
		},
		{
			"inputs": [],
			"name": "borrowInterestRate",
			"outputs": [
				{
					"internalType": "uint256",
					"name": "",
					"type": "uint256"
				}
			],
			"stateMutability": "view",
			"type": "function"
		},
		{
			"inputs": [
				{
					"internalType": "uint256",
					"name": "_amount",
					"type": "uint256"
				}
			],
			"name": "borrowStablecoins",
			"outputs": [],
			"stateMutability": "nonpayable",
			"type": "function"
		},
		{
			"inputs": [
				{
					"internalType": "address",
					"name": "_user",
					"type": "address"
				}
			],
			"name": "calculateBorrowInterest",
			"outputs": [
				{
					"internalType": "uint256",
					"name": "",
					"type": "uint256"
				}
			],
			"stateMutability": "view",
			"type": "function"
		},
		{
			"inputs": [
				{
					"internalType": "address",
					"name": "_user",
					"type": "address"
				}
			],
			"name": "calculateLendingInterest",
			"outputs": [
				{
					"internalType": "uint256",
					"name": "",
					"type": "uint256"
				}
			],
			"stateMutability": "view",
			"type": "function"
		},
		{
			"inputs": [],
			"name": "collateralizationRatio",
			"outputs": [
				{
					"internalType": "uint256",
					"name": "",
					"type": "uint256"
				}
			],
			"stateMutability": "view",
			"type": "function"
		},
		{
			"inputs": [],
			"name": "deactivateEmergencyPrice",
			"outputs": [],
			"stateMutability": "nonpayable",
			"type": "function"
		},
		{
			"inputs": [
				{
					"internalType": "uint256",
					"name": "_amount",
					"type": "uint256"
				}
			],
			"name": "depositCollateral",
			"outputs": [],
			"stateMutability": "nonpayable",
			"type": "function"
		},
		{
			"inputs": [
				{
					"internalType": "uint256",
					"name": "_amount",
					"type": "uint256"
				}
			],
			"name": "depositStable",
			"outputs": [],
			"stateMutability": "nonpayable",
			"type": "function"
		},
		{
			"inputs": [],
			"name": "emergencyPrice",
			"outputs": [
				{
					"internalType": "uint256",
					"name": "",
					"type": "uint256"
				}
			],
			"stateMutability": "view",
			"type": "function"
		},
		{
			"inputs": [
				{
					"internalType": "address",
					"name": "_user",
					"type": "address"
				}
			],
			"name": "getCollateralValue",
			"outputs": [
				{
					"internalType": "uint256",
					"name": "",
					"type": "uint256"
				}
			],
			"stateMutability": "view",
			"type": "function"
		},
		{
			"inputs": [
				{
					"internalType": "address",
					"name": "_user",
					"type": "address"
				}
			],
			"name": "getFormattedRepaymentAmount",
			"outputs": [
				{
					"internalType": "uint256",
					"name": "repaymentAmount",
					"type": "uint256"
				},
				{
					"internalType": "uint256",
					"name": "deadline",
					"type": "uint256"
				},
				{
					"internalType": "string",
					"name": "status",
					"type": "string"
				}
			],
			"stateMutability": "view",
			"type": "function"
		},
		{
			"inputs": [],
			"name": "getMemecoinPrice",
			"outputs": [
				{
					"internalType": "uint256",
					"name": "",
					"type": "uint256"
				}
			],
			"stateMutability": "view",
			"type": "function"
		},
		{
			"inputs": [
				{
					"internalType": "address",
					"name": "_user",
					"type": "address"
				}
			],
			"name": "getMinimumRepaymentToAvoidLiquidation",
			"outputs": [
				{
					"internalType": "uint256",
					"name": "minimumRepayment",
					"type": "uint256"
				},
				{
					"internalType": "uint256",
					"name": "currentCollateralValue",
					"type": "uint256"
				},
				{
					"internalType": "uint256",
					"name": "safeLoanAmount",
					"type": "uint256"
				}
			],
			"stateMutability": "view",
			"type": "function"
		},
		{
			"inputs": [
				{
					"internalType": "address",
					"name": "_user",
					"type": "address"
				}
			],
			"name": "getRepaymentDetails",
			"outputs": [
				{
					"components": [
						{
							"internalType": "uint256",
							"name": "principalAmount",
							"type": "uint256"
						},
						{
							"internalType": "uint256",
							"name": "interestAmount",
							"type": "uint256"
						},
						{
							"internalType": "uint256",
							"name": "totalRepayment",
							"type": "uint256"
						},
						{
							"internalType": "uint256",
							"name": "interestRate",
							"type": "uint256"
						},
						{
							"internalType": "uint256",
							"name": "loanDuration",
							"type": "uint256"
						},
						{
							"internalType": "uint256",
							"name": "lastRepaymentTime",
							"type": "uint256"
						}
					],
					"internalType": "struct Memebank.RepaymentDetails",
					"name": "",
					"type": "tuple"
				}
			],
			"stateMutability": "view",
			"type": "function"
		},
		{
			"inputs": [],
			"name": "isEmergencyPricing",
			"outputs": [
				{
					"internalType": "bool",
					"name": "",
					"type": "bool"
				}
			],
			"stateMutability": "view",
			"type": "function"
		},
		{
			"inputs": [],
			"name": "lastUpdateTimestamp",
			"outputs": [
				{
					"internalType": "uint256",
					"name": "",
					"type": "uint256"
				}
			],
			"stateMutability": "view",
			"type": "function"
		},
		{
			"inputs": [],
			"name": "lastValidPrice",
			"outputs": [
				{
					"internalType": "uint256",
					"name": "",
					"type": "uint256"
				}
			],
			"stateMutability": "view",
			"type": "function"
		},
		{
			"inputs": [],
			"name": "lendingInterestRate",
			"outputs": [
				{
					"internalType": "uint256",
					"name": "",
					"type": "uint256"
				}
			],
			"stateMutability": "view",
			"type": "function"
		},
		{
			"inputs": [
				{
					"internalType": "address",
					"name": "_user",
					"type": "address"
				}
			],
			"name": "liquidate",
			"outputs": [],
			"stateMutability": "nonpayable",
			"type": "function"
		},
		{
			"inputs": [],
			"name": "liquidationRatio",
			"outputs": [
				{
					"internalType": "uint256",
					"name": "",
					"type": "uint256"
				}
			],
			"stateMutability": "view",
			"type": "function"
		},
		{
			"inputs": [],
			"name": "maxPriceDeviation",
			"outputs": [
				{
					"internalType": "uint256",
					"name": "",
					"type": "uint256"
				}
			],
			"stateMutability": "view",
			"type": "function"
		},
		{
			"inputs": [],
			"name": "memecoin",
			"outputs": [
				{
					"internalType": "contract IERC20",
					"name": "",
					"type": "address"
				}
			],
			"stateMutability": "view",
			"type": "function"
		},
		{
			"inputs": [],
			"name": "memecoinPairId",
			"outputs": [
				{
					"internalType": "uint256",
					"name": "",
					"type": "uint256"
				}
			],
			"stateMutability": "view",
			"type": "function"
		},
		{
			"inputs": [],
			"name": "owner",
			"outputs": [
				{
					"internalType": "address",
					"name": "",
					"type": "address"
				}
			],
			"stateMutability": "view",
			"type": "function"
		},
		{
			"inputs": [],
			"name": "priceTimeout",
			"outputs": [
				{
					"internalType": "uint256",
					"name": "",
					"type": "uint256"
				}
			],
			"stateMutability": "view",
			"type": "function"
		},
		{
			"inputs": [],
			"name": "renounceOwnership",
			"outputs": [],
			"stateMutability": "nonpayable",
			"type": "function"
		},
		{
			"inputs": [
				{
					"internalType": "uint256",
					"name": "_amount",
					"type": "uint256"
				}
			],
			"name": "repayLoan",
			"outputs": [],
			"stateMutability": "nonpayable",
			"type": "function"
		},
		{
			"inputs": [
				{
					"internalType": "uint256",
					"name": "_collateralization",
					"type": "uint256"
				},
				{
					"internalType": "uint256",
					"name": "_liquidation",
					"type": "uint256"
				}
			],
			"name": "setCollateralRatios",
			"outputs": [],
			"stateMutability": "nonpayable",
			"type": "function"
		},
		{
			"inputs": [
				{
					"internalType": "uint256",
					"name": "_price",
					"type": "uint256"
				}
			],
			"name": "setEmergencyPrice",
			"outputs": [],
			"stateMutability": "nonpayable",
			"type": "function"
		},
		{
			"inputs": [
				{
					"internalType": "uint256",
					"name": "_borrowRate",
					"type": "uint256"
				},
				{
					"internalType": "uint256",
					"name": "_lendRate",
					"type": "uint256"
				}
			],
			"name": "setInterestRates",
			"outputs": [],
			"stateMutability": "nonpayable",
			"type": "function"
		},
		{
			"inputs": [],
			"name": "stablecoin",
			"outputs": [
				{
					"internalType": "contract IERC20",
					"name": "",
					"type": "address"
				}
			],
			"stateMutability": "view",
			"type": "function"
		},
		{
			"inputs": [],
			"name": "totalStableDeposits",
			"outputs": [
				{
					"internalType": "uint256",
					"name": "",
					"type": "uint256"
				}
			],
			"stateMutability": "view",
			"type": "function"
		},
		{
			"inputs": [
				{
					"internalType": "address",
					"name": "newOwner",
					"type": "address"
				}
			],
			"name": "transferOwnership",
			"outputs": [],
			"stateMutability": "nonpayable",
			"type": "function"
		},
		{
			"inputs": [
				{
					"internalType": "bytes",
					"name": "_priceProof",
					"type": "bytes"
				}
			],
			"name": "updatePrice",
			"outputs": [
				{
					"internalType": "uint256",
					"name": "",
					"type": "uint256"
				}
			],
			"stateMutability": "nonpayable",
			"type": "function"
		},
		{
			"inputs": [
				{
					"internalType": "address",
					"name": "",
					"type": "address"
				}
			],
			"name": "users",
			"outputs": [
				{
					"internalType": "uint256",
					"name": "collateralAmount",
					"type": "uint256"
				},
				{
					"internalType": "uint256",
					"name": "borrowedAmount",
					"type": "uint256"
				},
				{
					"internalType": "uint256",
					"name": "borrowTimestamp",
					"type": "uint256"
				},
				{
					"internalType": "uint256",
					"name": "stableDeposited",
					"type": "uint256"
				},
				{
					"internalType": "uint256",
					"name": "depositTimestamp",
					"type": "uint256"
				}
			],
			"stateMutability": "view",
			"type": "function"
		},
		{
			"inputs": [
				{
					"internalType": "uint256",
					"name": "_amount",
					"type": "uint256"
				}
			],
			"name": "withdrawStable",
			"outputs": [],
			"stateMutability": "nonpayable",
			"type": "function"
		}
	]
}